{
	"contracts/CarbonTrader.sol": {
		"CarbonTrader": {
			"abi": [
				{
					"inputs": [
						{
							"internalType": "address",
							"name": "usdtTokenAddress",
							"type": "address"
						}
					],
					"stateMutability": "nonpayable",
					"type": "constructor"
				},
				{
					"inputs": [],
					"name": "CarbonTrader_NotOwner",
					"type": "error"
				},
				{
					"inputs": [],
					"name": "CarbonTrader_ParamError",
					"type": "error"
				},
				{
					"inputs": [],
					"name": "CarbonTrader_transferFailed",
					"type": "error"
				},
				{
					"inputs": [
						{
							"internalType": "string",
							"name": "treadId",
							"type": "string"
						},
						{
							"internalType": "uint256",
							"name": "amount",
							"type": "uint256"
						},
						{
							"internalType": "string",
							"name": "info",
							"type": "string"
						}
					],
					"name": "deposit",
					"outputs": [],
					"stateMutability": "nonpayable",
					"type": "function"
				},
				{
					"inputs": [
						{
							"internalType": "address",
							"name": "user",
							"type": "address"
						}
					],
					"name": "destroyAllAllowance",
					"outputs": [],
					"stateMutability": "nonpayable",
					"type": "function"
				},
				{
					"inputs": [
						{
							"internalType": "address",
							"name": "user",
							"type": "address"
						},
						{
							"internalType": "uint256",
							"name": "amount",
							"type": "uint256"
						}
					],
					"name": "destroyAllowance",
					"outputs": [],
					"stateMutability": "nonpayable",
					"type": "function"
				},
				{
					"inputs": [
						{
							"internalType": "string",
							"name": "treadId",
							"type": "string"
						},
						{
							"internalType": "uint256",
							"name": "allowanceAmount",
							"type": "uint256"
						},
						{
							"internalType": "uint256",
							"name": "addtionalAmountToPay",
							"type": "uint256"
						}
					],
					"name": "finalizeAuctionAndTransferCarbon",
					"outputs": [],
					"stateMutability": "nonpayable",
					"type": "function"
				},
				{
					"inputs": [
						{
							"internalType": "address",
							"name": "user",
							"type": "address"
						},
						{
							"internalType": "uint256",
							"name": "amount",
							"type": "uint256"
						}
					],
					"name": "freezeAllowance",
					"outputs": [],
					"stateMutability": "nonpayable",
					"type": "function"
				},
				{
					"inputs": [
						{
							"internalType": "address",
							"name": "user",
							"type": "address"
						}
					],
					"name": "getAllowance",
					"outputs": [
						{
							"internalType": "uint256",
							"name": "",
							"type": "uint256"
						}
					],
					"stateMutability": "view",
					"type": "function"
				},
				{
					"inputs": [
						{
							"internalType": "string",
							"name": "treadId",
							"type": "string"
						}
					],
					"name": "getBidSecret",
					"outputs": [
						{
							"internalType": "string",
							"name": "",
							"type": "string"
						}
					],
					"stateMutability": "view",
					"type": "function"
				},
				{
					"inputs": [
						{
							"internalType": "address",
							"name": "user",
							"type": "address"
						}
					],
					"name": "getFreezeAllowance",
					"outputs": [
						{
							"internalType": "uint256",
							"name": "",
							"type": "uint256"
						}
					],
					"stateMutability": "view",
					"type": "function"
				},
				{
					"inputs": [
						{
							"internalType": "string",
							"name": "treadId",
							"type": "string"
						}
					],
					"name": "getTread",
					"outputs": [
						{
							"internalType": "address",
							"name": "",
							"type": "address"
						},
						{
							"internalType": "uint256",
							"name": "",
							"type": "uint256"
						},
						{
							"internalType": "uint256",
							"name": "",
							"type": "uint256"
						},
						{
							"internalType": "uint256",
							"name": "",
							"type": "uint256"
						},
						{
							"internalType": "uint256",
							"name": "",
							"type": "uint256"
						},
						{
							"internalType": "uint256",
							"name": "",
							"type": "uint256"
						}
					],
					"stateMutability": "view",
					"type": "function"
				},
				{
					"inputs": [
						{
							"internalType": "address",
							"name": "user",
							"type": "address"
						},
						{
							"internalType": "uint256",
							"name": "amount",
							"type": "uint256"
						}
					],
					"name": "issueAllowance",
					"outputs": [],
					"stateMutability": "nonpayable",
					"type": "function"
				},
				{
					"inputs": [
						{
							"internalType": "string",
							"name": "treadId",
							"type": "string"
						}
					],
					"name": "refundDeposit",
					"outputs": [],
					"stateMutability": "nonpayable",
					"type": "function"
				},
				{
					"inputs": [
						{
							"internalType": "string",
							"name": "treadId",
							"type": "string"
						},
						{
							"internalType": "string",
							"name": "secret",
							"type": "string"
						}
					],
					"name": "setBidSecret",
					"outputs": [],
					"stateMutability": "nonpayable",
					"type": "function"
				},
				{
					"inputs": [
						{
							"internalType": "string",
							"name": "tradeId",
							"type": "string"
						},
						{
							"internalType": "uint256",
							"name": "amount",
							"type": "uint256"
						},
						{
							"internalType": "uint256",
							"name": "stratTimeStamp",
							"type": "uint256"
						},
						{
							"internalType": "uint256",
							"name": "endTimeStamp",
							"type": "uint256"
						},
						{
							"internalType": "uint256",
							"name": "minimumBidAmount",
							"type": "uint256"
						},
						{
							"internalType": "uint256",
							"name": "initPriceOfUnit",
							"type": "uint256"
						}
					],
					"name": "stertTrade",
					"outputs": [],
					"stateMutability": "nonpayable",
					"type": "function"
				},
				{
					"inputs": [
						{
							"internalType": "address",
							"name": "user",
							"type": "address"
						},
						{
							"internalType": "uint256",
							"name": "amount",
							"type": "uint256"
						}
					],
					"name": "unFreezeAllowance",
					"outputs": [],
					"stateMutability": "nonpayable",
					"type": "function"
				},
				{
					"inputs": [],
					"name": "withdrawAcutionAmount",
					"outputs": [],
					"stateMutability": "nonpayable",
					"type": "function"
				}
			],
			"devdoc": {
				"kind": "dev",
				"methods": {},
				"version": 1
			},
			"evm": {
				"assembly": "    /* \"contracts/CarbonTrader.sol\":224:6821  contract  CarbonTrader {... */\n  mstore(0x40, 0xc0)\n    /* \"contracts/CarbonTrader.sol\":1236:1364  constructor (address usdtTokenAddress) {... */\n  callvalue\n  dup1\n  iszero\n  tag_1\n  jumpi\n  0x00\n  dup1\n  revert\ntag_1:\n  pop\n  mload(0x40)\n  sub(codesize, bytecodeSize)\n  dup1\n  bytecodeSize\n  dup4\n  codecopy\n  dup2\n  dup2\n  add\n  0x40\n  mstore\n  dup2\n  add\n  swap1\n  tag_2\n  swap2\n  swap1\n  tag_3\n  jump\t// in\ntag_2:\n    /* \"contracts/CarbonTrader.sol\":1296:1306  msg.sender */\n  caller\n    /* \"contracts/CarbonTrader.sol\":1286:1306  i_owner = msg.sender */\n  0xffffffffffffffffffffffffffffffffffffffff\n  and\n  0x80\n  dup2\n  0xffffffffffffffffffffffffffffffffffffffff\n  and\n  dup2\n  mstore\n  pop\n  pop\n    /* \"contracts/CarbonTrader.sol\":1339:1355  usdtTokenAddress */\n  dup1\n    /* \"contracts/CarbonTrader.sol\":1317:1356  i_usdt_token = IERC20(usdtTokenAddress) */\n  0xffffffffffffffffffffffffffffffffffffffff\n  and\n  0xa0\n  dup2\n  0xffffffffffffffffffffffffffffffffffffffff\n  and\n  dup2\n  mstore\n  pop\n  pop\n    /* \"contracts/CarbonTrader.sol\":1236:1364  constructor (address usdtTokenAddress) {... */\n  pop\n    /* \"contracts/CarbonTrader.sol\":224:6821  contract  CarbonTrader {... */\n  jump(tag_6)\n    /* \"#utility.yul\":88:205   */\ntag_8:\n    /* \"#utility.yul\":197:198   */\n  0x00\n    /* \"#utility.yul\":194:195   */\n  dup1\n    /* \"#utility.yul\":187:199   */\n  revert\n    /* \"#utility.yul\":334:460   */\ntag_10:\n    /* \"#utility.yul\":371:378   */\n  0x00\n    /* \"#utility.yul\":411:453   */\n  0xffffffffffffffffffffffffffffffffffffffff\n    /* \"#utility.yul\":404:409   */\n  dup3\n    /* \"#utility.yul\":400:454   */\n  and\n    /* \"#utility.yul\":389:454   */\n  swap1\n  pop\n    /* \"#utility.yul\":334:460   */\n  swap2\n  swap1\n  pop\n  jump\t// out\n    /* \"#utility.yul\":466:562   */\ntag_11:\n    /* \"#utility.yul\":503:510   */\n  0x00\n    /* \"#utility.yul\":532:556   */\n  tag_20\n    /* \"#utility.yul\":550:555   */\n  dup3\n    /* \"#utility.yul\":532:556   */\n  tag_10\n  jump\t// in\ntag_20:\n    /* \"#utility.yul\":521:556   */\n  swap1\n  pop\n    /* \"#utility.yul\":466:562   */\n  swap2\n  swap1\n  pop\n  jump\t// out\n    /* \"#utility.yul\":568:690   */\ntag_12:\n    /* \"#utility.yul\":641:665   */\n  tag_22\n    /* \"#utility.yul\":659:664   */\n  dup2\n    /* \"#utility.yul\":641:665   */\n  tag_11\n  jump\t// in\ntag_22:\n    /* \"#utility.yul\":634:639   */\n  dup2\n    /* \"#utility.yul\":631:666   */\n  eq\n    /* \"#utility.yul\":621:684   */\n  tag_23\n  jumpi\n    /* \"#utility.yul\":680:681   */\n  0x00\n    /* \"#utility.yul\":677:678   */\n  dup1\n    /* \"#utility.yul\":670:682   */\n  revert\n    /* \"#utility.yul\":621:684   */\ntag_23:\n    /* \"#utility.yul\":568:690   */\n  pop\n  jump\t// out\n    /* \"#utility.yul\":696:839   */\ntag_13:\n    /* \"#utility.yul\":753:758   */\n  0x00\n    /* \"#utility.yul\":784:790   */\n  dup2\n    /* \"#utility.yul\":778:791   */\n  mload\n    /* \"#utility.yul\":769:791   */\n  swap1\n  pop\n    /* \"#utility.yul\":800:833   */\n  tag_25\n    /* \"#utility.yul\":827:832   */\n  dup2\n    /* \"#utility.yul\":800:833   */\n  tag_12\n  jump\t// in\ntag_25:\n    /* \"#utility.yul\":696:839   */\n  swap3\n  swap2\n  pop\n  pop\n  jump\t// out\n    /* \"#utility.yul\":845:1196   */\ntag_3:\n    /* \"#utility.yul\":915:921   */\n  0x00\n    /* \"#utility.yul\":964:966   */\n  0x20\n    /* \"#utility.yul\":952:961   */\n  dup3\n    /* \"#utility.yul\":943:950   */\n  dup5\n    /* \"#utility.yul\":939:962   */\n  sub\n    /* \"#utility.yul\":935:967   */\n  slt\n    /* \"#utility.yul\":932:1051   */\n  iszero\n  tag_27\n  jumpi\n    /* \"#utility.yul\":970:1049   */\n  tag_28\n  tag_8\n  jump\t// in\ntag_28:\n    /* \"#utility.yul\":932:1051   */\ntag_27:\n    /* \"#utility.yul\":1090:1091   */\n  0x00\n    /* \"#utility.yul\":1115:1179   */\n  tag_29\n    /* \"#utility.yul\":1171:1178   */\n  dup5\n    /* \"#utility.yul\":1162:1168   */\n  dup3\n    /* \"#utility.yul\":1151:1160   */\n  dup6\n    /* \"#utility.yul\":1147:1169   */\n  add\n    /* \"#utility.yul\":1115:1179   */\n  tag_13\n  jump\t// in\ntag_29:\n    /* \"#utility.yul\":1105:1179   */\n  swap2\n  pop\n    /* \"#utility.yul\":1061:1189   */\n  pop\n    /* \"#utility.yul\":845:1196   */\n  swap3\n  swap2\n  pop\n  pop\n  jump\t// out\n    /* \"contracts/CarbonTrader.sol\":224:6821  contract  CarbonTrader {... */\ntag_6:\n  mload(0x80)\n  mload(0xa0)\n  codecopy(0x00, dataOffset(sub_0), dataSize(sub_0))\n  0x00\n  assignImmutable(\"0x356838a9802f9300960370a61c1b93fed91a0635190b94cc9f275180c4d2038b\")\n  0x00\n  assignImmutable(\"0x94bf69fb65508f6e4ddb8e9d68af175b29ca55b7385169421c8fce2c4390b244\")\n  return(0x00, dataSize(sub_0))\nstop\n\nsub_0: assembly {\n        /* \"contracts/CarbonTrader.sol\":224:6821  contract  CarbonTrader {... */\n      mstore(0x40, 0x80)\n      callvalue\n      dup1\n      iszero\n      tag_1\n      jumpi\n      0x00\n      dup1\n      revert\n    tag_1:\n      pop\n      jumpi(tag_2, lt(calldatasize, 0x04))\n      shr(0xe0, calldataload(0x00))\n      dup1\n      0x69524d31\n      gt\n      tag_18\n      jumpi\n      dup1\n      0x97b1a8b7\n      gt\n      tag_19\n      jumpi\n      dup1\n      0x97b1a8b7\n      eq\n      tag_14\n      jumpi\n      dup1\n      0xd107a5cc\n      eq\n      tag_15\n      jumpi\n      dup1\n      0xd62b58ca\n      eq\n      tag_16\n      jumpi\n      dup1\n      0xeb5a662e\n      eq\n      tag_17\n      jumpi\n      jump(tag_2)\n    tag_19:\n      dup1\n      0x69524d31\n      eq\n      tag_10\n      jumpi\n      dup1\n      0x69527363\n      eq\n      tag_11\n      jumpi\n      dup1\n      0x733da7c8\n      eq\n      tag_12\n      jumpi\n      dup1\n      0x7feab380\n      eq\n      tag_13\n      jumpi\n      jump(tag_2)\n    tag_18:\n      dup1\n      0x4fe19125\n      gt\n      tag_20\n      jumpi\n      dup1\n      0x4fe19125\n      eq\n      tag_6\n      jumpi\n      dup1\n      0x5ed04c43\n      eq\n      tag_7\n      jumpi\n      dup1\n      0x64502cae\n      eq\n      tag_8\n      jumpi\n      dup1\n      0x68b377ca\n      eq\n      tag_9\n      jumpi\n      jump(tag_2)\n    tag_20:\n      dup1\n      0x17056d94\n      eq\n      tag_3\n      jumpi\n      dup1\n      0x19ec73e0\n      eq\n      tag_4\n      jumpi\n      dup1\n      0x459ccec7\n      eq\n      tag_5\n      jumpi\n    tag_2:\n      0x00\n      dup1\n      revert\n        /* \"contracts/CarbonTrader.sol\":2295:2417  function getFreezeAllowance(address user) public view  returns (uint256) {... */\n    tag_3:\n      tag_21\n      0x04\n      dup1\n      calldatasize\n      sub\n      dup2\n      add\n      swap1\n      tag_22\n      swap2\n      swap1\n      tag_23\n      jump\t// in\n    tag_22:\n      tag_24\n      jump\t// in\n    tag_21:\n      mload(0x40)\n      tag_25\n      swap2\n      swap1\n      tag_26\n      jump\t// in\n    tag_25:\n      mload(0x40)\n      dup1\n      swap2\n      sub\n      swap1\n      return\n        /* \"contracts/CarbonTrader.sol\":2080:2254  function unFreezeAllowance (address user,uint256 amount) public onlyOwner {... */\n    tag_4:\n      tag_27\n      0x04\n      dup1\n      calldatasize\n      sub\n      dup2\n      add\n      swap1\n      tag_28\n      swap2\n      swap1\n      tag_29\n      jump\t// in\n    tag_28:\n      tag_30\n      jump\t// in\n    tag_27:\n      stop\n        /* \"contracts/CarbonTrader.sol\":2616:2764  function destroyAllAllowance(address user) public onlyOwner {... */\n    tag_5:\n      tag_31\n      0x04\n      dup1\n      calldatasize\n      sub\n      dup2\n      add\n      swap1\n      tag_32\n      swap2\n      swap1\n      tag_23\n      jump\t// in\n    tag_32:\n      tag_33\n      jump\t// in\n    tag_31:\n      stop\n        /* \"contracts/CarbonTrader.sol\":5223:5408  function setBidSecret(string memory treadId, string memory secret)public {... */\n    tag_6:\n      tag_34\n      0x04\n      dup1\n      calldatasize\n      sub\n      dup2\n      add\n      swap1\n      tag_35\n      swap2\n      swap1\n      tag_36\n      jump\t// in\n    tag_35:\n      tag_37\n      jump\t// in\n    tag_34:\n      stop\n        /* \"contracts/CarbonTrader.sol\":5415:5605  function getBidSecret(string memory treadId) public view returns(string memory) {... */\n    tag_7:\n      tag_38\n      0x04\n      dup1\n      calldatasize\n      sub\n      dup2\n      add\n      swap1\n      tag_39\n      swap2\n      swap1\n      tag_40\n      jump\t// in\n    tag_39:\n      tag_41\n      jump\t// in\n    tag_38:\n      mload(0x40)\n      tag_42\n      swap2\n      swap1\n      tag_43\n      jump\t// in\n    tag_42:\n      mload(0x40)\n      dup1\n      swap2\n      sub\n      swap1\n      return\n        /* \"contracts/CarbonTrader.sol\":2449:2578  function destroyAllowance(address user, uint256 amount) public onlyOwner {... */\n    tag_8:\n      tag_44\n      0x04\n      dup1\n      calldatasize\n      sub\n      dup2\n      add\n      swap1\n      tag_45\n      swap2\n      swap1\n      tag_29\n      jump\t// in\n    tag_45:\n      tag_46\n      jump\t// in\n    tag_44:\n      stop\n        /* \"contracts/CarbonTrader.sol\":4168:4574  function deposit(string memory treadId, uint256 amount, string memory info) public {... */\n    tag_9:\n      tag_47\n      0x04\n      dup1\n      calldatasize\n      sub\n      dup2\n      add\n      swap1\n      tag_48\n      swap2\n      swap1\n      tag_49\n      jump\t// in\n    tag_48:\n      tag_50\n      jump\t// in\n    tag_47:\n      stop\n        /* \"contracts/CarbonTrader.sol\":4580:5027  function refundDeposit(string memory treadId) public {... */\n    tag_10:\n      tag_51\n      0x04\n      dup1\n      calldatasize\n      sub\n      dup2\n      add\n      swap1\n      tag_52\n      swap2\n      swap1\n      tag_40\n      jump\t// in\n    tag_52:\n      tag_53\n      jump\t// in\n    tag_51:\n      stop\n        /* \"contracts/CarbonTrader.sol\":2793:3718  function stertTrade (... */\n    tag_11:\n      tag_54\n      0x04\n      dup1\n      calldatasize\n      sub\n      dup2\n      add\n      swap1\n      tag_55\n      swap2\n      swap1\n      tag_56\n      jump\t// in\n    tag_55:\n      tag_57\n      jump\t// in\n    tag_54:\n      stop\n        /* \"contracts/CarbonTrader.sol\":1562:1687  function issueAllowance(address user,uint256 amount) public onlyOwner {... */\n    tag_12:\n      tag_58\n      0x04\n      dup1\n      calldatasize\n      sub\n      dup2\n      add\n      swap1\n      tag_59\n      swap2\n      swap1\n      tag_29\n      jump\t// in\n    tag_59:\n      tag_60\n      jump\t// in\n    tag_58:\n      stop\n        /* \"contracts/CarbonTrader.sol\":6467:6816  function withdrawAcutionAmount()public {... */\n    tag_13:\n      tag_61\n      tag_62\n      jump\t// in\n    tag_61:\n      stop\n        /* \"contracts/CarbonTrader.sol\":3745:4162  function getTread (string memory treadId) public view returns (address,uint256,uint256,uint256,uint256,uint256){... */\n    tag_14:\n      tag_63\n      0x04\n      dup1\n      calldatasize\n      sub\n      dup2\n      add\n      swap1\n      tag_64\n      swap2\n      swap1\n      tag_40\n      jump\t// in\n    tag_64:\n      tag_65\n      jump\t// in\n    tag_63:\n      mload(0x40)\n      tag_66\n      swap7\n      swap6\n      swap5\n      swap4\n      swap3\n      swap2\n      swap1\n      tag_67\n      jump\t// in\n    tag_66:\n      mload(0x40)\n      dup1\n      swap2\n      sub\n      swap1\n      return\n        /* \"contracts/CarbonTrader.sol\":1872:2045  function freezeAllowance (address user,uint256 amount) public  onlyOwner {... */\n    tag_15:\n      tag_68\n      0x04\n      dup1\n      calldatasize\n      sub\n      dup2\n      add\n      swap1\n      tag_69\n      swap2\n      swap1\n      tag_29\n      jump\t// in\n    tag_69:\n      tag_70\n      jump\t// in\n    tag_68:\n      stop\n        /* \"contracts/CarbonTrader.sol\":5626:6461  function finalizeAuctionAndTransferCarbon(... */\n    tag_16:\n      tag_71\n      0x04\n      dup1\n      calldatasize\n      sub\n      dup2\n      add\n      swap1\n      tag_72\n      swap2\n      swap1\n      tag_73\n      jump\t// in\n    tag_72:\n      tag_74\n      jump\t// in\n    tag_71:\n      stop\n        /* \"contracts/CarbonTrader.sol\":1723:1842  function getAllowance(address user)public view  returns (uint256) {... */\n    tag_17:\n      tag_75\n      0x04\n      dup1\n      calldatasize\n      sub\n      dup2\n      add\n      swap1\n      tag_76\n      swap2\n      swap1\n      tag_23\n      jump\t// in\n    tag_76:\n      tag_77\n      jump\t// in\n    tag_75:\n      mload(0x40)\n      tag_78\n      swap2\n      swap1\n      tag_26\n      jump\t// in\n    tag_78:\n      mload(0x40)\n      dup1\n      swap2\n      sub\n      swap1\n      return\n        /* \"contracts/CarbonTrader.sol\":2295:2417  function getFreezeAllowance(address user) public view  returns (uint256) {... */\n    tag_24:\n        /* \"contracts/CarbonTrader.sol\":2359:2366  uint256 */\n      0x00\n        /* \"contracts/CarbonTrader.sol\":2386:2403  s_freezeAllowance */\n      0x01\n        /* \"contracts/CarbonTrader.sol\":2386:2409  s_freezeAllowance[user] */\n      0x00\n        /* \"contracts/CarbonTrader.sol\":2404:2408  user */\n      dup4\n        /* \"contracts/CarbonTrader.sol\":2386:2409  s_freezeAllowance[user] */\n      0xffffffffffffffffffffffffffffffffffffffff\n      and\n      0xffffffffffffffffffffffffffffffffffffffff\n      and\n      dup2\n      mstore\n      0x20\n      add\n      swap1\n      dup2\n      mstore\n      0x20\n      add\n      0x00\n      keccak256\n      sload\n        /* \"contracts/CarbonTrader.sol\":2379:2409  return s_freezeAllowance[user] */\n      swap1\n      pop\n        /* \"contracts/CarbonTrader.sol\":2295:2417  function getFreezeAllowance(address user) public view  returns (uint256) {... */\n      swap2\n      swap1\n      pop\n      jump\t// out\n        /* \"contracts/CarbonTrader.sol\":2080:2254  function unFreezeAllowance (address user,uint256 amount) public onlyOwner {... */\n    tag_30:\n        /* \"contracts/CarbonTrader.sol\":1438:1445  i_owner */\n      immutable(\"0x94bf69fb65508f6e4ddb8e9d68af175b29ca55b7385169421c8fce2c4390b244\")\n        /* \"contracts/CarbonTrader.sol\":1424:1445  msg.sender != i_owner */\n      0xffffffffffffffffffffffffffffffffffffffff\n      and\n        /* \"contracts/CarbonTrader.sol\":1424:1434  msg.sender */\n      caller\n        /* \"contracts/CarbonTrader.sol\":1424:1445  msg.sender != i_owner */\n      0xffffffffffffffffffffffffffffffffffffffff\n      and\n      eq\n        /* \"contracts/CarbonTrader.sol\":1420:1504  if (msg.sender != i_owner) {... */\n      tag_81\n      jumpi\n        /* \"contracts/CarbonTrader.sol\":1469:1492  CarbonTrader_NotOwner() */\n      mload(0x40)\n      0xc31b2cfe00000000000000000000000000000000000000000000000000000000\n      dup2\n      mstore\n      0x04\n      add\n      mload(0x40)\n      dup1\n      swap2\n      sub\n      swap1\n      revert\n        /* \"contracts/CarbonTrader.sol\":1420:1504  if (msg.sender != i_owner) {... */\n    tag_81:\n        /* \"contracts/CarbonTrader.sol\":2196:2202  amount */\n      dup1\n        /* \"contracts/CarbonTrader.sol\":2165:2186  s_addressToAllowances */\n      0x00\n        /* \"contracts/CarbonTrader.sol\":2165:2192  s_addressToAllowances[user] */\n      dup1\n        /* \"contracts/CarbonTrader.sol\":2187:2191  user */\n      dup5\n        /* \"contracts/CarbonTrader.sol\":2165:2192  s_addressToAllowances[user] */\n      0xffffffffffffffffffffffffffffffffffffffff\n      and\n      0xffffffffffffffffffffffffffffffffffffffff\n      and\n      dup2\n      mstore\n      0x20\n      add\n      swap1\n      dup2\n      mstore\n      0x20\n      add\n      0x00\n      keccak256\n      0x00\n        /* \"contracts/CarbonTrader.sol\":2165:2202  s_addressToAllowances[user] += amount */\n      dup3\n      dup3\n      sload\n      tag_83\n      swap2\n      swap1\n      tag_84\n      jump\t// in\n    tag_83:\n      swap3\n      pop\n      pop\n      dup2\n      swap1\n      sstore\n      pop\n        /* \"contracts/CarbonTrader.sol\":2240:2246  amount */\n      dup1\n        /* \"contracts/CarbonTrader.sol\":2213:2230  s_freezeAllowance */\n      0x01\n        /* \"contracts/CarbonTrader.sol\":2213:2236  s_freezeAllowance[user] */\n      0x00\n        /* \"contracts/CarbonTrader.sol\":2231:2235  user */\n      dup5\n        /* \"contracts/CarbonTrader.sol\":2213:2236  s_freezeAllowance[user] */\n      0xffffffffffffffffffffffffffffffffffffffff\n      and\n      0xffffffffffffffffffffffffffffffffffffffff\n      and\n      dup2\n      mstore\n      0x20\n      add\n      swap1\n      dup2\n      mstore\n      0x20\n      add\n      0x00\n      keccak256\n      0x00\n        /* \"contracts/CarbonTrader.sol\":2213:2246  s_freezeAllowance[user] -= amount */\n      dup3\n      dup3\n      sload\n      tag_85\n      swap2\n      swap1\n      tag_86\n      jump\t// in\n    tag_85:\n      swap3\n      pop\n      pop\n      dup2\n      swap1\n      sstore\n      pop\n        /* \"contracts/CarbonTrader.sol\":2080:2254  function unFreezeAllowance (address user,uint256 amount) public onlyOwner {... */\n      pop\n      pop\n      jump\t// out\n        /* \"contracts/CarbonTrader.sol\":2616:2764  function destroyAllAllowance(address user) public onlyOwner {... */\n    tag_33:\n        /* \"contracts/CarbonTrader.sol\":1438:1445  i_owner */\n      immutable(\"0x94bf69fb65508f6e4ddb8e9d68af175b29ca55b7385169421c8fce2c4390b244\")\n        /* \"contracts/CarbonTrader.sol\":1424:1445  msg.sender != i_owner */\n      0xffffffffffffffffffffffffffffffffffffffff\n      and\n        /* \"contracts/CarbonTrader.sol\":1424:1434  msg.sender */\n      caller\n        /* \"contracts/CarbonTrader.sol\":1424:1445  msg.sender != i_owner */\n      0xffffffffffffffffffffffffffffffffffffffff\n      and\n      eq\n        /* \"contracts/CarbonTrader.sol\":1420:1504  if (msg.sender != i_owner) {... */\n      tag_88\n      jumpi\n        /* \"contracts/CarbonTrader.sol\":1469:1492  CarbonTrader_NotOwner() */\n      mload(0x40)\n      0xc31b2cfe00000000000000000000000000000000000000000000000000000000\n      dup2\n      mstore\n      0x04\n      add\n      mload(0x40)\n      dup1\n      swap2\n      sub\n      swap1\n      revert\n        /* \"contracts/CarbonTrader.sol\":1420:1504  if (msg.sender != i_owner) {... */\n    tag_88:\n        /* \"contracts/CarbonTrader.sol\":2717:2718  0 */\n      0x00\n        /* \"contracts/CarbonTrader.sol\":2687:2708  s_addressToAllowances */\n      dup1\n        /* \"contracts/CarbonTrader.sol\":2687:2714  s_addressToAllowances[user] */\n      0x00\n        /* \"contracts/CarbonTrader.sol\":2709:2713  user */\n      dup4\n        /* \"contracts/CarbonTrader.sol\":2687:2714  s_addressToAllowances[user] */\n      0xffffffffffffffffffffffffffffffffffffffff\n      and\n      0xffffffffffffffffffffffffffffffffffffffff\n      and\n      dup2\n      mstore\n      0x20\n      add\n      swap1\n      dup2\n      mstore\n      0x20\n      add\n      0x00\n      keccak256\n        /* \"contracts/CarbonTrader.sol\":2687:2718  s_addressToAllowances[user] = 0 */\n      dup2\n      swap1\n      sstore\n      pop\n        /* \"contracts/CarbonTrader.sol\":2755:2756  0 */\n      0x00\n        /* \"contracts/CarbonTrader.sol\":2729:2746  s_freezeAllowance */\n      0x01\n        /* \"contracts/CarbonTrader.sol\":2729:2752  s_freezeAllowance[user] */\n      0x00\n        /* \"contracts/CarbonTrader.sol\":2747:2751  user */\n      dup4\n        /* \"contracts/CarbonTrader.sol\":2729:2752  s_freezeAllowance[user] */\n      0xffffffffffffffffffffffffffffffffffffffff\n      and\n      0xffffffffffffffffffffffffffffffffffffffff\n      and\n      dup2\n      mstore\n      0x20\n      add\n      swap1\n      dup2\n      mstore\n      0x20\n      add\n      0x00\n      keccak256\n        /* \"contracts/CarbonTrader.sol\":2729:2756  s_freezeAllowance[user] = 0 */\n      dup2\n      swap1\n      sstore\n      pop\n        /* \"contracts/CarbonTrader.sol\":2616:2764  function destroyAllAllowance(address user) public onlyOwner {... */\n      pop\n      jump\t// out\n        /* \"contracts/CarbonTrader.sol\":5223:5408  function setBidSecret(string memory treadId, string memory secret)public {... */\n    tag_37:\n        /* \"contracts/CarbonTrader.sol\":5307:5329  Trade storage curTrade */\n      0x00\n        /* \"contracts/CarbonTrader.sol\":5332:5339  s_trade */\n      0x02\n        /* \"contracts/CarbonTrader.sol\":5340:5347  treadId */\n      dup4\n        /* \"contracts/CarbonTrader.sol\":5332:5348  s_trade[treadId] */\n      mload(0x40)\n      tag_91\n      swap2\n      swap1\n      tag_92\n      jump\t// in\n    tag_91:\n      swap1\n      dup2\n      mstore\n      0x20\n      add\n      mload(0x40)\n      dup1\n      swap2\n      sub\n      swap1\n      keccak256\n        /* \"contracts/CarbonTrader.sol\":5307:5348  Trade storage curTrade = s_trade[treadId] */\n      swap1\n      pop\n        /* \"contracts/CarbonTrader.sol\":5393:5399  secret */\n      dup2\n        /* \"contracts/CarbonTrader.sol\":5359:5367  curTrade */\n      dup2\n        /* \"contracts/CarbonTrader.sol\":5359:5378  curTrade.bidSecrets */\n      0x08\n      add\n        /* \"contracts/CarbonTrader.sol\":5359:5390  curTrade.bidSecrets[msg.sender] */\n      0x00\n        /* \"contracts/CarbonTrader.sol\":5379:5389  msg.sender */\n      caller\n        /* \"contracts/CarbonTrader.sol\":5359:5390  curTrade.bidSecrets[msg.sender] */\n      0xffffffffffffffffffffffffffffffffffffffff\n      and\n      0xffffffffffffffffffffffffffffffffffffffff\n      and\n      dup2\n      mstore\n      0x20\n      add\n      swap1\n      dup2\n      mstore\n      0x20\n      add\n      0x00\n      keccak256\n        /* \"contracts/CarbonTrader.sol\":5359:5399  curTrade.bidSecrets[msg.sender] = secret */\n      swap1\n      dup2\n      tag_93\n      swap2\n      swap1\n      tag_94\n      jump\t// in\n    tag_93:\n      pop\n        /* \"contracts/CarbonTrader.sol\":5296:5408  {... */\n      pop\n        /* \"contracts/CarbonTrader.sol\":5223:5408  function setBidSecret(string memory treadId, string memory secret)public {... */\n      pop\n      pop\n      jump\t// out\n        /* \"contracts/CarbonTrader.sol\":5415:5605  function getBidSecret(string memory treadId) public view returns(string memory) {... */\n    tag_41:\n        /* \"contracts/CarbonTrader.sol\":5480:5493  string memory */\n      0x60\n        /* \"contracts/CarbonTrader.sol\":5506:5528  Trade storage curTrade */\n      0x00\n        /* \"contracts/CarbonTrader.sol\":5531:5538  s_trade */\n      0x02\n        /* \"contracts/CarbonTrader.sol\":5539:5546  treadId */\n      dup4\n        /* \"contracts/CarbonTrader.sol\":5531:5547  s_trade[treadId] */\n      mload(0x40)\n      tag_96\n      swap2\n      swap1\n      tag_92\n      jump\t// in\n    tag_96:\n      swap1\n      dup2\n      mstore\n      0x20\n      add\n      mload(0x40)\n      dup1\n      swap2\n      sub\n      swap1\n      keccak256\n        /* \"contracts/CarbonTrader.sol\":5506:5547  Trade storage curTrade = s_trade[treadId] */\n      swap1\n      pop\n        /* \"contracts/CarbonTrader.sol\":5565:5573  curTrade */\n      dup1\n        /* \"contracts/CarbonTrader.sol\":5565:5584  curTrade.bidSecrets */\n      0x08\n      add\n        /* \"contracts/CarbonTrader.sol\":5565:5596  curTrade.bidSecrets[msg.sender] */\n      0x00\n        /* \"contracts/CarbonTrader.sol\":5585:5595  msg.sender */\n      caller\n        /* \"contracts/CarbonTrader.sol\":5565:5596  curTrade.bidSecrets[msg.sender] */\n      0xffffffffffffffffffffffffffffffffffffffff\n      and\n      0xffffffffffffffffffffffffffffffffffffffff\n      and\n      dup2\n      mstore\n      0x20\n      add\n      swap1\n      dup2\n      mstore\n      0x20\n      add\n      0x00\n      keccak256\n        /* \"contracts/CarbonTrader.sol\":5558:5596  return curTrade.bidSecrets[msg.sender] */\n      dup1\n      sload\n      tag_97\n      swap1\n      tag_98\n      jump\t// in\n    tag_97:\n      dup1\n      0x1f\n      add\n      0x20\n      dup1\n      swap2\n      div\n      mul\n      0x20\n      add\n      mload(0x40)\n      swap1\n      dup2\n      add\n      0x40\n      mstore\n      dup1\n      swap3\n      swap2\n      swap1\n      dup2\n      dup2\n      mstore\n      0x20\n      add\n      dup3\n      dup1\n      sload\n      tag_99\n      swap1\n      tag_98\n      jump\t// in\n    tag_99:\n      dup1\n      iszero\n      tag_100\n      jumpi\n      dup1\n      0x1f\n      lt\n      tag_101\n      jumpi\n      0x0100\n      dup1\n      dup4\n      sload\n      div\n      mul\n      dup4\n      mstore\n      swap2\n      0x20\n      add\n      swap2\n      jump(tag_100)\n    tag_101:\n      dup3\n      add\n      swap2\n      swap1\n      0x00\n      mstore\n      keccak256(0x00, 0x20)\n      swap1\n    tag_102:\n      dup2\n      sload\n      dup2\n      mstore\n      swap1\n      0x01\n      add\n      swap1\n      0x20\n      add\n      dup1\n      dup4\n      gt\n      tag_102\n      jumpi\n      dup3\n      swap1\n      sub\n      0x1f\n      and\n      dup3\n      add\n      swap2\n    tag_100:\n      pop\n      pop\n      pop\n      pop\n      pop\n      swap2\n      pop\n      pop\n        /* \"contracts/CarbonTrader.sol\":5415:5605  function getBidSecret(string memory treadId) public view returns(string memory) {... */\n      swap2\n      swap1\n      pop\n      jump\t// out\n        /* \"contracts/CarbonTrader.sol\":2449:2578  function destroyAllowance(address user, uint256 amount) public onlyOwner {... */\n    tag_46:\n        /* \"contracts/CarbonTrader.sol\":1438:1445  i_owner */\n      immutable(\"0x94bf69fb65508f6e4ddb8e9d68af175b29ca55b7385169421c8fce2c4390b244\")\n        /* \"contracts/CarbonTrader.sol\":1424:1445  msg.sender != i_owner */\n      0xffffffffffffffffffffffffffffffffffffffff\n      and\n        /* \"contracts/CarbonTrader.sol\":1424:1434  msg.sender */\n      caller\n        /* \"contracts/CarbonTrader.sol\":1424:1445  msg.sender != i_owner */\n      0xffffffffffffffffffffffffffffffffffffffff\n      and\n      eq\n        /* \"contracts/CarbonTrader.sol\":1420:1504  if (msg.sender != i_owner) {... */\n      tag_104\n      jumpi\n        /* \"contracts/CarbonTrader.sol\":1469:1492  CarbonTrader_NotOwner() */\n      mload(0x40)\n      0xc31b2cfe00000000000000000000000000000000000000000000000000000000\n      dup2\n      mstore\n      0x04\n      add\n      mload(0x40)\n      dup1\n      swap2\n      sub\n      swap1\n      revert\n        /* \"contracts/CarbonTrader.sol\":1420:1504  if (msg.sender != i_owner) {... */\n    tag_104:\n        /* \"contracts/CarbonTrader.sol\":2564:2570  amount */\n      dup1\n        /* \"contracts/CarbonTrader.sol\":2533:2554  s_addressToAllowances */\n      0x00\n        /* \"contracts/CarbonTrader.sol\":2533:2560  s_addressToAllowances[user] */\n      dup1\n        /* \"contracts/CarbonTrader.sol\":2555:2559  user */\n      dup5\n        /* \"contracts/CarbonTrader.sol\":2533:2560  s_addressToAllowances[user] */\n      0xffffffffffffffffffffffffffffffffffffffff\n      and\n      0xffffffffffffffffffffffffffffffffffffffff\n      and\n      dup2\n      mstore\n      0x20\n      add\n      swap1\n      dup2\n      mstore\n      0x20\n      add\n      0x00\n      keccak256\n      0x00\n        /* \"contracts/CarbonTrader.sol\":2533:2570  s_addressToAllowances[user] -= amount */\n      dup3\n      dup3\n      sload\n      tag_106\n      swap2\n      swap1\n      tag_86\n      jump\t// in\n    tag_106:\n      swap3\n      pop\n      pop\n      dup2\n      swap1\n      sstore\n      pop\n        /* \"contracts/CarbonTrader.sol\":2449:2578  function destroyAllowance(address user, uint256 amount) public onlyOwner {... */\n      pop\n      pop\n      jump\t// out\n        /* \"contracts/CarbonTrader.sol\":4168:4574  function deposit(string memory treadId, uint256 amount, string memory info) public {... */\n    tag_50:\n        /* \"contracts/CarbonTrader.sol\":4262:4284  Trade storage curTrade */\n      0x00\n        /* \"contracts/CarbonTrader.sol\":4287:4294  s_trade */\n      0x02\n        /* \"contracts/CarbonTrader.sol\":4295:4302  treadId */\n      dup5\n        /* \"contracts/CarbonTrader.sol\":4287:4303  s_trade[treadId] */\n      mload(0x40)\n      tag_108\n      swap2\n      swap1\n      tag_92\n      jump\t// in\n    tag_108:\n      swap1\n      dup2\n      mstore\n      0x20\n      add\n      mload(0x40)\n      dup1\n      swap2\n      sub\n      swap1\n      keccak256\n        /* \"contracts/CarbonTrader.sol\":4262:4303  Trade storage curTrade = s_trade[treadId] */\n      swap1\n      pop\n        /* \"contracts/CarbonTrader.sol\":4314:4326  bool success */\n      0x00\n        /* \"contracts/CarbonTrader.sol\":4329:4341  i_usdt_token */\n      immutable(\"0x356838a9802f9300960370a61c1b93fed91a0635190b94cc9f275180c4d2038b\")\n        /* \"contracts/CarbonTrader.sol\":4329:4354  i_usdt_token.transferFrom */\n      0xffffffffffffffffffffffffffffffffffffffff\n      and\n      0x23b872dd\n        /* \"contracts/CarbonTrader.sol\":4355:4365  msg.sender */\n      caller\n        /* \"contracts/CarbonTrader.sol\":4375:4379  this */\n      address\n        /* \"contracts/CarbonTrader.sol\":4382:4388  amount */\n      dup8\n        /* \"contracts/CarbonTrader.sol\":4329:4389  i_usdt_token.transferFrom(msg.sender, address(this), amount) */\n      mload(0x40)\n      dup5\n      0xffffffff\n      and\n      0xe0\n      shl\n      dup2\n      mstore\n      0x04\n      add\n      tag_109\n      swap4\n      swap3\n      swap2\n      swap1\n      tag_110\n      jump\t// in\n    tag_109:\n      0x20\n      mload(0x40)\n      dup1\n      dup4\n      sub\n      dup2\n      0x00\n      dup8\n      gas\n      call\n      iszero\n      dup1\n      iszero\n      tag_112\n      jumpi\n      returndatasize\n      0x00\n      dup1\n      returndatacopy\n      revert(0x00, returndatasize)\n    tag_112:\n      pop\n      pop\n      pop\n      pop\n      mload(0x40)\n      returndatasize\n      not(0x1f)\n      0x1f\n      dup3\n      add\n      and\n      dup3\n      add\n      dup1\n      0x40\n      mstore\n      pop\n      dup2\n      add\n      swap1\n      tag_113\n      swap2\n      swap1\n      tag_114\n      jump\t// in\n    tag_113:\n        /* \"contracts/CarbonTrader.sol\":4314:4389  bool success = i_usdt_token.transferFrom(msg.sender, address(this), amount) */\n      swap1\n      pop\n        /* \"contracts/CarbonTrader.sol\":4405:4412  success */\n      dup1\n        /* \"contracts/CarbonTrader.sol\":4400:4450  if (!success) revert CarbonTrader_transferFailed() */\n      tag_115\n      jumpi\n        /* \"contracts/CarbonTrader.sol\":4421:4450  CarbonTrader_transferFailed() */\n      mload(0x40)\n      0x81b714be00000000000000000000000000000000000000000000000000000000\n      dup2\n      mstore\n      0x04\n      add\n      mload(0x40)\n      dup1\n      swap2\n      sub\n      swap1\n      revert\n        /* \"contracts/CarbonTrader.sol\":4400:4450  if (!success) revert CarbonTrader_transferFailed() */\n    tag_115:\n        /* \"contracts/CarbonTrader.sol\":4525:4531  amount */\n      dup4\n        /* \"contracts/CarbonTrader.sol\":4492:4500  curTrade */\n      dup3\n        /* \"contracts/CarbonTrader.sol\":4492:4510  curTrade.deeposits */\n      0x06\n      add\n        /* \"contracts/CarbonTrader.sol\":4492:4522  curTrade.deeposits[msg.sender] */\n      0x00\n        /* \"contracts/CarbonTrader.sol\":4511:4521  msg.sender */\n      caller\n        /* \"contracts/CarbonTrader.sol\":4492:4522  curTrade.deeposits[msg.sender] */\n      0xffffffffffffffffffffffffffffffffffffffff\n      and\n      0xffffffffffffffffffffffffffffffffffffffff\n      and\n      dup2\n      mstore\n      0x20\n      add\n      swap1\n      dup2\n      mstore\n      0x20\n      add\n      0x00\n      keccak256\n        /* \"contracts/CarbonTrader.sol\":4492:4531  curTrade.deeposits[msg.sender] = amount */\n      dup2\n      swap1\n      sstore\n      pop\n        /* \"contracts/CarbonTrader.sol\":4542:4564  setInfo(treadId, info) */\n      tag_116\n        /* \"contracts/CarbonTrader.sol\":4550:4557  treadId */\n      dup6\n        /* \"contracts/CarbonTrader.sol\":4559:4563  info */\n      dup5\n        /* \"contracts/CarbonTrader.sol\":4542:4549  setInfo */\n      tag_117\n        /* \"contracts/CarbonTrader.sol\":4542:4564  setInfo(treadId, info) */\n      jump\t// in\n    tag_116:\n        /* \"contracts/CarbonTrader.sol\":4251:4574  {... */\n      pop\n      pop\n        /* \"contracts/CarbonTrader.sol\":4168:4574  function deposit(string memory treadId, uint256 amount, string memory info) public {... */\n      pop\n      pop\n      pop\n      jump\t// out\n        /* \"contracts/CarbonTrader.sol\":4580:5027  function refundDeposit(string memory treadId) public {... */\n    tag_53:\n        /* \"contracts/CarbonTrader.sol\":4644:4666  Trade storage curTrade */\n      0x00\n        /* \"contracts/CarbonTrader.sol\":4669:4676  s_trade */\n      0x02\n        /* \"contracts/CarbonTrader.sol\":4677:4684  treadId */\n      dup3\n        /* \"contracts/CarbonTrader.sol\":4669:4685  s_trade[treadId] */\n      mload(0x40)\n      tag_119\n      swap2\n      swap1\n      tag_92\n      jump\t// in\n    tag_119:\n      swap1\n      dup2\n      mstore\n      0x20\n      add\n      mload(0x40)\n      dup1\n      swap2\n      sub\n      swap1\n      keccak256\n        /* \"contracts/CarbonTrader.sol\":4644:4685  Trade storage curTrade = s_trade[treadId] */\n      swap1\n      pop\n        /* \"contracts/CarbonTrader.sol\":4696:4717  uint256 depositAmount */\n      0x00\n        /* \"contracts/CarbonTrader.sol\":4720:4728  curTrade */\n      dup2\n        /* \"contracts/CarbonTrader.sol\":4720:4738  curTrade.deeposits */\n      0x06\n      add\n        /* \"contracts/CarbonTrader.sol\":4720:4750  curTrade.deeposits[msg.sender] */\n      0x00\n        /* \"contracts/CarbonTrader.sol\":4739:4749  msg.sender */\n      caller\n        /* \"contracts/CarbonTrader.sol\":4720:4750  curTrade.deeposits[msg.sender] */\n      0xffffffffffffffffffffffffffffffffffffffff\n      and\n      0xffffffffffffffffffffffffffffffffffffffff\n      and\n      dup2\n      mstore\n      0x20\n      add\n      swap1\n      dup2\n      mstore\n      0x20\n      add\n      0x00\n      keccak256\n      sload\n        /* \"contracts/CarbonTrader.sol\":4696:4750  uint256 depositAmount = curTrade.deeposits[msg.sender] */\n      swap1\n      pop\n        /* \"contracts/CarbonTrader.sol\":4794:4795  0 */\n      0x00\n        /* \"contracts/CarbonTrader.sol\":4761:4769  curTrade */\n      dup3\n        /* \"contracts/CarbonTrader.sol\":4761:4779  curTrade.deeposits */\n      0x06\n      add\n        /* \"contracts/CarbonTrader.sol\":4761:4791  curTrade.deeposits[msg.sender] */\n      0x00\n        /* \"contracts/CarbonTrader.sol\":4780:4790  msg.sender */\n      caller\n        /* \"contracts/CarbonTrader.sol\":4761:4791  curTrade.deeposits[msg.sender] */\n      0xffffffffffffffffffffffffffffffffffffffff\n      and\n      0xffffffffffffffffffffffffffffffffffffffff\n      and\n      dup2\n      mstore\n      0x20\n      add\n      swap1\n      dup2\n      mstore\n      0x20\n      add\n      0x00\n      keccak256\n        /* \"contracts/CarbonTrader.sol\":4761:4795  curTrade.deeposits[msg.sender] = 0 */\n      dup2\n      swap1\n      sstore\n      pop\n        /* \"contracts/CarbonTrader.sol\":4806:4818  bool success */\n      0x00\n        /* \"contracts/CarbonTrader.sol\":4821:4833  i_usdt_token */\n      immutable(\"0x356838a9802f9300960370a61c1b93fed91a0635190b94cc9f275180c4d2038b\")\n        /* \"contracts/CarbonTrader.sol\":4821:4842  i_usdt_token.transfer */\n      0xffffffffffffffffffffffffffffffffffffffff\n      and\n      0xa9059cbb\n        /* \"contracts/CarbonTrader.sol\":4843:4853  msg.sender */\n      caller\n        /* \"contracts/CarbonTrader.sol\":4855:4868  depositAmount */\n      dup5\n        /* \"contracts/CarbonTrader.sol\":4821:4869  i_usdt_token.transfer(msg.sender, depositAmount) */\n      mload(0x40)\n      dup4\n      0xffffffff\n      and\n      0xe0\n      shl\n      dup2\n      mstore\n      0x04\n      add\n      tag_120\n      swap3\n      swap2\n      swap1\n      tag_121\n      jump\t// in\n    tag_120:\n      0x20\n      mload(0x40)\n      dup1\n      dup4\n      sub\n      dup2\n      0x00\n      dup8\n      gas\n      call\n      iszero\n      dup1\n      iszero\n      tag_123\n      jumpi\n      returndatasize\n      0x00\n      dup1\n      returndatacopy\n      revert(0x00, returndatasize)\n    tag_123:\n      pop\n      pop\n      pop\n      pop\n      mload(0x40)\n      returndatasize\n      not(0x1f)\n      0x1f\n      dup3\n      add\n      and\n      dup3\n      add\n      dup1\n      0x40\n      mstore\n      pop\n      dup2\n      add\n      swap1\n      tag_124\n      swap2\n      swap1\n      tag_114\n      jump\t// in\n    tag_124:\n        /* \"contracts/CarbonTrader.sol\":4806:4869  bool success = i_usdt_token.transfer(msg.sender, depositAmount) */\n      swap1\n      pop\n        /* \"contracts/CarbonTrader.sol\":4885:4892  success */\n      dup1\n        /* \"contracts/CarbonTrader.sol\":4880:5018  if (!success) {... */\n      tag_125\n      jumpi\n        /* \"contracts/CarbonTrader.sol\":4942:4955  depositAmount */\n      dup2\n        /* \"contracts/CarbonTrader.sol\":4909:4917  curTrade */\n      dup4\n        /* \"contracts/CarbonTrader.sol\":4909:4927  curTrade.deeposits */\n      0x06\n      add\n        /* \"contracts/CarbonTrader.sol\":4909:4939  curTrade.deeposits[msg.sender] */\n      0x00\n        /* \"contracts/CarbonTrader.sol\":4928:4938  msg.sender */\n      caller\n        /* \"contracts/CarbonTrader.sol\":4909:4939  curTrade.deeposits[msg.sender] */\n      0xffffffffffffffffffffffffffffffffffffffff\n      and\n      0xffffffffffffffffffffffffffffffffffffffff\n      and\n      dup2\n      mstore\n      0x20\n      add\n      swap1\n      dup2\n      mstore\n      0x20\n      add\n      0x00\n      keccak256\n        /* \"contracts/CarbonTrader.sol\":4909:4955  curTrade.deeposits[msg.sender] = depositAmount */\n      dup2\n      swap1\n      sstore\n      pop\n        /* \"contracts/CarbonTrader.sol\":4977:5006  CarbonTrader_transferFailed() */\n      mload(0x40)\n      0x81b714be00000000000000000000000000000000000000000000000000000000\n      dup2\n      mstore\n      0x04\n      add\n      mload(0x40)\n      dup1\n      swap2\n      sub\n      swap1\n      revert\n        /* \"contracts/CarbonTrader.sol\":4880:5018  if (!success) {... */\n    tag_125:\n        /* \"contracts/CarbonTrader.sol\":4633:5027  {... */\n      pop\n      pop\n      pop\n        /* \"contracts/CarbonTrader.sol\":4580:5027  function refundDeposit(string memory treadId) public {... */\n      pop\n      jump\t// out\n        /* \"contracts/CarbonTrader.sol\":2793:3718  function stertTrade (... */\n    tag_57:\n        /* \"contracts/CarbonTrader.sol\":3066:3067  0 */\n      0x00\n        /* \"contracts/CarbonTrader.sol\":3056:3062  amount */\n      dup6\n        /* \"contracts/CarbonTrader.sol\":3056:3067  amount <= 0 */\n      gt\n      iszero\n        /* \"contracts/CarbonTrader.sol\":3056:3116  amount <= 0 ||... */\n      dup1\n      tag_127\n      jumpi\n      pop\n        /* \"contracts/CarbonTrader.sol\":3102:3116  stratTimeStamp */\n      dup4\n        /* \"contracts/CarbonTrader.sol\":3084:3098  stratTimeStamp */\n      dup5\n        /* \"contracts/CarbonTrader.sol\":3084:3116  stratTimeStamp >= stratTimeStamp */\n      lt\n      iszero\n        /* \"contracts/CarbonTrader.sol\":3056:3116  amount <= 0 ||... */\n    tag_127:\n        /* \"contracts/CarbonTrader.sol\":3056:3153  amount <= 0 ||... */\n      dup1\n      tag_128\n      jumpi\n      pop\n        /* \"contracts/CarbonTrader.sol\":3152:3153  0 */\n      0x00\n        /* \"contracts/CarbonTrader.sol\":3133:3148  initPriceOfUnit */\n      dup2\n        /* \"contracts/CarbonTrader.sol\":3133:3153  initPriceOfUnit <= 0 */\n      gt\n      iszero\n        /* \"contracts/CarbonTrader.sol\":3056:3153  amount <= 0 ||... */\n    tag_128:\n        /* \"contracts/CarbonTrader.sol\":3056:3195  amount <= 0 ||... */\n      dup1\n      tag_129\n      jumpi\n      pop\n        /* \"contracts/CarbonTrader.sol\":3189:3195  amount */\n      dup5\n        /* \"contracts/CarbonTrader.sol\":3170:3186  minimumBidAmount */\n      dup3\n        /* \"contracts/CarbonTrader.sol\":3170:3195  minimumBidAmount > amount */\n      gt\n        /* \"contracts/CarbonTrader.sol\":3056:3195  amount <= 0 ||... */\n    tag_129:\n        /* \"contracts/CarbonTrader.sol\":3038:3239  if (... */\n      iszero\n      tag_130\n      jumpi\n        /* \"contracts/CarbonTrader.sol\":3214:3239  CarbonTrader_ParamError() */\n      mload(0x40)\n      0x0ecf0f1100000000000000000000000000000000000000000000000000000000\n      dup2\n      mstore\n      0x04\n      add\n      mload(0x40)\n      dup1\n      swap2\n      sub\n      swap1\n      revert\n        /* \"contracts/CarbonTrader.sol\":3038:3239  if (... */\n    tag_130:\n        /* \"contracts/CarbonTrader.sol\":3252:3274  Trade storage newTrade */\n      0x00\n        /* \"contracts/CarbonTrader.sol\":3277:3284  s_trade */\n      0x02\n        /* \"contracts/CarbonTrader.sol\":3285:3292  tradeId */\n      dup8\n        /* \"contracts/CarbonTrader.sol\":3277:3293  s_trade[tradeId] */\n      mload(0x40)\n      tag_131\n      swap2\n      swap1\n      tag_92\n      jump\t// in\n    tag_131:\n      swap1\n      dup2\n      mstore\n      0x20\n      add\n      mload(0x40)\n      dup1\n      swap2\n      sub\n      swap1\n      keccak256\n        /* \"contracts/CarbonTrader.sol\":3252:3293  Trade storage newTrade = s_trade[tradeId] */\n      swap1\n      pop\n        /* \"contracts/CarbonTrader.sol\":3322:3332  msg.sender */\n      caller\n        /* \"contracts/CarbonTrader.sol\":3304:3312  newTrade */\n      dup2\n        /* \"contracts/CarbonTrader.sol\":3304:3319  newTrade.seller */\n      0x00\n      add\n      0x00\n        /* \"contracts/CarbonTrader.sol\":3304:3332  newTrade.seller = msg.sender */\n      0x0100\n      exp\n      dup2\n      sload\n      dup2\n      0xffffffffffffffffffffffffffffffffffffffff\n      mul\n      not\n      and\n      swap1\n      dup4\n      0xffffffffffffffffffffffffffffffffffffffff\n      and\n      mul\n      or\n      swap1\n      sstore\n      pop\n        /* \"contracts/CarbonTrader.sol\":3365:3371  amount */\n      dup6\n        /* \"contracts/CarbonTrader.sol\":3343:3351  newTrade */\n      dup2\n        /* \"contracts/CarbonTrader.sol\":3343:3362  newTrade.sellAmount */\n      0x01\n      add\n        /* \"contracts/CarbonTrader.sol\":3343:3371  newTrade.sellAmount = amount */\n      dup2\n      swap1\n      sstore\n      pop\n        /* \"contracts/CarbonTrader.sol\":3408:3422  stratTimeStamp */\n      dup5\n        /* \"contracts/CarbonTrader.sol\":3382:3390  newTrade */\n      dup2\n        /* \"contracts/CarbonTrader.sol\":3382:3405  newTrade.startTimeStamp */\n      0x02\n      add\n        /* \"contracts/CarbonTrader.sol\":3382:3422  newTrade.startTimeStamp = stratTimeStamp */\n      dup2\n      swap1\n      sstore\n      pop\n        /* \"contracts/CarbonTrader.sol\":3457:3469  endTimeStamp */\n      dup4\n        /* \"contracts/CarbonTrader.sol\":3433:3441  newTrade */\n      dup2\n        /* \"contracts/CarbonTrader.sol\":3433:3454  newTrade.endTimeStamp */\n      0x03\n      add\n        /* \"contracts/CarbonTrader.sol\":3433:3469  newTrade.endTimeStamp = endTimeStamp */\n      dup2\n      swap1\n      sstore\n      pop\n        /* \"contracts/CarbonTrader.sol\":3507:3522  initPriceOfUnit */\n      dup2\n        /* \"contracts/CarbonTrader.sol\":3480:3488  newTrade */\n      dup2\n        /* \"contracts/CarbonTrader.sol\":3480:3504  newTrade.initPriceOfUint */\n      0x05\n      add\n        /* \"contracts/CarbonTrader.sol\":3480:3522  newTrade.initPriceOfUint = initPriceOfUnit */\n      dup2\n      swap1\n      sstore\n      pop\n        /* \"contracts/CarbonTrader.sol\":3561:3577  minimumBidAmount */\n      dup3\n        /* \"contracts/CarbonTrader.sol\":3533:3541  newTrade */\n      dup2\n        /* \"contracts/CarbonTrader.sol\":3533:3558  newTrade.minimumBidAmount */\n      0x04\n      add\n        /* \"contracts/CarbonTrader.sol\":3533:3577  newTrade.minimumBidAmount = minimumBidAmount */\n      dup2\n      swap1\n      sstore\n      pop\n        /* \"contracts/CarbonTrader.sol\":3652:3658  amount */\n      dup6\n        /* \"contracts/CarbonTrader.sol\":3615:3636  s_addressToAllowances */\n      0x00\n        /* \"contracts/CarbonTrader.sol\":3615:3648  s_addressToAllowances[msg.sender] */\n      dup1\n        /* \"contracts/CarbonTrader.sol\":3637:3647  msg.sender */\n      caller\n        /* \"contracts/CarbonTrader.sol\":3615:3648  s_addressToAllowances[msg.sender] */\n      0xffffffffffffffffffffffffffffffffffffffff\n      and\n      0xffffffffffffffffffffffffffffffffffffffff\n      and\n      dup2\n      mstore\n      0x20\n      add\n      swap1\n      dup2\n      mstore\n      0x20\n      add\n      0x00\n      keccak256\n      0x00\n        /* \"contracts/CarbonTrader.sol\":3615:3658  s_addressToAllowances[msg.sender] -= amount */\n      dup3\n      dup3\n      sload\n      tag_132\n      swap2\n      swap1\n      tag_86\n      jump\t// in\n    tag_132:\n      swap3\n      pop\n      pop\n      dup2\n      swap1\n      sstore\n      pop\n        /* \"contracts/CarbonTrader.sol\":3702:3708  amount */\n      dup6\n        /* \"contracts/CarbonTrader.sol\":3669:3686  s_freezeAllowance */\n      0x01\n        /* \"contracts/CarbonTrader.sol\":3669:3698  s_freezeAllowance[msg.sender] */\n      0x00\n        /* \"contracts/CarbonTrader.sol\":3687:3697  msg.sender */\n      caller\n        /* \"contracts/CarbonTrader.sol\":3669:3698  s_freezeAllowance[msg.sender] */\n      0xffffffffffffffffffffffffffffffffffffffff\n      and\n      0xffffffffffffffffffffffffffffffffffffffff\n      and\n      dup2\n      mstore\n      0x20\n      add\n      swap1\n      dup2\n      mstore\n      0x20\n      add\n      0x00\n      keccak256\n      0x00\n        /* \"contracts/CarbonTrader.sol\":3669:3708  s_freezeAllowance[msg.sender] += amount */\n      dup3\n      dup3\n      sload\n      tag_133\n      swap2\n      swap1\n      tag_84\n      jump\t// in\n    tag_133:\n      swap3\n      pop\n      pop\n      dup2\n      swap1\n      sstore\n      pop\n        /* \"contracts/CarbonTrader.sol\":3027:3718  {... */\n      pop\n        /* \"contracts/CarbonTrader.sol\":2793:3718  function stertTrade (... */\n      pop\n      pop\n      pop\n      pop\n      pop\n      pop\n      jump\t// out\n        /* \"contracts/CarbonTrader.sol\":1562:1687  function issueAllowance(address user,uint256 amount) public onlyOwner {... */\n    tag_60:\n        /* \"contracts/CarbonTrader.sol\":1438:1445  i_owner */\n      immutable(\"0x94bf69fb65508f6e4ddb8e9d68af175b29ca55b7385169421c8fce2c4390b244\")\n        /* \"contracts/CarbonTrader.sol\":1424:1445  msg.sender != i_owner */\n      0xffffffffffffffffffffffffffffffffffffffff\n      and\n        /* \"contracts/CarbonTrader.sol\":1424:1434  msg.sender */\n      caller\n        /* \"contracts/CarbonTrader.sol\":1424:1445  msg.sender != i_owner */\n      0xffffffffffffffffffffffffffffffffffffffff\n      and\n      eq\n        /* \"contracts/CarbonTrader.sol\":1420:1504  if (msg.sender != i_owner) {... */\n      tag_135\n      jumpi\n        /* \"contracts/CarbonTrader.sol\":1469:1492  CarbonTrader_NotOwner() */\n      mload(0x40)\n      0xc31b2cfe00000000000000000000000000000000000000000000000000000000\n      dup2\n      mstore\n      0x04\n      add\n      mload(0x40)\n      dup1\n      swap2\n      sub\n      swap1\n      revert\n        /* \"contracts/CarbonTrader.sol\":1420:1504  if (msg.sender != i_owner) {... */\n    tag_135:\n        /* \"contracts/CarbonTrader.sol\":1673:1679  amount */\n      dup1\n        /* \"contracts/CarbonTrader.sol\":1643:1664  s_addressToAllowances */\n      0x00\n        /* \"contracts/CarbonTrader.sol\":1643:1670  s_addressToAllowances[user] */\n      dup1\n        /* \"contracts/CarbonTrader.sol\":1665:1669  user */\n      dup5\n        /* \"contracts/CarbonTrader.sol\":1643:1670  s_addressToAllowances[user] */\n      0xffffffffffffffffffffffffffffffffffffffff\n      and\n      0xffffffffffffffffffffffffffffffffffffffff\n      and\n      dup2\n      mstore\n      0x20\n      add\n      swap1\n      dup2\n      mstore\n      0x20\n      add\n      0x00\n      keccak256\n      0x00\n        /* \"contracts/CarbonTrader.sol\":1643:1679  s_addressToAllowances[user]+= amount */\n      dup3\n      dup3\n      sload\n      tag_137\n      swap2\n      swap1\n      tag_84\n      jump\t// in\n    tag_137:\n      swap3\n      pop\n      pop\n      dup2\n      swap1\n      sstore\n      pop\n        /* \"contracts/CarbonTrader.sol\":1562:1687  function issueAllowance(address user,uint256 amount) public onlyOwner {... */\n      pop\n      pop\n      jump\t// out\n        /* \"contracts/CarbonTrader.sol\":6467:6816  function withdrawAcutionAmount()public {... */\n    tag_62:\n        /* \"contracts/CarbonTrader.sol\":6517:6531  uint256 amount */\n      0x00\n        /* \"contracts/CarbonTrader.sol\":6534:6549  s_auctionAmount */\n      0x03\n        /* \"contracts/CarbonTrader.sol\":6534:6561  s_auctionAmount[msg.sender] */\n      0x00\n        /* \"contracts/CarbonTrader.sol\":6550:6560  msg.sender */\n      caller\n        /* \"contracts/CarbonTrader.sol\":6534:6561  s_auctionAmount[msg.sender] */\n      0xffffffffffffffffffffffffffffffffffffffff\n      and\n      0xffffffffffffffffffffffffffffffffffffffff\n      and\n      dup2\n      mstore\n      0x20\n      add\n      swap1\n      dup2\n      mstore\n      0x20\n      add\n      0x00\n      keccak256\n      sload\n        /* \"contracts/CarbonTrader.sol\":6517:6561  uint256 amount = s_auctionAmount[msg.sender] */\n      swap1\n      pop\n        /* \"contracts/CarbonTrader.sol\":6602:6603  0 */\n      0x00\n        /* \"contracts/CarbonTrader.sol\":6572:6587  s_auctionAmount */\n      0x03\n        /* \"contracts/CarbonTrader.sol\":6572:6599  s_auctionAmount[msg.sender] */\n      0x00\n        /* \"contracts/CarbonTrader.sol\":6588:6598  msg.sender */\n      caller\n        /* \"contracts/CarbonTrader.sol\":6572:6599  s_auctionAmount[msg.sender] */\n      0xffffffffffffffffffffffffffffffffffffffff\n      and\n      0xffffffffffffffffffffffffffffffffffffffff\n      and\n      dup2\n      mstore\n      0x20\n      add\n      swap1\n      dup2\n      mstore\n      0x20\n      add\n      0x00\n      keccak256\n        /* \"contracts/CarbonTrader.sol\":6572:6603  s_auctionAmount[msg.sender] = 0 */\n      dup2\n      swap1\n      sstore\n      pop\n        /* \"contracts/CarbonTrader.sol\":6615:6627  bool success */\n      0x00\n        /* \"contracts/CarbonTrader.sol\":6630:6642  i_usdt_token */\n      immutable(\"0x356838a9802f9300960370a61c1b93fed91a0635190b94cc9f275180c4d2038b\")\n        /* \"contracts/CarbonTrader.sol\":6630:6651  i_usdt_token.transfer */\n      0xffffffffffffffffffffffffffffffffffffffff\n      and\n      0xa9059cbb\n        /* \"contracts/CarbonTrader.sol\":6652:6662  msg.sender */\n      caller\n        /* \"contracts/CarbonTrader.sol\":6664:6670  amount */\n      dup5\n        /* \"contracts/CarbonTrader.sol\":6630:6671  i_usdt_token.transfer(msg.sender, amount) */\n      mload(0x40)\n      dup4\n      0xffffffff\n      and\n      0xe0\n      shl\n      dup2\n      mstore\n      0x04\n      add\n      tag_139\n      swap3\n      swap2\n      swap1\n      tag_121\n      jump\t// in\n    tag_139:\n      0x20\n      mload(0x40)\n      dup1\n      dup4\n      sub\n      dup2\n      0x00\n      dup8\n      gas\n      call\n      iszero\n      dup1\n      iszero\n      tag_141\n      jumpi\n      returndatasize\n      0x00\n      dup1\n      returndatacopy\n      revert(0x00, returndatasize)\n    tag_141:\n      pop\n      pop\n      pop\n      pop\n      mload(0x40)\n      returndatasize\n      not(0x1f)\n      0x1f\n      dup3\n      add\n      and\n      dup3\n      add\n      dup1\n      0x40\n      mstore\n      pop\n      dup2\n      add\n      swap1\n      tag_142\n      swap2\n      swap1\n      tag_114\n      jump\t// in\n    tag_142:\n        /* \"contracts/CarbonTrader.sol\":6615:6671  bool success = i_usdt_token.transfer(msg.sender, amount) */\n      swap1\n      pop\n        /* \"contracts/CarbonTrader.sol\":6687:6694  success */\n      dup1\n        /* \"contracts/CarbonTrader.sol\":6682:6809  if (!success) {... */\n      tag_143\n      jumpi\n        /* \"contracts/CarbonTrader.sol\":6740:6746  amount */\n      dup2\n        /* \"contracts/CarbonTrader.sol\":6710:6725  s_auctionAmount */\n      0x03\n        /* \"contracts/CarbonTrader.sol\":6710:6737  s_auctionAmount[msg.sender] */\n      0x00\n        /* \"contracts/CarbonTrader.sol\":6726:6736  msg.sender */\n      caller\n        /* \"contracts/CarbonTrader.sol\":6710:6737  s_auctionAmount[msg.sender] */\n      0xffffffffffffffffffffffffffffffffffffffff\n      and\n      0xffffffffffffffffffffffffffffffffffffffff\n      and\n      dup2\n      mstore\n      0x20\n      add\n      swap1\n      dup2\n      mstore\n      0x20\n      add\n      0x00\n      keccak256\n        /* \"contracts/CarbonTrader.sol\":6710:6746  s_auctionAmount[msg.sender] = amount */\n      dup2\n      swap1\n      sstore\n      pop\n        /* \"contracts/CarbonTrader.sol\":6768:6797  CarbonTrader_transferFailed() */\n      mload(0x40)\n      0x81b714be00000000000000000000000000000000000000000000000000000000\n      dup2\n      mstore\n      0x04\n      add\n      mload(0x40)\n      dup1\n      swap2\n      sub\n      swap1\n      revert\n        /* \"contracts/CarbonTrader.sol\":6682:6809  if (!success) {... */\n    tag_143:\n        /* \"contracts/CarbonTrader.sol\":6506:6816  {... */\n      pop\n      pop\n        /* \"contracts/CarbonTrader.sol\":6467:6816  function withdrawAcutionAmount()public {... */\n      jump\t// out\n        /* \"contracts/CarbonTrader.sol\":3745:4162  function getTread (string memory treadId) public view returns (address,uint256,uint256,uint256,uint256,uint256){... */\n    tag_65:\n        /* \"contracts/CarbonTrader.sol\":3808:3815  address */\n      0x00\n        /* \"contracts/CarbonTrader.sol\":3816:3823  uint256 */\n      dup1\n        /* \"contracts/CarbonTrader.sol\":3824:3831  uint256 */\n      0x00\n        /* \"contracts/CarbonTrader.sol\":3832:3839  uint256 */\n      dup1\n        /* \"contracts/CarbonTrader.sol\":3840:3847  uint256 */\n      0x00\n        /* \"contracts/CarbonTrader.sol\":3848:3855  uint256 */\n      dup1\n        /* \"contracts/CarbonTrader.sol\":3867:3889  Trade storage curTrade */\n      0x00\n        /* \"contracts/CarbonTrader.sol\":3892:3899  s_trade */\n      0x02\n        /* \"contracts/CarbonTrader.sol\":3900:3907  treadId */\n      dup9\n        /* \"contracts/CarbonTrader.sol\":3892:3908  s_trade[treadId] */\n      mload(0x40)\n      tag_145\n      swap2\n      swap1\n      tag_92\n      jump\t// in\n    tag_145:\n      swap1\n      dup2\n      mstore\n      0x20\n      add\n      mload(0x40)\n      dup1\n      swap2\n      sub\n      swap1\n      keccak256\n        /* \"contracts/CarbonTrader.sol\":3867:3908  Trade storage curTrade = s_trade[treadId] */\n      swap1\n      pop\n        /* \"contracts/CarbonTrader.sol\":3941:3949  curTrade */\n      dup1\n        /* \"contracts/CarbonTrader.sol\":3941:3956  curTrade.seller */\n      0x00\n      add\n      0x00\n      swap1\n      sload\n      swap1\n      0x0100\n      exp\n      swap1\n      div\n      0xffffffffffffffffffffffffffffffffffffffff\n      and\n        /* \"contracts/CarbonTrader.sol\":3971:3979  curTrade */\n      dup2\n        /* \"contracts/CarbonTrader.sol\":3971:3990  curTrade.sellAmount */\n      0x01\n      add\n      sload\n        /* \"contracts/CarbonTrader.sol\":4005:4013  curTrade */\n      dup3\n        /* \"contracts/CarbonTrader.sol\":4005:4028  curTrade.startTimeStamp */\n      0x02\n      add\n      sload\n        /* \"contracts/CarbonTrader.sol\":4043:4051  curTrade */\n      dup4\n        /* \"contracts/CarbonTrader.sol\":4043:4064  curTrade.endTimeStamp */\n      0x03\n      add\n      sload\n        /* \"contracts/CarbonTrader.sol\":4079:4087  curTrade */\n      dup5\n        /* \"contracts/CarbonTrader.sol\":4079:4103  curTrade.initPriceOfUint */\n      0x05\n      add\n      sload\n        /* \"contracts/CarbonTrader.sol\":4118:4126  curTrade */\n      dup6\n        /* \"contracts/CarbonTrader.sol\":4118:4143  curTrade.minimumBidAmount */\n      0x04\n      add\n      sload\n        /* \"contracts/CarbonTrader.sol\":3919:4154  return (... */\n      swap7\n      pop\n      swap7\n      pop\n      swap7\n      pop\n      swap7\n      pop\n      swap7\n      pop\n      swap7\n      pop\n      pop\n        /* \"contracts/CarbonTrader.sol\":3745:4162  function getTread (string memory treadId) public view returns (address,uint256,uint256,uint256,uint256,uint256){... */\n      swap2\n      swap4\n      swap6\n      pop\n      swap2\n      swap4\n      swap6\n      jump\t// out\n        /* \"contracts/CarbonTrader.sol\":1872:2045  function freezeAllowance (address user,uint256 amount) public  onlyOwner {... */\n    tag_70:\n        /* \"contracts/CarbonTrader.sol\":1438:1445  i_owner */\n      immutable(\"0x94bf69fb65508f6e4ddb8e9d68af175b29ca55b7385169421c8fce2c4390b244\")\n        /* \"contracts/CarbonTrader.sol\":1424:1445  msg.sender != i_owner */\n      0xffffffffffffffffffffffffffffffffffffffff\n      and\n        /* \"contracts/CarbonTrader.sol\":1424:1434  msg.sender */\n      caller\n        /* \"contracts/CarbonTrader.sol\":1424:1445  msg.sender != i_owner */\n      0xffffffffffffffffffffffffffffffffffffffff\n      and\n      eq\n        /* \"contracts/CarbonTrader.sol\":1420:1504  if (msg.sender != i_owner) {... */\n      tag_147\n      jumpi\n        /* \"contracts/CarbonTrader.sol\":1469:1492  CarbonTrader_NotOwner() */\n      mload(0x40)\n      0xc31b2cfe00000000000000000000000000000000000000000000000000000000\n      dup2\n      mstore\n      0x04\n      add\n      mload(0x40)\n      dup1\n      swap2\n      sub\n      swap1\n      revert\n        /* \"contracts/CarbonTrader.sol\":1420:1504  if (msg.sender != i_owner) {... */\n    tag_147:\n        /* \"contracts/CarbonTrader.sol\":1987:1993  amount */\n      dup1\n        /* \"contracts/CarbonTrader.sol\":1956:1977  s_addressToAllowances */\n      0x00\n        /* \"contracts/CarbonTrader.sol\":1956:1983  s_addressToAllowances[user] */\n      dup1\n        /* \"contracts/CarbonTrader.sol\":1978:1982  user */\n      dup5\n        /* \"contracts/CarbonTrader.sol\":1956:1983  s_addressToAllowances[user] */\n      0xffffffffffffffffffffffffffffffffffffffff\n      and\n      0xffffffffffffffffffffffffffffffffffffffff\n      and\n      dup2\n      mstore\n      0x20\n      add\n      swap1\n      dup2\n      mstore\n      0x20\n      add\n      0x00\n      keccak256\n      0x00\n        /* \"contracts/CarbonTrader.sol\":1956:1993  s_addressToAllowances[user] -= amount */\n      dup3\n      dup3\n      sload\n      tag_149\n      swap2\n      swap1\n      tag_86\n      jump\t// in\n    tag_149:\n      swap3\n      pop\n      pop\n      dup2\n      swap1\n      sstore\n      pop\n        /* \"contracts/CarbonTrader.sol\":2031:2037  amount */\n      dup1\n        /* \"contracts/CarbonTrader.sol\":2004:2021  s_freezeAllowance */\n      0x01\n        /* \"contracts/CarbonTrader.sol\":2004:2027  s_freezeAllowance[user] */\n      0x00\n        /* \"contracts/CarbonTrader.sol\":2022:2026  user */\n      dup5\n        /* \"contracts/CarbonTrader.sol\":2004:2027  s_freezeAllowance[user] */\n      0xffffffffffffffffffffffffffffffffffffffff\n      and\n      0xffffffffffffffffffffffffffffffffffffffff\n      and\n      dup2\n      mstore\n      0x20\n      add\n      swap1\n      dup2\n      mstore\n      0x20\n      add\n      0x00\n      keccak256\n      0x00\n        /* \"contracts/CarbonTrader.sol\":2004:2037  s_freezeAllowance[user] += amount */\n      dup3\n      dup3\n      sload\n      tag_150\n      swap2\n      swap1\n      tag_84\n      jump\t// in\n    tag_150:\n      swap3\n      pop\n      pop\n      dup2\n      swap1\n      sstore\n      pop\n        /* \"contracts/CarbonTrader.sol\":1872:2045  function freezeAllowance (address user,uint256 amount) public  onlyOwner {... */\n      pop\n      pop\n      jump\t// out\n        /* \"contracts/CarbonTrader.sol\":5626:6461  function finalizeAuctionAndTransferCarbon(... */\n    tag_74:\n        /* \"contracts/CarbonTrader.sol\":5783:5805  Trade storage curTrade */\n      0x00\n        /* \"contracts/CarbonTrader.sol\":5808:5815  s_trade */\n      0x02\n        /* \"contracts/CarbonTrader.sol\":5816:5823  treadId */\n      dup5\n        /* \"contracts/CarbonTrader.sol\":5808:5824  s_trade[treadId] */\n      mload(0x40)\n      tag_152\n      swap2\n      swap1\n      tag_92\n      jump\t// in\n    tag_152:\n      swap1\n      dup2\n      mstore\n      0x20\n      add\n      mload(0x40)\n      dup1\n      swap2\n      sub\n      swap1\n      keccak256\n        /* \"contracts/CarbonTrader.sol\":5783:5824  Trade storage curTrade = s_trade[treadId] */\n      swap1\n      pop\n        /* \"contracts/CarbonTrader.sol\":5863:5884  uint256 depositAmount */\n      0x00\n        /* \"contracts/CarbonTrader.sol\":5887:5895  curTrade */\n      dup2\n        /* \"contracts/CarbonTrader.sol\":5887:5905  curTrade.deeposits */\n      0x06\n      add\n        /* \"contracts/CarbonTrader.sol\":5887:5917  curTrade.deeposits[msg.sender] */\n      0x00\n        /* \"contracts/CarbonTrader.sol\":5906:5916  msg.sender */\n      caller\n        /* \"contracts/CarbonTrader.sol\":5887:5917  curTrade.deeposits[msg.sender] */\n      0xffffffffffffffffffffffffffffffffffffffff\n      and\n      0xffffffffffffffffffffffffffffffffffffffff\n      and\n      dup2\n      mstore\n      0x20\n      add\n      swap1\n      dup2\n      mstore\n      0x20\n      add\n      0x00\n      keccak256\n      sload\n        /* \"contracts/CarbonTrader.sol\":5863:5917  uint256 depositAmount = curTrade.deeposits[msg.sender] */\n      swap1\n      pop\n        /* \"contracts/CarbonTrader.sol\":5969:5970  0 */\n      0x00\n        /* \"contracts/CarbonTrader.sol\":5928:5935  s_trade */\n      0x02\n        /* \"contracts/CarbonTrader.sol\":5936:5943  treadId */\n      dup7\n        /* \"contracts/CarbonTrader.sol\":5928:5944  s_trade[treadId] */\n      mload(0x40)\n      tag_153\n      swap2\n      swap1\n      tag_92\n      jump\t// in\n    tag_153:\n      swap1\n      dup2\n      mstore\n      0x20\n      add\n      mload(0x40)\n      dup1\n      swap2\n      sub\n      swap1\n      keccak256\n        /* \"contracts/CarbonTrader.sol\":5928:5954  s_trade[treadId].deeposits */\n      0x06\n      add\n        /* \"contracts/CarbonTrader.sol\":5928:5966  s_trade[treadId].deeposits[msg.sender] */\n      0x00\n        /* \"contracts/CarbonTrader.sol\":5955:5965  msg.sender */\n      caller\n        /* \"contracts/CarbonTrader.sol\":5928:5966  s_trade[treadId].deeposits[msg.sender] */\n      0xffffffffffffffffffffffffffffffffffffffff\n      and\n      0xffffffffffffffffffffffffffffffffffffffff\n      and\n      dup2\n      mstore\n      0x20\n      add\n      swap1\n      dup2\n      mstore\n      0x20\n      add\n      0x00\n      keccak256\n        /* \"contracts/CarbonTrader.sol\":5928:5970  s_trade[treadId].deeposits[msg.sender] = 0 */\n      dup2\n      swap1\n      sstore\n      pop\n        /* \"contracts/CarbonTrader.sol\":6032:6052  addtionalAmountToPay */\n      dup3\n        /* \"contracts/CarbonTrader.sol\":6017:6030  depositAmount */\n      dup2\n        /* \"contracts/CarbonTrader.sol\":6017:6052  depositAmount +addtionalAmountToPay */\n      tag_154\n      swap2\n      swap1\n      tag_84\n      jump\t// in\n    tag_154:\n        /* \"contracts/CarbonTrader.sol\":5981:5996  s_auctionAmount */\n      0x03\n        /* \"contracts/CarbonTrader.sol\":5981:6013  s_auctionAmount[curTrade.seller] */\n      0x00\n        /* \"contracts/CarbonTrader.sol\":5997:6005  curTrade */\n      dup5\n        /* \"contracts/CarbonTrader.sol\":5997:6012  curTrade.seller */\n      0x00\n      add\n      0x00\n      swap1\n      sload\n      swap1\n      0x0100\n      exp\n      swap1\n      div\n      0xffffffffffffffffffffffffffffffffffffffff\n      and\n        /* \"contracts/CarbonTrader.sol\":5981:6013  s_auctionAmount[curTrade.seller] */\n      0xffffffffffffffffffffffffffffffffffffffff\n      and\n      0xffffffffffffffffffffffffffffffffffffffff\n      and\n      dup2\n      mstore\n      0x20\n      add\n      swap1\n      dup2\n      mstore\n      0x20\n      add\n      0x00\n      keccak256\n      0x00\n        /* \"contracts/CarbonTrader.sol\":5981:6052  s_auctionAmount[curTrade.seller] += depositAmount +addtionalAmountToPay */\n      dup3\n      dup3\n      sload\n      tag_155\n      swap2\n      swap1\n      tag_84\n      jump\t// in\n    tag_155:\n      swap3\n      pop\n      pop\n      dup2\n      swap1\n      sstore\n      pop\n        /* \"contracts/CarbonTrader.sol\":6139:6154  allowanceAmount */\n      dup4\n        /* \"contracts/CarbonTrader.sol\":6097:6118  s_addressToAllowances */\n      0x00\n        /* \"contracts/CarbonTrader.sol\":6097:6135  s_addressToAllowances[curTrade.seller] */\n      dup1\n        /* \"contracts/CarbonTrader.sol\":6119:6127  curTrade */\n      dup5\n        /* \"contracts/CarbonTrader.sol\":6119:6134  curTrade.seller */\n      0x00\n      add\n      0x00\n      swap1\n      sload\n      swap1\n      0x0100\n      exp\n      swap1\n      div\n      0xffffffffffffffffffffffffffffffffffffffff\n      and\n        /* \"contracts/CarbonTrader.sol\":6097:6135  s_addressToAllowances[curTrade.seller] */\n      0xffffffffffffffffffffffffffffffffffffffff\n      and\n      0xffffffffffffffffffffffffffffffffffffffff\n      and\n      dup2\n      mstore\n      0x20\n      add\n      swap1\n      dup2\n      mstore\n      0x20\n      add\n      0x00\n      keccak256\n      0x00\n        /* \"contracts/CarbonTrader.sol\":6097:6154  s_addressToAllowances[curTrade.seller] -= allowanceAmount */\n      dup3\n      dup3\n      sload\n      tag_156\n      swap2\n      swap1\n      tag_86\n      jump\t// in\n    tag_156:\n      swap3\n      pop\n      pop\n      dup2\n      swap1\n      sstore\n      pop\n        /* \"contracts/CarbonTrader.sol\":6236:6251  allowanceAmount */\n      dup4\n        /* \"contracts/CarbonTrader.sol\":6199:6220  s_addressToAllowances */\n      0x00\n        /* \"contracts/CarbonTrader.sol\":6199:6232  s_addressToAllowances[msg.sender] */\n      dup1\n        /* \"contracts/CarbonTrader.sol\":6221:6231  msg.sender */\n      caller\n        /* \"contracts/CarbonTrader.sol\":6199:6232  s_addressToAllowances[msg.sender] */\n      0xffffffffffffffffffffffffffffffffffffffff\n      and\n      0xffffffffffffffffffffffffffffffffffffffff\n      and\n      dup2\n      mstore\n      0x20\n      add\n      swap1\n      dup2\n      mstore\n      0x20\n      add\n      0x00\n      keccak256\n      0x00\n        /* \"contracts/CarbonTrader.sol\":6199:6251  s_addressToAllowances[msg.sender] += allowanceAmount */\n      dup3\n      dup3\n      sload\n      tag_157\n      swap2\n      swap1\n      tag_84\n      jump\t// in\n    tag_157:\n      swap3\n      pop\n      pop\n      dup2\n      swap1\n      sstore\n      pop\n        /* \"contracts/CarbonTrader.sol\":6299:6311  bool success */\n      0x00\n        /* \"contracts/CarbonTrader.sol\":6314:6326  i_usdt_token */\n      immutable(\"0x356838a9802f9300960370a61c1b93fed91a0635190b94cc9f275180c4d2038b\")\n        /* \"contracts/CarbonTrader.sol\":6314:6339  i_usdt_token.transferFrom */\n      0xffffffffffffffffffffffffffffffffffffffff\n      and\n      0x23b872dd\n        /* \"contracts/CarbonTrader.sol\":6340:6350  msg.sender */\n      caller\n        /* \"contracts/CarbonTrader.sol\":6360:6364  this */\n      address\n        /* \"contracts/CarbonTrader.sol\":6367:6387  addtionalAmountToPay */\n      dup8\n        /* \"contracts/CarbonTrader.sol\":6314:6388  i_usdt_token.transferFrom(msg.sender, address(this), addtionalAmountToPay) */\n      mload(0x40)\n      dup5\n      0xffffffff\n      and\n      0xe0\n      shl\n      dup2\n      mstore\n      0x04\n      add\n      tag_158\n      swap4\n      swap3\n      swap2\n      swap1\n      tag_110\n      jump\t// in\n    tag_158:\n      0x20\n      mload(0x40)\n      dup1\n      dup4\n      sub\n      dup2\n      0x00\n      dup8\n      gas\n      call\n      iszero\n      dup1\n      iszero\n      tag_160\n      jumpi\n      returndatasize\n      0x00\n      dup1\n      returndatacopy\n      revert(0x00, returndatasize)\n    tag_160:\n      pop\n      pop\n      pop\n      pop\n      mload(0x40)\n      returndatasize\n      not(0x1f)\n      0x1f\n      dup3\n      add\n      and\n      dup3\n      add\n      dup1\n      0x40\n      mstore\n      pop\n      dup2\n      add\n      swap1\n      tag_161\n      swap2\n      swap1\n      tag_114\n      jump\t// in\n    tag_161:\n        /* \"contracts/CarbonTrader.sol\":6299:6388  bool success = i_usdt_token.transferFrom(msg.sender, address(this), addtionalAmountToPay) */\n      swap1\n      pop\n        /* \"contracts/CarbonTrader.sol\":6404:6411  success */\n      dup1\n        /* \"contracts/CarbonTrader.sol\":6399:6449  if (!success) revert CarbonTrader_transferFailed() */\n      tag_162\n      jumpi\n        /* \"contracts/CarbonTrader.sol\":6420:6449  CarbonTrader_transferFailed() */\n      mload(0x40)\n      0x81b714be00000000000000000000000000000000000000000000000000000000\n      dup2\n      mstore\n      0x04\n      add\n      mload(0x40)\n      dup1\n      swap2\n      sub\n      swap1\n      revert\n        /* \"contracts/CarbonTrader.sol\":6399:6449  if (!success) revert CarbonTrader_transferFailed() */\n    tag_162:\n        /* \"contracts/CarbonTrader.sol\":5772:6461  {... */\n      pop\n      pop\n      pop\n        /* \"contracts/CarbonTrader.sol\":5626:6461  function finalizeAuctionAndTransferCarbon(... */\n      pop\n      pop\n      pop\n      jump\t// out\n        /* \"contracts/CarbonTrader.sol\":1723:1842  function getAllowance(address user)public view  returns (uint256) {... */\n    tag_77:\n        /* \"contracts/CarbonTrader.sol\":1780:1787  uint256 */\n      0x00\n        /* \"contracts/CarbonTrader.sol\":1807:1828  s_addressToAllowances */\n      dup1\n        /* \"contracts/CarbonTrader.sol\":1807:1834  s_addressToAllowances[user] */\n      0x00\n        /* \"contracts/CarbonTrader.sol\":1829:1833  user */\n      dup4\n        /* \"contracts/CarbonTrader.sol\":1807:1834  s_addressToAllowances[user] */\n      0xffffffffffffffffffffffffffffffffffffffff\n      and\n      0xffffffffffffffffffffffffffffffffffffffff\n      and\n      dup2\n      mstore\n      0x20\n      add\n      swap1\n      dup2\n      mstore\n      0x20\n      add\n      0x00\n      keccak256\n      sload\n        /* \"contracts/CarbonTrader.sol\":1799:1834  return  s_addressToAllowances[user] */\n      swap1\n      pop\n        /* \"contracts/CarbonTrader.sol\":1723:1842  function getAllowance(address user)public view  returns (uint256) {... */\n      swap2\n      swap1\n      pop\n      jump\t// out\n        /* \"contracts/CarbonTrader.sol\":5035:5209  function setInfo(string memory treadId,string memory info) private {... */\n    tag_117:\n        /* \"contracts/CarbonTrader.sol\":5113:5135  Trade storage curTrade */\n      0x00\n        /* \"contracts/CarbonTrader.sol\":5138:5145  s_trade */\n      0x02\n        /* \"contracts/CarbonTrader.sol\":5146:5153  treadId */\n      dup4\n        /* \"contracts/CarbonTrader.sol\":5138:5154  s_trade[treadId] */\n      mload(0x40)\n      tag_165\n      swap2\n      swap1\n      tag_92\n      jump\t// in\n    tag_165:\n      swap1\n      dup2\n      mstore\n      0x20\n      add\n      mload(0x40)\n      dup1\n      swap2\n      sub\n      swap1\n      keccak256\n        /* \"contracts/CarbonTrader.sol\":5113:5154  Trade storage curTrade = s_trade[treadId] */\n      swap1\n      pop\n        /* \"contracts/CarbonTrader.sol\":5197:5201  info */\n      dup2\n        /* \"contracts/CarbonTrader.sol\":5165:5173  curTrade */\n      dup2\n        /* \"contracts/CarbonTrader.sol\":5165:5182  curTrade.bidInfos */\n      0x07\n      add\n        /* \"contracts/CarbonTrader.sol\":5165:5194  curTrade.bidInfos[msg.sender] */\n      0x00\n        /* \"contracts/CarbonTrader.sol\":5183:5193  msg.sender */\n      caller\n        /* \"contracts/CarbonTrader.sol\":5165:5194  curTrade.bidInfos[msg.sender] */\n      0xffffffffffffffffffffffffffffffffffffffff\n      and\n      0xffffffffffffffffffffffffffffffffffffffff\n      and\n      dup2\n      mstore\n      0x20\n      add\n      swap1\n      dup2\n      mstore\n      0x20\n      add\n      0x00\n      keccak256\n        /* \"contracts/CarbonTrader.sol\":5165:5201  curTrade.bidInfos[msg.sender] = info */\n      swap1\n      dup2\n      tag_166\n      swap2\n      swap1\n      tag_94\n      jump\t// in\n    tag_166:\n      pop\n        /* \"contracts/CarbonTrader.sol\":5102:5209  {... */\n      pop\n        /* \"contracts/CarbonTrader.sol\":5035:5209  function setInfo(string memory treadId,string memory info) private {... */\n      pop\n      pop\n      jump\t// out\n        /* \"#utility.yul\":7:82   */\n    tag_167:\n        /* \"#utility.yul\":40:46   */\n      0x00\n        /* \"#utility.yul\":73:75   */\n      0x40\n        /* \"#utility.yul\":67:76   */\n      mload\n        /* \"#utility.yul\":57:76   */\n      swap1\n      pop\n        /* \"#utility.yul\":7:82   */\n      swap1\n      jump\t// out\n        /* \"#utility.yul\":88:205   */\n    tag_168:\n        /* \"#utility.yul\":197:198   */\n      0x00\n        /* \"#utility.yul\":194:195   */\n      dup1\n        /* \"#utility.yul\":187:199   */\n      revert\n        /* \"#utility.yul\":211:328   */\n    tag_169:\n        /* \"#utility.yul\":320:321   */\n      0x00\n        /* \"#utility.yul\":317:318   */\n      dup1\n        /* \"#utility.yul\":310:322   */\n      revert\n        /* \"#utility.yul\":334:460   */\n    tag_170:\n        /* \"#utility.yul\":371:378   */\n      0x00\n        /* \"#utility.yul\":411:453   */\n      0xffffffffffffffffffffffffffffffffffffffff\n        /* \"#utility.yul\":404:409   */\n      dup3\n        /* \"#utility.yul\":400:454   */\n      and\n        /* \"#utility.yul\":389:454   */\n      swap1\n      pop\n        /* \"#utility.yul\":334:460   */\n      swap2\n      swap1\n      pop\n      jump\t// out\n        /* \"#utility.yul\":466:562   */\n    tag_171:\n        /* \"#utility.yul\":503:510   */\n      0x00\n        /* \"#utility.yul\":532:556   */\n      tag_221\n        /* \"#utility.yul\":550:555   */\n      dup3\n        /* \"#utility.yul\":532:556   */\n      tag_170\n      jump\t// in\n    tag_221:\n        /* \"#utility.yul\":521:556   */\n      swap1\n      pop\n        /* \"#utility.yul\":466:562   */\n      swap2\n      swap1\n      pop\n      jump\t// out\n        /* \"#utility.yul\":568:690   */\n    tag_172:\n        /* \"#utility.yul\":641:665   */\n      tag_223\n        /* \"#utility.yul\":659:664   */\n      dup2\n        /* \"#utility.yul\":641:665   */\n      tag_171\n      jump\t// in\n    tag_223:\n        /* \"#utility.yul\":634:639   */\n      dup2\n        /* \"#utility.yul\":631:666   */\n      eq\n        /* \"#utility.yul\":621:684   */\n      tag_224\n      jumpi\n        /* \"#utility.yul\":680:681   */\n      0x00\n        /* \"#utility.yul\":677:678   */\n      dup1\n        /* \"#utility.yul\":670:682   */\n      revert\n        /* \"#utility.yul\":621:684   */\n    tag_224:\n        /* \"#utility.yul\":568:690   */\n      pop\n      jump\t// out\n        /* \"#utility.yul\":696:835   */\n    tag_173:\n        /* \"#utility.yul\":742:747   */\n      0x00\n        /* \"#utility.yul\":780:786   */\n      dup2\n        /* \"#utility.yul\":767:787   */\n      calldataload\n        /* \"#utility.yul\":758:787   */\n      swap1\n      pop\n        /* \"#utility.yul\":796:829   */\n      tag_226\n        /* \"#utility.yul\":823:828   */\n      dup2\n        /* \"#utility.yul\":796:829   */\n      tag_172\n      jump\t// in\n    tag_226:\n        /* \"#utility.yul\":696:835   */\n      swap3\n      swap2\n      pop\n      pop\n      jump\t// out\n        /* \"#utility.yul\":841:1170   */\n    tag_23:\n        /* \"#utility.yul\":900:906   */\n      0x00\n        /* \"#utility.yul\":949:951   */\n      0x20\n        /* \"#utility.yul\":937:946   */\n      dup3\n        /* \"#utility.yul\":928:935   */\n      dup5\n        /* \"#utility.yul\":924:947   */\n      sub\n        /* \"#utility.yul\":920:952   */\n      slt\n        /* \"#utility.yul\":917:1036   */\n      iszero\n      tag_228\n      jumpi\n        /* \"#utility.yul\":955:1034   */\n      tag_229\n      tag_168\n      jump\t// in\n    tag_229:\n        /* \"#utility.yul\":917:1036   */\n    tag_228:\n        /* \"#utility.yul\":1075:1076   */\n      0x00\n        /* \"#utility.yul\":1100:1153   */\n      tag_230\n        /* \"#utility.yul\":1145:1152   */\n      dup5\n        /* \"#utility.yul\":1136:1142   */\n      dup3\n        /* \"#utility.yul\":1125:1134   */\n      dup6\n        /* \"#utility.yul\":1121:1143   */\n      add\n        /* \"#utility.yul\":1100:1153   */\n      tag_173\n      jump\t// in\n    tag_230:\n        /* \"#utility.yul\":1090:1153   */\n      swap2\n      pop\n        /* \"#utility.yul\":1046:1163   */\n      pop\n        /* \"#utility.yul\":841:1170   */\n      swap3\n      swap2\n      pop\n      pop\n      jump\t// out\n        /* \"#utility.yul\":1176:1253   */\n    tag_174:\n        /* \"#utility.yul\":1213:1220   */\n      0x00\n        /* \"#utility.yul\":1242:1247   */\n      dup2\n        /* \"#utility.yul\":1231:1247   */\n      swap1\n      pop\n        /* \"#utility.yul\":1176:1253   */\n      swap2\n      swap1\n      pop\n      jump\t// out\n        /* \"#utility.yul\":1259:1377   */\n    tag_175:\n        /* \"#utility.yul\":1346:1370   */\n      tag_233\n        /* \"#utility.yul\":1364:1369   */\n      dup2\n        /* \"#utility.yul\":1346:1370   */\n      tag_174\n      jump\t// in\n    tag_233:\n        /* \"#utility.yul\":1341:1344   */\n      dup3\n        /* \"#utility.yul\":1334:1371   */\n      mstore\n        /* \"#utility.yul\":1259:1377   */\n      pop\n      pop\n      jump\t// out\n        /* \"#utility.yul\":1383:1605   */\n    tag_26:\n        /* \"#utility.yul\":1476:1480   */\n      0x00\n        /* \"#utility.yul\":1514:1516   */\n      0x20\n        /* \"#utility.yul\":1503:1512   */\n      dup3\n        /* \"#utility.yul\":1499:1517   */\n      add\n        /* \"#utility.yul\":1491:1517   */\n      swap1\n      pop\n        /* \"#utility.yul\":1527:1598   */\n      tag_235\n        /* \"#utility.yul\":1595:1596   */\n      0x00\n        /* \"#utility.yul\":1584:1593   */\n      dup4\n        /* \"#utility.yul\":1580:1597   */\n      add\n        /* \"#utility.yul\":1571:1577   */\n      dup5\n        /* \"#utility.yul\":1527:1598   */\n      tag_175\n      jump\t// in\n    tag_235:\n        /* \"#utility.yul\":1383:1605   */\n      swap3\n      swap2\n      pop\n      pop\n      jump\t// out\n        /* \"#utility.yul\":1611:1733   */\n    tag_176:\n        /* \"#utility.yul\":1684:1708   */\n      tag_237\n        /* \"#utility.yul\":1702:1707   */\n      dup2\n        /* \"#utility.yul\":1684:1708   */\n      tag_174\n      jump\t// in\n    tag_237:\n        /* \"#utility.yul\":1677:1682   */\n      dup2\n        /* \"#utility.yul\":1674:1709   */\n      eq\n        /* \"#utility.yul\":1664:1727   */\n      tag_238\n      jumpi\n        /* \"#utility.yul\":1723:1724   */\n      0x00\n        /* \"#utility.yul\":1720:1721   */\n      dup1\n        /* \"#utility.yul\":1713:1725   */\n      revert\n        /* \"#utility.yul\":1664:1727   */\n    tag_238:\n        /* \"#utility.yul\":1611:1733   */\n      pop\n      jump\t// out\n        /* \"#utility.yul\":1739:1878   */\n    tag_177:\n        /* \"#utility.yul\":1785:1790   */\n      0x00\n        /* \"#utility.yul\":1823:1829   */\n      dup2\n        /* \"#utility.yul\":1810:1830   */\n      calldataload\n        /* \"#utility.yul\":1801:1830   */\n      swap1\n      pop\n        /* \"#utility.yul\":1839:1872   */\n      tag_240\n        /* \"#utility.yul\":1866:1871   */\n      dup2\n        /* \"#utility.yul\":1839:1872   */\n      tag_176\n      jump\t// in\n    tag_240:\n        /* \"#utility.yul\":1739:1878   */\n      swap3\n      swap2\n      pop\n      pop\n      jump\t// out\n        /* \"#utility.yul\":1884:2358   */\n    tag_29:\n        /* \"#utility.yul\":1952:1958   */\n      0x00\n        /* \"#utility.yul\":1960:1966   */\n      dup1\n        /* \"#utility.yul\":2009:2011   */\n      0x40\n        /* \"#utility.yul\":1997:2006   */\n      dup4\n        /* \"#utility.yul\":1988:1995   */\n      dup6\n        /* \"#utility.yul\":1984:2007   */\n      sub\n        /* \"#utility.yul\":1980:2012   */\n      slt\n        /* \"#utility.yul\":1977:2096   */\n      iszero\n      tag_242\n      jumpi\n        /* \"#utility.yul\":2015:2094   */\n      tag_243\n      tag_168\n      jump\t// in\n    tag_243:\n        /* \"#utility.yul\":1977:2096   */\n    tag_242:\n        /* \"#utility.yul\":2135:2136   */\n      0x00\n        /* \"#utility.yul\":2160:2213   */\n      tag_244\n        /* \"#utility.yul\":2205:2212   */\n      dup6\n        /* \"#utility.yul\":2196:2202   */\n      dup3\n        /* \"#utility.yul\":2185:2194   */\n      dup7\n        /* \"#utility.yul\":2181:2203   */\n      add\n        /* \"#utility.yul\":2160:2213   */\n      tag_173\n      jump\t// in\n    tag_244:\n        /* \"#utility.yul\":2150:2213   */\n      swap3\n      pop\n        /* \"#utility.yul\":2106:2223   */\n      pop\n        /* \"#utility.yul\":2262:2264   */\n      0x20\n        /* \"#utility.yul\":2288:2341   */\n      tag_245\n        /* \"#utility.yul\":2333:2340   */\n      dup6\n        /* \"#utility.yul\":2324:2330   */\n      dup3\n        /* \"#utility.yul\":2313:2322   */\n      dup7\n        /* \"#utility.yul\":2309:2331   */\n      add\n        /* \"#utility.yul\":2288:2341   */\n      tag_177\n      jump\t// in\n    tag_245:\n        /* \"#utility.yul\":2278:2341   */\n      swap2\n      pop\n        /* \"#utility.yul\":2233:2351   */\n      pop\n        /* \"#utility.yul\":1884:2358   */\n      swap3\n      pop\n      swap3\n      swap1\n      pop\n      jump\t// out\n        /* \"#utility.yul\":2364:2481   */\n    tag_178:\n        /* \"#utility.yul\":2473:2474   */\n      0x00\n        /* \"#utility.yul\":2470:2471   */\n      dup1\n        /* \"#utility.yul\":2463:2475   */\n      revert\n        /* \"#utility.yul\":2487:2604   */\n    tag_179:\n        /* \"#utility.yul\":2596:2597   */\n      0x00\n        /* \"#utility.yul\":2593:2594   */\n      dup1\n        /* \"#utility.yul\":2586:2598   */\n      revert\n        /* \"#utility.yul\":2610:2712   */\n    tag_180:\n        /* \"#utility.yul\":2651:2657   */\n      0x00\n        /* \"#utility.yul\":2702:2704   */\n      0x1f\n        /* \"#utility.yul\":2698:2705   */\n      not\n        /* \"#utility.yul\":2693:2695   */\n      0x1f\n        /* \"#utility.yul\":2686:2691   */\n      dup4\n        /* \"#utility.yul\":2682:2696   */\n      add\n        /* \"#utility.yul\":2678:2706   */\n      and\n        /* \"#utility.yul\":2668:2706   */\n      swap1\n      pop\n        /* \"#utility.yul\":2610:2712   */\n      swap2\n      swap1\n      pop\n      jump\t// out\n        /* \"#utility.yul\":2718:2898   */\n    tag_181:\n        /* \"#utility.yul\":2766:2843   */\n      0x4e487b7100000000000000000000000000000000000000000000000000000000\n        /* \"#utility.yul\":2763:2764   */\n      0x00\n        /* \"#utility.yul\":2756:2844   */\n      mstore\n        /* \"#utility.yul\":2863:2867   */\n      0x41\n        /* \"#utility.yul\":2860:2861   */\n      0x04\n        /* \"#utility.yul\":2853:2868   */\n      mstore\n        /* \"#utility.yul\":2887:2891   */\n      0x24\n        /* \"#utility.yul\":2884:2885   */\n      0x00\n        /* \"#utility.yul\":2877:2892   */\n      revert\n        /* \"#utility.yul\":2904:3185   */\n    tag_182:\n        /* \"#utility.yul\":2987:3014   */\n      tag_251\n        /* \"#utility.yul\":3009:3013   */\n      dup3\n        /* \"#utility.yul\":2987:3014   */\n      tag_180\n      jump\t// in\n    tag_251:\n        /* \"#utility.yul\":2979:2985   */\n      dup2\n        /* \"#utility.yul\":2975:3015   */\n      add\n        /* \"#utility.yul\":3117:3123   */\n      dup2\n        /* \"#utility.yul\":3105:3115   */\n      dup2\n        /* \"#utility.yul\":3102:3124   */\n      lt\n        /* \"#utility.yul\":3081:3099   */\n      0xffffffffffffffff\n        /* \"#utility.yul\":3069:3079   */\n      dup3\n        /* \"#utility.yul\":3066:3100   */\n      gt\n        /* \"#utility.yul\":3063:3125   */\n      or\n        /* \"#utility.yul\":3060:3148   */\n      iszero\n      tag_252\n      jumpi\n        /* \"#utility.yul\":3128:3146   */\n      tag_253\n      tag_181\n      jump\t// in\n    tag_253:\n        /* \"#utility.yul\":3060:3148   */\n    tag_252:\n        /* \"#utility.yul\":3168:3178   */\n      dup1\n        /* \"#utility.yul\":3164:3166   */\n      0x40\n        /* \"#utility.yul\":3157:3179   */\n      mstore\n        /* \"#utility.yul\":2947:3185   */\n      pop\n        /* \"#utility.yul\":2904:3185   */\n      pop\n      pop\n      jump\t// out\n        /* \"#utility.yul\":3191:3320   */\n    tag_183:\n        /* \"#utility.yul\":3225:3231   */\n      0x00\n        /* \"#utility.yul\":3252:3272   */\n      tag_255\n      tag_167\n      jump\t// in\n    tag_255:\n        /* \"#utility.yul\":3242:3272   */\n      swap1\n      pop\n        /* \"#utility.yul\":3281:3314   */\n      tag_256\n        /* \"#utility.yul\":3309:3313   */\n      dup3\n        /* \"#utility.yul\":3301:3307   */\n      dup3\n        /* \"#utility.yul\":3281:3314   */\n      tag_182\n      jump\t// in\n    tag_256:\n        /* \"#utility.yul\":3191:3320   */\n      swap2\n      swap1\n      pop\n      jump\t// out\n        /* \"#utility.yul\":3326:3634   */\n    tag_184:\n        /* \"#utility.yul\":3388:3392   */\n      0x00\n        /* \"#utility.yul\":3478:3496   */\n      0xffffffffffffffff\n        /* \"#utility.yul\":3470:3476   */\n      dup3\n        /* \"#utility.yul\":3467:3497   */\n      gt\n        /* \"#utility.yul\":3464:3520   */\n      iszero\n      tag_258\n      jumpi\n        /* \"#utility.yul\":3500:3518   */\n      tag_259\n      tag_181\n      jump\t// in\n    tag_259:\n        /* \"#utility.yul\":3464:3520   */\n    tag_258:\n        /* \"#utility.yul\":3538:3567   */\n      tag_260\n        /* \"#utility.yul\":3560:3566   */\n      dup3\n        /* \"#utility.yul\":3538:3567   */\n      tag_180\n      jump\t// in\n    tag_260:\n        /* \"#utility.yul\":3530:3567   */\n      swap1\n      pop\n        /* \"#utility.yul\":3622:3626   */\n      0x20\n        /* \"#utility.yul\":3616:3620   */\n      dup2\n        /* \"#utility.yul\":3612:3627   */\n      add\n        /* \"#utility.yul\":3604:3627   */\n      swap1\n      pop\n        /* \"#utility.yul\":3326:3634   */\n      swap2\n      swap1\n      pop\n      jump\t// out\n        /* \"#utility.yul\":3640:3788   */\n    tag_185:\n        /* \"#utility.yul\":3738:3744   */\n      dup3\n        /* \"#utility.yul\":3733:3736   */\n      dup2\n        /* \"#utility.yul\":3728:3731   */\n      dup4\n        /* \"#utility.yul\":3715:3745   */\n      calldatacopy\n        /* \"#utility.yul\":3779:3780   */\n      0x00\n        /* \"#utility.yul\":3770:3776   */\n      dup4\n        /* \"#utility.yul\":3765:3768   */\n      dup4\n        /* \"#utility.yul\":3761:3777   */\n      add\n        /* \"#utility.yul\":3754:3781   */\n      mstore\n        /* \"#utility.yul\":3640:3788   */\n      pop\n      pop\n      pop\n      jump\t// out\n        /* \"#utility.yul\":3794:4219   */\n    tag_186:\n        /* \"#utility.yul\":3872:3877   */\n      0x00\n        /* \"#utility.yul\":3897:3963   */\n      tag_263\n        /* \"#utility.yul\":3913:3962   */\n      tag_264\n        /* \"#utility.yul\":3955:3961   */\n      dup5\n        /* \"#utility.yul\":3913:3962   */\n      tag_184\n      jump\t// in\n    tag_264:\n        /* \"#utility.yul\":3897:3963   */\n      tag_183\n      jump\t// in\n    tag_263:\n        /* \"#utility.yul\":3888:3963   */\n      swap1\n      pop\n        /* \"#utility.yul\":3986:3992   */\n      dup3\n        /* \"#utility.yul\":3979:3984   */\n      dup2\n        /* \"#utility.yul\":3972:3993   */\n      mstore\n        /* \"#utility.yul\":4024:4028   */\n      0x20\n        /* \"#utility.yul\":4017:4022   */\n      dup2\n        /* \"#utility.yul\":4013:4029   */\n      add\n        /* \"#utility.yul\":4062:4065   */\n      dup5\n        /* \"#utility.yul\":4053:4059   */\n      dup5\n        /* \"#utility.yul\":4048:4051   */\n      dup5\n        /* \"#utility.yul\":4044:4060   */\n      add\n        /* \"#utility.yul\":4041:4066   */\n      gt\n        /* \"#utility.yul\":4038:4150   */\n      iszero\n      tag_265\n      jumpi\n        /* \"#utility.yul\":4069:4148   */\n      tag_266\n      tag_179\n      jump\t// in\n    tag_266:\n        /* \"#utility.yul\":4038:4150   */\n    tag_265:\n        /* \"#utility.yul\":4159:4213   */\n      tag_267\n        /* \"#utility.yul\":4206:4212   */\n      dup5\n        /* \"#utility.yul\":4201:4204   */\n      dup3\n        /* \"#utility.yul\":4196:4199   */\n      dup6\n        /* \"#utility.yul\":4159:4213   */\n      tag_185\n      jump\t// in\n    tag_267:\n        /* \"#utility.yul\":3878:4219   */\n      pop\n        /* \"#utility.yul\":3794:4219   */\n      swap4\n      swap3\n      pop\n      pop\n      pop\n      jump\t// out\n        /* \"#utility.yul\":4239:4579   */\n    tag_187:\n        /* \"#utility.yul\":4295:4300   */\n      0x00\n        /* \"#utility.yul\":4344:4347   */\n      dup3\n        /* \"#utility.yul\":4337:4341   */\n      0x1f\n        /* \"#utility.yul\":4329:4335   */\n      dup4\n        /* \"#utility.yul\":4325:4342   */\n      add\n        /* \"#utility.yul\":4321:4348   */\n      slt\n        /* \"#utility.yul\":4311:4433   */\n      tag_269\n      jumpi\n        /* \"#utility.yul\":4352:4431   */\n      tag_270\n      tag_178\n      jump\t// in\n    tag_270:\n        /* \"#utility.yul\":4311:4433   */\n    tag_269:\n        /* \"#utility.yul\":4469:4475   */\n      dup2\n        /* \"#utility.yul\":4456:4476   */\n      calldataload\n        /* \"#utility.yul\":4494:4573   */\n      tag_271\n        /* \"#utility.yul\":4569:4572   */\n      dup5\n        /* \"#utility.yul\":4561:4567   */\n      dup3\n        /* \"#utility.yul\":4554:4558   */\n      0x20\n        /* \"#utility.yul\":4546:4552   */\n      dup7\n        /* \"#utility.yul\":4542:4559   */\n      add\n        /* \"#utility.yul\":4494:4573   */\n      tag_186\n      jump\t// in\n    tag_271:\n        /* \"#utility.yul\":4485:4573   */\n      swap2\n      pop\n        /* \"#utility.yul\":4301:4579   */\n      pop\n        /* \"#utility.yul\":4239:4579   */\n      swap3\n      swap2\n      pop\n      pop\n      jump\t// out\n        /* \"#utility.yul\":4585:5419   */\n    tag_36:\n        /* \"#utility.yul\":4673:4679   */\n      0x00\n        /* \"#utility.yul\":4681:4687   */\n      dup1\n        /* \"#utility.yul\":4730:4732   */\n      0x40\n        /* \"#utility.yul\":4718:4727   */\n      dup4\n        /* \"#utility.yul\":4709:4716   */\n      dup6\n        /* \"#utility.yul\":4705:4728   */\n      sub\n        /* \"#utility.yul\":4701:4733   */\n      slt\n        /* \"#utility.yul\":4698:4817   */\n      iszero\n      tag_273\n      jumpi\n        /* \"#utility.yul\":4736:4815   */\n      tag_274\n      tag_168\n      jump\t// in\n    tag_274:\n        /* \"#utility.yul\":4698:4817   */\n    tag_273:\n        /* \"#utility.yul\":4884:4885   */\n      0x00\n        /* \"#utility.yul\":4873:4882   */\n      dup4\n        /* \"#utility.yul\":4869:4886   */\n      add\n        /* \"#utility.yul\":4856:4887   */\n      calldataload\n        /* \"#utility.yul\":4914:4932   */\n      0xffffffffffffffff\n        /* \"#utility.yul\":4906:4912   */\n      dup2\n        /* \"#utility.yul\":4903:4933   */\n      gt\n        /* \"#utility.yul\":4900:5017   */\n      iszero\n      tag_275\n      jumpi\n        /* \"#utility.yul\":4936:5015   */\n      tag_276\n      tag_169\n      jump\t// in\n    tag_276:\n        /* \"#utility.yul\":4900:5017   */\n    tag_275:\n        /* \"#utility.yul\":5041:5104   */\n      tag_277\n        /* \"#utility.yul\":5096:5103   */\n      dup6\n        /* \"#utility.yul\":5087:5093   */\n      dup3\n        /* \"#utility.yul\":5076:5085   */\n      dup7\n        /* \"#utility.yul\":5072:5094   */\n      add\n        /* \"#utility.yul\":5041:5104   */\n      tag_187\n      jump\t// in\n    tag_277:\n        /* \"#utility.yul\":5031:5104   */\n      swap3\n      pop\n        /* \"#utility.yul\":4827:5114   */\n      pop\n        /* \"#utility.yul\":5181:5183   */\n      0x20\n        /* \"#utility.yul\":5170:5179   */\n      dup4\n        /* \"#utility.yul\":5166:5184   */\n      add\n        /* \"#utility.yul\":5153:5185   */\n      calldataload\n        /* \"#utility.yul\":5212:5230   */\n      0xffffffffffffffff\n        /* \"#utility.yul\":5204:5210   */\n      dup2\n        /* \"#utility.yul\":5201:5231   */\n      gt\n        /* \"#utility.yul\":5198:5315   */\n      iszero\n      tag_278\n      jumpi\n        /* \"#utility.yul\":5234:5313   */\n      tag_279\n      tag_169\n      jump\t// in\n    tag_279:\n        /* \"#utility.yul\":5198:5315   */\n    tag_278:\n        /* \"#utility.yul\":5339:5402   */\n      tag_280\n        /* \"#utility.yul\":5394:5401   */\n      dup6\n        /* \"#utility.yul\":5385:5391   */\n      dup3\n        /* \"#utility.yul\":5374:5383   */\n      dup7\n        /* \"#utility.yul\":5370:5392   */\n      add\n        /* \"#utility.yul\":5339:5402   */\n      tag_187\n      jump\t// in\n    tag_280:\n        /* \"#utility.yul\":5329:5402   */\n      swap2\n      pop\n        /* \"#utility.yul\":5124:5412   */\n      pop\n        /* \"#utility.yul\":4585:5419   */\n      swap3\n      pop\n      swap3\n      swap1\n      pop\n      jump\t// out\n        /* \"#utility.yul\":5425:5934   */\n    tag_40:\n        /* \"#utility.yul\":5494:5500   */\n      0x00\n        /* \"#utility.yul\":5543:5545   */\n      0x20\n        /* \"#utility.yul\":5531:5540   */\n      dup3\n        /* \"#utility.yul\":5522:5529   */\n      dup5\n        /* \"#utility.yul\":5518:5541   */\n      sub\n        /* \"#utility.yul\":5514:5546   */\n      slt\n        /* \"#utility.yul\":5511:5630   */\n      iszero\n      tag_282\n      jumpi\n        /* \"#utility.yul\":5549:5628   */\n      tag_283\n      tag_168\n      jump\t// in\n    tag_283:\n        /* \"#utility.yul\":5511:5630   */\n    tag_282:\n        /* \"#utility.yul\":5697:5698   */\n      0x00\n        /* \"#utility.yul\":5686:5695   */\n      dup3\n        /* \"#utility.yul\":5682:5699   */\n      add\n        /* \"#utility.yul\":5669:5700   */\n      calldataload\n        /* \"#utility.yul\":5727:5745   */\n      0xffffffffffffffff\n        /* \"#utility.yul\":5719:5725   */\n      dup2\n        /* \"#utility.yul\":5716:5746   */\n      gt\n        /* \"#utility.yul\":5713:5830   */\n      iszero\n      tag_284\n      jumpi\n        /* \"#utility.yul\":5749:5828   */\n      tag_285\n      tag_169\n      jump\t// in\n    tag_285:\n        /* \"#utility.yul\":5713:5830   */\n    tag_284:\n        /* \"#utility.yul\":5854:5917   */\n      tag_286\n        /* \"#utility.yul\":5909:5916   */\n      dup5\n        /* \"#utility.yul\":5900:5906   */\n      dup3\n        /* \"#utility.yul\":5889:5898   */\n      dup6\n        /* \"#utility.yul\":5885:5907   */\n      add\n        /* \"#utility.yul\":5854:5917   */\n      tag_187\n      jump\t// in\n    tag_286:\n        /* \"#utility.yul\":5844:5917   */\n      swap2\n      pop\n        /* \"#utility.yul\":5640:5927   */\n      pop\n        /* \"#utility.yul\":5425:5934   */\n      swap3\n      swap2\n      pop\n      pop\n      jump\t// out\n        /* \"#utility.yul\":5940:6039   */\n    tag_188:\n        /* \"#utility.yul\":5992:5998   */\n      0x00\n        /* \"#utility.yul\":6026:6031   */\n      dup2\n        /* \"#utility.yul\":6020:6032   */\n      mload\n        /* \"#utility.yul\":6010:6032   */\n      swap1\n      pop\n        /* \"#utility.yul\":5940:6039   */\n      swap2\n      swap1\n      pop\n      jump\t// out\n        /* \"#utility.yul\":6045:6214   */\n    tag_189:\n        /* \"#utility.yul\":6129:6140   */\n      0x00\n        /* \"#utility.yul\":6163:6169   */\n      dup3\n        /* \"#utility.yul\":6158:6161   */\n      dup3\n        /* \"#utility.yul\":6151:6170   */\n      mstore\n        /* \"#utility.yul\":6203:6207   */\n      0x20\n        /* \"#utility.yul\":6198:6201   */\n      dup3\n        /* \"#utility.yul\":6194:6208   */\n      add\n        /* \"#utility.yul\":6179:6208   */\n      swap1\n      pop\n        /* \"#utility.yul\":6045:6214   */\n      swap3\n      swap2\n      pop\n      pop\n      jump\t// out\n        /* \"#utility.yul\":6220:6359   */\n    tag_190:\n        /* \"#utility.yul\":6309:6315   */\n      dup3\n        /* \"#utility.yul\":6304:6307   */\n      dup2\n        /* \"#utility.yul\":6299:6302   */\n      dup4\n        /* \"#utility.yul\":6293:6316   */\n      mcopy\n        /* \"#utility.yul\":6350:6351   */\n      0x00\n        /* \"#utility.yul\":6341:6347   */\n      dup4\n        /* \"#utility.yul\":6336:6339   */\n      dup4\n        /* \"#utility.yul\":6332:6348   */\n      add\n        /* \"#utility.yul\":6325:6352   */\n      mstore\n        /* \"#utility.yul\":6220:6359   */\n      pop\n      pop\n      pop\n      jump\t// out\n        /* \"#utility.yul\":6365:6742   */\n    tag_191:\n        /* \"#utility.yul\":6453:6456   */\n      0x00\n        /* \"#utility.yul\":6481:6520   */\n      tag_291\n        /* \"#utility.yul\":6514:6519   */\n      dup3\n        /* \"#utility.yul\":6481:6520   */\n      tag_188\n      jump\t// in\n    tag_291:\n        /* \"#utility.yul\":6536:6607   */\n      tag_292\n        /* \"#utility.yul\":6600:6606   */\n      dup2\n        /* \"#utility.yul\":6595:6598   */\n      dup6\n        /* \"#utility.yul\":6536:6607   */\n      tag_189\n      jump\t// in\n    tag_292:\n        /* \"#utility.yul\":6529:6607   */\n      swap4\n      pop\n        /* \"#utility.yul\":6616:6681   */\n      tag_293\n        /* \"#utility.yul\":6674:6680   */\n      dup2\n        /* \"#utility.yul\":6669:6672   */\n      dup6\n        /* \"#utility.yul\":6662:6666   */\n      0x20\n        /* \"#utility.yul\":6655:6660   */\n      dup7\n        /* \"#utility.yul\":6651:6667   */\n      add\n        /* \"#utility.yul\":6616:6681   */\n      tag_190\n      jump\t// in\n    tag_293:\n        /* \"#utility.yul\":6706:6735   */\n      tag_294\n        /* \"#utility.yul\":6728:6734   */\n      dup2\n        /* \"#utility.yul\":6706:6735   */\n      tag_180\n      jump\t// in\n    tag_294:\n        /* \"#utility.yul\":6701:6704   */\n      dup5\n        /* \"#utility.yul\":6697:6736   */\n      add\n        /* \"#utility.yul\":6690:6736   */\n      swap2\n      pop\n        /* \"#utility.yul\":6457:6742   */\n      pop\n        /* \"#utility.yul\":6365:6742   */\n      swap3\n      swap2\n      pop\n      pop\n      jump\t// out\n        /* \"#utility.yul\":6748:7061   */\n    tag_43:\n        /* \"#utility.yul\":6861:6865   */\n      0x00\n        /* \"#utility.yul\":6899:6901   */\n      0x20\n        /* \"#utility.yul\":6888:6897   */\n      dup3\n        /* \"#utility.yul\":6884:6902   */\n      add\n        /* \"#utility.yul\":6876:6902   */\n      swap1\n      pop\n        /* \"#utility.yul\":6948:6957   */\n      dup2\n        /* \"#utility.yul\":6942:6946   */\n      dup2\n        /* \"#utility.yul\":6938:6958   */\n      sub\n        /* \"#utility.yul\":6934:6935   */\n      0x00\n        /* \"#utility.yul\":6923:6932   */\n      dup4\n        /* \"#utility.yul\":6919:6936   */\n      add\n        /* \"#utility.yul\":6912:6959   */\n      mstore\n        /* \"#utility.yul\":6976:7054   */\n      tag_296\n        /* \"#utility.yul\":7049:7053   */\n      dup2\n        /* \"#utility.yul\":7040:7046   */\n      dup5\n        /* \"#utility.yul\":6976:7054   */\n      tag_191\n      jump\t// in\n    tag_296:\n        /* \"#utility.yul\":6968:7054   */\n      swap1\n      pop\n        /* \"#utility.yul\":6748:7061   */\n      swap3\n      swap2\n      pop\n      pop\n      jump\t// out\n        /* \"#utility.yul\":7067:8046   */\n    tag_49:\n        /* \"#utility.yul\":7164:7170   */\n      0x00\n        /* \"#utility.yul\":7172:7178   */\n      dup1\n        /* \"#utility.yul\":7180:7186   */\n      0x00\n        /* \"#utility.yul\":7229:7231   */\n      0x60\n        /* \"#utility.yul\":7217:7226   */\n      dup5\n        /* \"#utility.yul\":7208:7215   */\n      dup7\n        /* \"#utility.yul\":7204:7227   */\n      sub\n        /* \"#utility.yul\":7200:7232   */\n      slt\n        /* \"#utility.yul\":7197:7316   */\n      iszero\n      tag_298\n      jumpi\n        /* \"#utility.yul\":7235:7314   */\n      tag_299\n      tag_168\n      jump\t// in\n    tag_299:\n        /* \"#utility.yul\":7197:7316   */\n    tag_298:\n        /* \"#utility.yul\":7383:7384   */\n      0x00\n        /* \"#utility.yul\":7372:7381   */\n      dup5\n        /* \"#utility.yul\":7368:7385   */\n      add\n        /* \"#utility.yul\":7355:7386   */\n      calldataload\n        /* \"#utility.yul\":7413:7431   */\n      0xffffffffffffffff\n        /* \"#utility.yul\":7405:7411   */\n      dup2\n        /* \"#utility.yul\":7402:7432   */\n      gt\n        /* \"#utility.yul\":7399:7516   */\n      iszero\n      tag_300\n      jumpi\n        /* \"#utility.yul\":7435:7514   */\n      tag_301\n      tag_169\n      jump\t// in\n    tag_301:\n        /* \"#utility.yul\":7399:7516   */\n    tag_300:\n        /* \"#utility.yul\":7540:7603   */\n      tag_302\n        /* \"#utility.yul\":7595:7602   */\n      dup7\n        /* \"#utility.yul\":7586:7592   */\n      dup3\n        /* \"#utility.yul\":7575:7584   */\n      dup8\n        /* \"#utility.yul\":7571:7593   */\n      add\n        /* \"#utility.yul\":7540:7603   */\n      tag_187\n      jump\t// in\n    tag_302:\n        /* \"#utility.yul\":7530:7603   */\n      swap4\n      pop\n        /* \"#utility.yul\":7326:7613   */\n      pop\n        /* \"#utility.yul\":7652:7654   */\n      0x20\n        /* \"#utility.yul\":7678:7731   */\n      tag_303\n        /* \"#utility.yul\":7723:7730   */\n      dup7\n        /* \"#utility.yul\":7714:7720   */\n      dup3\n        /* \"#utility.yul\":7703:7712   */\n      dup8\n        /* \"#utility.yul\":7699:7721   */\n      add\n        /* \"#utility.yul\":7678:7731   */\n      tag_177\n      jump\t// in\n    tag_303:\n        /* \"#utility.yul\":7668:7731   */\n      swap3\n      pop\n        /* \"#utility.yul\":7623:7741   */\n      pop\n        /* \"#utility.yul\":7808:7810   */\n      0x40\n        /* \"#utility.yul\":7797:7806   */\n      dup5\n        /* \"#utility.yul\":7793:7811   */\n      add\n        /* \"#utility.yul\":7780:7812   */\n      calldataload\n        /* \"#utility.yul\":7839:7857   */\n      0xffffffffffffffff\n        /* \"#utility.yul\":7831:7837   */\n      dup2\n        /* \"#utility.yul\":7828:7858   */\n      gt\n        /* \"#utility.yul\":7825:7942   */\n      iszero\n      tag_304\n      jumpi\n        /* \"#utility.yul\":7861:7940   */\n      tag_305\n      tag_169\n      jump\t// in\n    tag_305:\n        /* \"#utility.yul\":7825:7942   */\n    tag_304:\n        /* \"#utility.yul\":7966:8029   */\n      tag_306\n        /* \"#utility.yul\":8021:8028   */\n      dup7\n        /* \"#utility.yul\":8012:8018   */\n      dup3\n        /* \"#utility.yul\":8001:8010   */\n      dup8\n        /* \"#utility.yul\":7997:8019   */\n      add\n        /* \"#utility.yul\":7966:8029   */\n      tag_187\n      jump\t// in\n    tag_306:\n        /* \"#utility.yul\":7956:8029   */\n      swap2\n      pop\n        /* \"#utility.yul\":7751:8039   */\n      pop\n        /* \"#utility.yul\":7067:8046   */\n      swap3\n      pop\n      swap3\n      pop\n      swap3\n      jump\t// out\n        /* \"#utility.yul\":8052:9289   */\n    tag_56:\n        /* \"#utility.yul\":8166:8172   */\n      0x00\n        /* \"#utility.yul\":8174:8180   */\n      dup1\n        /* \"#utility.yul\":8182:8188   */\n      0x00\n        /* \"#utility.yul\":8190:8196   */\n      dup1\n        /* \"#utility.yul\":8198:8204   */\n      0x00\n        /* \"#utility.yul\":8206:8212   */\n      dup1\n        /* \"#utility.yul\":8255:8258   */\n      0xc0\n        /* \"#utility.yul\":8243:8252   */\n      dup8\n        /* \"#utility.yul\":8234:8241   */\n      dup10\n        /* \"#utility.yul\":8230:8253   */\n      sub\n        /* \"#utility.yul\":8226:8259   */\n      slt\n        /* \"#utility.yul\":8223:8343   */\n      iszero\n      tag_308\n      jumpi\n        /* \"#utility.yul\":8262:8341   */\n      tag_309\n      tag_168\n      jump\t// in\n    tag_309:\n        /* \"#utility.yul\":8223:8343   */\n    tag_308:\n        /* \"#utility.yul\":8410:8411   */\n      0x00\n        /* \"#utility.yul\":8399:8408   */\n      dup8\n        /* \"#utility.yul\":8395:8412   */\n      add\n        /* \"#utility.yul\":8382:8413   */\n      calldataload\n        /* \"#utility.yul\":8440:8458   */\n      0xffffffffffffffff\n        /* \"#utility.yul\":8432:8438   */\n      dup2\n        /* \"#utility.yul\":8429:8459   */\n      gt\n        /* \"#utility.yul\":8426:8543   */\n      iszero\n      tag_310\n      jumpi\n        /* \"#utility.yul\":8462:8541   */\n      tag_311\n      tag_169\n      jump\t// in\n    tag_311:\n        /* \"#utility.yul\":8426:8543   */\n    tag_310:\n        /* \"#utility.yul\":8567:8630   */\n      tag_312\n        /* \"#utility.yul\":8622:8629   */\n      dup10\n        /* \"#utility.yul\":8613:8619   */\n      dup3\n        /* \"#utility.yul\":8602:8611   */\n      dup11\n        /* \"#utility.yul\":8598:8620   */\n      add\n        /* \"#utility.yul\":8567:8630   */\n      tag_187\n      jump\t// in\n    tag_312:\n        /* \"#utility.yul\":8557:8630   */\n      swap7\n      pop\n        /* \"#utility.yul\":8353:8640   */\n      pop\n        /* \"#utility.yul\":8679:8681   */\n      0x20\n        /* \"#utility.yul\":8705:8758   */\n      tag_313\n        /* \"#utility.yul\":8750:8757   */\n      dup10\n        /* \"#utility.yul\":8741:8747   */\n      dup3\n        /* \"#utility.yul\":8730:8739   */\n      dup11\n        /* \"#utility.yul\":8726:8748   */\n      add\n        /* \"#utility.yul\":8705:8758   */\n      tag_177\n      jump\t// in\n    tag_313:\n        /* \"#utility.yul\":8695:8758   */\n      swap6\n      pop\n        /* \"#utility.yul\":8650:8768   */\n      pop\n        /* \"#utility.yul\":8807:8809   */\n      0x40\n        /* \"#utility.yul\":8833:8886   */\n      tag_314\n        /* \"#utility.yul\":8878:8885   */\n      dup10\n        /* \"#utility.yul\":8869:8875   */\n      dup3\n        /* \"#utility.yul\":8858:8867   */\n      dup11\n        /* \"#utility.yul\":8854:8876   */\n      add\n        /* \"#utility.yul\":8833:8886   */\n      tag_177\n      jump\t// in\n    tag_314:\n        /* \"#utility.yul\":8823:8886   */\n      swap5\n      pop\n        /* \"#utility.yul\":8778:8896   */\n      pop\n        /* \"#utility.yul\":8935:8937   */\n      0x60\n        /* \"#utility.yul\":8961:9014   */\n      tag_315\n        /* \"#utility.yul\":9006:9013   */\n      dup10\n        /* \"#utility.yul\":8997:9003   */\n      dup3\n        /* \"#utility.yul\":8986:8995   */\n      dup11\n        /* \"#utility.yul\":8982:9004   */\n      add\n        /* \"#utility.yul\":8961:9014   */\n      tag_177\n      jump\t// in\n    tag_315:\n        /* \"#utility.yul\":8951:9014   */\n      swap4\n      pop\n        /* \"#utility.yul\":8906:9024   */\n      pop\n        /* \"#utility.yul\":9063:9066   */\n      0x80\n        /* \"#utility.yul\":9090:9143   */\n      tag_316\n        /* \"#utility.yul\":9135:9142   */\n      dup10\n        /* \"#utility.yul\":9126:9132   */\n      dup3\n        /* \"#utility.yul\":9115:9124   */\n      dup11\n        /* \"#utility.yul\":9111:9133   */\n      add\n        /* \"#utility.yul\":9090:9143   */\n      tag_177\n      jump\t// in\n    tag_316:\n        /* \"#utility.yul\":9080:9143   */\n      swap3\n      pop\n        /* \"#utility.yul\":9034:9153   */\n      pop\n        /* \"#utility.yul\":9192:9195   */\n      0xa0\n        /* \"#utility.yul\":9219:9272   */\n      tag_317\n        /* \"#utility.yul\":9264:9271   */\n      dup10\n        /* \"#utility.yul\":9255:9261   */\n      dup3\n        /* \"#utility.yul\":9244:9253   */\n      dup11\n        /* \"#utility.yul\":9240:9262   */\n      add\n        /* \"#utility.yul\":9219:9272   */\n      tag_177\n      jump\t// in\n    tag_317:\n        /* \"#utility.yul\":9209:9272   */\n      swap2\n      pop\n        /* \"#utility.yul\":9163:9282   */\n      pop\n        /* \"#utility.yul\":8052:9289   */\n      swap3\n      swap6\n      pop\n      swap3\n      swap6\n      pop\n      swap3\n      swap6\n      jump\t// out\n        /* \"#utility.yul\":9295:9413   */\n    tag_192:\n        /* \"#utility.yul\":9382:9406   */\n      tag_319\n        /* \"#utility.yul\":9400:9405   */\n      dup2\n        /* \"#utility.yul\":9382:9406   */\n      tag_171\n      jump\t// in\n    tag_319:\n        /* \"#utility.yul\":9377:9380   */\n      dup3\n        /* \"#utility.yul\":9370:9407   */\n      mstore\n        /* \"#utility.yul\":9295:9413   */\n      pop\n      pop\n      jump\t// out\n        /* \"#utility.yul\":9419:10194   */\n    tag_67:\n        /* \"#utility.yul\":9652:9656   */\n      0x00\n        /* \"#utility.yul\":9690:9693   */\n      0xc0\n        /* \"#utility.yul\":9679:9688   */\n      dup3\n        /* \"#utility.yul\":9675:9694   */\n      add\n        /* \"#utility.yul\":9667:9694   */\n      swap1\n      pop\n        /* \"#utility.yul\":9704:9775   */\n      tag_321\n        /* \"#utility.yul\":9772:9773   */\n      0x00\n        /* \"#utility.yul\":9761:9770   */\n      dup4\n        /* \"#utility.yul\":9757:9774   */\n      add\n        /* \"#utility.yul\":9748:9754   */\n      dup10\n        /* \"#utility.yul\":9704:9775   */\n      tag_192\n      jump\t// in\n    tag_321:\n        /* \"#utility.yul\":9785:9857   */\n      tag_322\n        /* \"#utility.yul\":9853:9855   */\n      0x20\n        /* \"#utility.yul\":9842:9851   */\n      dup4\n        /* \"#utility.yul\":9838:9856   */\n      add\n        /* \"#utility.yul\":9829:9835   */\n      dup9\n        /* \"#utility.yul\":9785:9857   */\n      tag_175\n      jump\t// in\n    tag_322:\n        /* \"#utility.yul\":9867:9939   */\n      tag_323\n        /* \"#utility.yul\":9935:9937   */\n      0x40\n        /* \"#utility.yul\":9924:9933   */\n      dup4\n        /* \"#utility.yul\":9920:9938   */\n      add\n        /* \"#utility.yul\":9911:9917   */\n      dup8\n        /* \"#utility.yul\":9867:9939   */\n      tag_175\n      jump\t// in\n    tag_323:\n        /* \"#utility.yul\":9949:10021   */\n      tag_324\n        /* \"#utility.yul\":10017:10019   */\n      0x60\n        /* \"#utility.yul\":10006:10015   */\n      dup4\n        /* \"#utility.yul\":10002:10020   */\n      add\n        /* \"#utility.yul\":9993:9999   */\n      dup7\n        /* \"#utility.yul\":9949:10021   */\n      tag_175\n      jump\t// in\n    tag_324:\n        /* \"#utility.yul\":10031:10104   */\n      tag_325\n        /* \"#utility.yul\":10099:10102   */\n      0x80\n        /* \"#utility.yul\":10088:10097   */\n      dup4\n        /* \"#utility.yul\":10084:10103   */\n      add\n        /* \"#utility.yul\":10075:10081   */\n      dup6\n        /* \"#utility.yul\":10031:10104   */\n      tag_175\n      jump\t// in\n    tag_325:\n        /* \"#utility.yul\":10114:10187   */\n      tag_326\n        /* \"#utility.yul\":10182:10185   */\n      0xa0\n        /* \"#utility.yul\":10171:10180   */\n      dup4\n        /* \"#utility.yul\":10167:10186   */\n      add\n        /* \"#utility.yul\":10158:10164   */\n      dup5\n        /* \"#utility.yul\":10114:10187   */\n      tag_175\n      jump\t// in\n    tag_326:\n        /* \"#utility.yul\":9419:10194   */\n      swap8\n      swap7\n      pop\n      pop\n      pop\n      pop\n      pop\n      pop\n      pop\n      jump\t// out\n        /* \"#utility.yul\":10200:10999   */\n    tag_73:\n        /* \"#utility.yul\":10287:10293   */\n      0x00\n        /* \"#utility.yul\":10295:10301   */\n      dup1\n        /* \"#utility.yul\":10303:10309   */\n      0x00\n        /* \"#utility.yul\":10352:10354   */\n      0x60\n        /* \"#utility.yul\":10340:10349   */\n      dup5\n        /* \"#utility.yul\":10331:10338   */\n      dup7\n        /* \"#utility.yul\":10327:10350   */\n      sub\n        /* \"#utility.yul\":10323:10355   */\n      slt\n        /* \"#utility.yul\":10320:10439   */\n      iszero\n      tag_328\n      jumpi\n        /* \"#utility.yul\":10358:10437   */\n      tag_329\n      tag_168\n      jump\t// in\n    tag_329:\n        /* \"#utility.yul\":10320:10439   */\n    tag_328:\n        /* \"#utility.yul\":10506:10507   */\n      0x00\n        /* \"#utility.yul\":10495:10504   */\n      dup5\n        /* \"#utility.yul\":10491:10508   */\n      add\n        /* \"#utility.yul\":10478:10509   */\n      calldataload\n        /* \"#utility.yul\":10536:10554   */\n      0xffffffffffffffff\n        /* \"#utility.yul\":10528:10534   */\n      dup2\n        /* \"#utility.yul\":10525:10555   */\n      gt\n        /* \"#utility.yul\":10522:10639   */\n      iszero\n      tag_330\n      jumpi\n        /* \"#utility.yul\":10558:10637   */\n      tag_331\n      tag_169\n      jump\t// in\n    tag_331:\n        /* \"#utility.yul\":10522:10639   */\n    tag_330:\n        /* \"#utility.yul\":10663:10726   */\n      tag_332\n        /* \"#utility.yul\":10718:10725   */\n      dup7\n        /* \"#utility.yul\":10709:10715   */\n      dup3\n        /* \"#utility.yul\":10698:10707   */\n      dup8\n        /* \"#utility.yul\":10694:10716   */\n      add\n        /* \"#utility.yul\":10663:10726   */\n      tag_187\n      jump\t// in\n    tag_332:\n        /* \"#utility.yul\":10653:10726   */\n      swap4\n      pop\n        /* \"#utility.yul\":10449:10736   */\n      pop\n        /* \"#utility.yul\":10775:10777   */\n      0x20\n        /* \"#utility.yul\":10801:10854   */\n      tag_333\n        /* \"#utility.yul\":10846:10853   */\n      dup7\n        /* \"#utility.yul\":10837:10843   */\n      dup3\n        /* \"#utility.yul\":10826:10835   */\n      dup8\n        /* \"#utility.yul\":10822:10844   */\n      add\n        /* \"#utility.yul\":10801:10854   */\n      tag_177\n      jump\t// in\n    tag_333:\n        /* \"#utility.yul\":10791:10854   */\n      swap3\n      pop\n        /* \"#utility.yul\":10746:10864   */\n      pop\n        /* \"#utility.yul\":10903:10905   */\n      0x40\n        /* \"#utility.yul\":10929:10982   */\n      tag_334\n        /* \"#utility.yul\":10974:10981   */\n      dup7\n        /* \"#utility.yul\":10965:10971   */\n      dup3\n        /* \"#utility.yul\":10954:10963   */\n      dup8\n        /* \"#utility.yul\":10950:10972   */\n      add\n        /* \"#utility.yul\":10929:10982   */\n      tag_177\n      jump\t// in\n    tag_334:\n        /* \"#utility.yul\":10919:10982   */\n      swap2\n      pop\n        /* \"#utility.yul\":10874:10992   */\n      pop\n        /* \"#utility.yul\":10200:10999   */\n      swap3\n      pop\n      swap3\n      pop\n      swap3\n      jump\t// out\n        /* \"#utility.yul\":11005:11185   */\n    tag_193:\n        /* \"#utility.yul\":11053:11130   */\n      0x4e487b7100000000000000000000000000000000000000000000000000000000\n        /* \"#utility.yul\":11050:11051   */\n      0x00\n        /* \"#utility.yul\":11043:11131   */\n      mstore\n        /* \"#utility.yul\":11150:11154   */\n      0x11\n        /* \"#utility.yul\":11147:11148   */\n      0x04\n        /* \"#utility.yul\":11140:11155   */\n      mstore\n        /* \"#utility.yul\":11174:11178   */\n      0x24\n        /* \"#utility.yul\":11171:11172   */\n      0x00\n        /* \"#utility.yul\":11164:11179   */\n      revert\n        /* \"#utility.yul\":11191:11382   */\n    tag_84:\n        /* \"#utility.yul\":11231:11234   */\n      0x00\n        /* \"#utility.yul\":11250:11270   */\n      tag_337\n        /* \"#utility.yul\":11268:11269   */\n      dup3\n        /* \"#utility.yul\":11250:11270   */\n      tag_174\n      jump\t// in\n    tag_337:\n        /* \"#utility.yul\":11245:11270   */\n      swap2\n      pop\n        /* \"#utility.yul\":11284:11304   */\n      tag_338\n        /* \"#utility.yul\":11302:11303   */\n      dup4\n        /* \"#utility.yul\":11284:11304   */\n      tag_174\n      jump\t// in\n    tag_338:\n        /* \"#utility.yul\":11279:11304   */\n      swap3\n      pop\n        /* \"#utility.yul\":11327:11328   */\n      dup3\n        /* \"#utility.yul\":11324:11325   */\n      dup3\n        /* \"#utility.yul\":11320:11329   */\n      add\n        /* \"#utility.yul\":11313:11329   */\n      swap1\n      pop\n        /* \"#utility.yul\":11348:11351   */\n      dup1\n        /* \"#utility.yul\":11345:11346   */\n      dup3\n        /* \"#utility.yul\":11342:11352   */\n      gt\n        /* \"#utility.yul\":11339:11375   */\n      iszero\n      tag_339\n      jumpi\n        /* \"#utility.yul\":11355:11373   */\n      tag_340\n      tag_193\n      jump\t// in\n    tag_340:\n        /* \"#utility.yul\":11339:11375   */\n    tag_339:\n        /* \"#utility.yul\":11191:11382   */\n      swap3\n      swap2\n      pop\n      pop\n      jump\t// out\n        /* \"#utility.yul\":11388:11582   */\n    tag_86:\n        /* \"#utility.yul\":11428:11432   */\n      0x00\n        /* \"#utility.yul\":11448:11468   */\n      tag_342\n        /* \"#utility.yul\":11466:11467   */\n      dup3\n        /* \"#utility.yul\":11448:11468   */\n      tag_174\n      jump\t// in\n    tag_342:\n        /* \"#utility.yul\":11443:11468   */\n      swap2\n      pop\n        /* \"#utility.yul\":11482:11502   */\n      tag_343\n        /* \"#utility.yul\":11500:11501   */\n      dup4\n        /* \"#utility.yul\":11482:11502   */\n      tag_174\n      jump\t// in\n    tag_343:\n        /* \"#utility.yul\":11477:11502   */\n      swap3\n      pop\n        /* \"#utility.yul\":11526:11527   */\n      dup3\n        /* \"#utility.yul\":11523:11524   */\n      dup3\n        /* \"#utility.yul\":11519:11528   */\n      sub\n        /* \"#utility.yul\":11511:11528   */\n      swap1\n      pop\n        /* \"#utility.yul\":11550:11551   */\n      dup2\n        /* \"#utility.yul\":11544:11548   */\n      dup2\n        /* \"#utility.yul\":11541:11552   */\n      gt\n        /* \"#utility.yul\":11538:11575   */\n      iszero\n      tag_344\n      jumpi\n        /* \"#utility.yul\":11555:11573   */\n      tag_345\n      tag_193\n      jump\t// in\n    tag_345:\n        /* \"#utility.yul\":11538:11575   */\n    tag_344:\n        /* \"#utility.yul\":11388:11582   */\n      swap3\n      swap2\n      pop\n      pop\n      jump\t// out\n        /* \"#utility.yul\":11588:11736   */\n    tag_194:\n        /* \"#utility.yul\":11690:11701   */\n      0x00\n        /* \"#utility.yul\":11727:11730   */\n      dup2\n        /* \"#utility.yul\":11712:11730   */\n      swap1\n      pop\n        /* \"#utility.yul\":11588:11736   */\n      swap3\n      swap2\n      pop\n      pop\n      jump\t// out\n        /* \"#utility.yul\":11742:12132   */\n    tag_195:\n        /* \"#utility.yul\":11848:11851   */\n      0x00\n        /* \"#utility.yul\":11876:11915   */\n      tag_348\n        /* \"#utility.yul\":11909:11914   */\n      dup3\n        /* \"#utility.yul\":11876:11915   */\n      tag_188\n      jump\t// in\n    tag_348:\n        /* \"#utility.yul\":11931:12020   */\n      tag_349\n        /* \"#utility.yul\":12013:12019   */\n      dup2\n        /* \"#utility.yul\":12008:12011   */\n      dup6\n        /* \"#utility.yul\":11931:12020   */\n      tag_194\n      jump\t// in\n    tag_349:\n        /* \"#utility.yul\":11924:12020   */\n      swap4\n      pop\n        /* \"#utility.yul\":12029:12094   */\n      tag_350\n        /* \"#utility.yul\":12087:12093   */\n      dup2\n        /* \"#utility.yul\":12082:12085   */\n      dup6\n        /* \"#utility.yul\":12075:12079   */\n      0x20\n        /* \"#utility.yul\":12068:12073   */\n      dup7\n        /* \"#utility.yul\":12064:12080   */\n      add\n        /* \"#utility.yul\":12029:12094   */\n      tag_190\n      jump\t// in\n    tag_350:\n        /* \"#utility.yul\":12119:12125   */\n      dup1\n        /* \"#utility.yul\":12114:12117   */\n      dup5\n        /* \"#utility.yul\":12110:12126   */\n      add\n        /* \"#utility.yul\":12103:12126   */\n      swap2\n      pop\n        /* \"#utility.yul\":11852:12132   */\n      pop\n        /* \"#utility.yul\":11742:12132   */\n      swap3\n      swap2\n      pop\n      pop\n      jump\t// out\n        /* \"#utility.yul\":12138:12413   */\n    tag_92:\n        /* \"#utility.yul\":12270:12273   */\n      0x00\n        /* \"#utility.yul\":12292:12387   */\n      tag_352\n        /* \"#utility.yul\":12383:12386   */\n      dup3\n        /* \"#utility.yul\":12374:12380   */\n      dup5\n        /* \"#utility.yul\":12292:12387   */\n      tag_195\n      jump\t// in\n    tag_352:\n        /* \"#utility.yul\":12285:12387   */\n      swap2\n      pop\n        /* \"#utility.yul\":12404:12407   */\n      dup2\n        /* \"#utility.yul\":12397:12407   */\n      swap1\n      pop\n        /* \"#utility.yul\":12138:12413   */\n      swap3\n      swap2\n      pop\n      pop\n      jump\t// out\n        /* \"#utility.yul\":12419:12599   */\n    tag_196:\n        /* \"#utility.yul\":12467:12544   */\n      0x4e487b7100000000000000000000000000000000000000000000000000000000\n        /* \"#utility.yul\":12464:12465   */\n      0x00\n        /* \"#utility.yul\":12457:12545   */\n      mstore\n        /* \"#utility.yul\":12564:12568   */\n      0x22\n        /* \"#utility.yul\":12561:12562   */\n      0x04\n        /* \"#utility.yul\":12554:12569   */\n      mstore\n        /* \"#utility.yul\":12588:12592   */\n      0x24\n        /* \"#utility.yul\":12585:12586   */\n      0x00\n        /* \"#utility.yul\":12578:12593   */\n      revert\n        /* \"#utility.yul\":12605:12925   */\n    tag_98:\n        /* \"#utility.yul\":12649:12655   */\n      0x00\n        /* \"#utility.yul\":12686:12687   */\n      0x02\n        /* \"#utility.yul\":12680:12684   */\n      dup3\n        /* \"#utility.yul\":12676:12688   */\n      div\n        /* \"#utility.yul\":12666:12688   */\n      swap1\n      pop\n        /* \"#utility.yul\":12733:12734   */\n      0x01\n        /* \"#utility.yul\":12727:12731   */\n      dup3\n        /* \"#utility.yul\":12723:12735   */\n      and\n        /* \"#utility.yul\":12754:12772   */\n      dup1\n        /* \"#utility.yul\":12744:12825   */\n      tag_355\n      jumpi\n        /* \"#utility.yul\":12810:12814   */\n      0x7f\n        /* \"#utility.yul\":12802:12808   */\n      dup3\n        /* \"#utility.yul\":12798:12815   */\n      and\n        /* \"#utility.yul\":12788:12815   */\n      swap2\n      pop\n        /* \"#utility.yul\":12744:12825   */\n    tag_355:\n        /* \"#utility.yul\":12872:12874   */\n      0x20\n        /* \"#utility.yul\":12864:12870   */\n      dup3\n        /* \"#utility.yul\":12861:12875   */\n      lt\n        /* \"#utility.yul\":12841:12859   */\n      dup2\n        /* \"#utility.yul\":12838:12876   */\n      sub\n        /* \"#utility.yul\":12835:12919   */\n      tag_356\n      jumpi\n        /* \"#utility.yul\":12891:12909   */\n      tag_357\n      tag_196\n      jump\t// in\n    tag_357:\n        /* \"#utility.yul\":12835:12919   */\n    tag_356:\n        /* \"#utility.yul\":12656:12925   */\n      pop\n        /* \"#utility.yul\":12605:12925   */\n      swap2\n      swap1\n      pop\n      jump\t// out\n        /* \"#utility.yul\":12931:13072   */\n    tag_197:\n        /* \"#utility.yul\":12980:12984   */\n      0x00\n        /* \"#utility.yul\":13003:13006   */\n      dup2\n        /* \"#utility.yul\":12995:13006   */\n      swap1\n      pop\n        /* \"#utility.yul\":13026:13029   */\n      dup2\n        /* \"#utility.yul\":13023:13024   */\n      0x00\n        /* \"#utility.yul\":13016:13030   */\n      mstore\n        /* \"#utility.yul\":13060:13064   */\n      0x20\n        /* \"#utility.yul\":13057:13058   */\n      0x00\n        /* \"#utility.yul\":13047:13065   */\n      keccak256\n        /* \"#utility.yul\":13039:13065   */\n      swap1\n      pop\n        /* \"#utility.yul\":12931:13072   */\n      swap2\n      swap1\n      pop\n      jump\t// out\n        /* \"#utility.yul\":13078:13171   */\n    tag_198:\n        /* \"#utility.yul\":13115:13121   */\n      0x00\n        /* \"#utility.yul\":13162:13164   */\n      0x20\n        /* \"#utility.yul\":13157:13159   */\n      0x1f\n        /* \"#utility.yul\":13150:13155   */\n      dup4\n        /* \"#utility.yul\":13146:13160   */\n      add\n        /* \"#utility.yul\":13142:13165   */\n      div\n        /* \"#utility.yul\":13132:13165   */\n      swap1\n      pop\n        /* \"#utility.yul\":13078:13171   */\n      swap2\n      swap1\n      pop\n      jump\t// out\n        /* \"#utility.yul\":13177:13284   */\n    tag_199:\n        /* \"#utility.yul\":13221:13229   */\n      0x00\n        /* \"#utility.yul\":13271:13276   */\n      dup3\n        /* \"#utility.yul\":13265:13269   */\n      dup3\n        /* \"#utility.yul\":13261:13277   */\n      shl\n        /* \"#utility.yul\":13240:13277   */\n      swap1\n      pop\n        /* \"#utility.yul\":13177:13284   */\n      swap3\n      swap2\n      pop\n      pop\n      jump\t// out\n        /* \"#utility.yul\":13290:13683   */\n    tag_200:\n        /* \"#utility.yul\":13359:13365   */\n      0x00\n        /* \"#utility.yul\":13409:13410   */\n      0x08\n        /* \"#utility.yul\":13397:13407   */\n      dup4\n        /* \"#utility.yul\":13393:13411   */\n      mul\n        /* \"#utility.yul\":13432:13529   */\n      tag_362\n        /* \"#utility.yul\":13462:13528   */\n      0xffffffffffffffffffffffffffffffffffffffffffffffffffffffffffffffff\n        /* \"#utility.yul\":13451:13460   */\n      dup3\n        /* \"#utility.yul\":13432:13529   */\n      tag_199\n      jump\t// in\n    tag_362:\n        /* \"#utility.yul\":13550:13589   */\n      tag_363\n        /* \"#utility.yul\":13580:13588   */\n      dup7\n        /* \"#utility.yul\":13569:13578   */\n      dup4\n        /* \"#utility.yul\":13550:13589   */\n      tag_199\n      jump\t// in\n    tag_363:\n        /* \"#utility.yul\":13538:13589   */\n      swap6\n      pop\n        /* \"#utility.yul\":13622:13626   */\n      dup1\n        /* \"#utility.yul\":13618:13627   */\n      not\n        /* \"#utility.yul\":13611:13616   */\n      dup5\n        /* \"#utility.yul\":13607:13628   */\n      and\n        /* \"#utility.yul\":13598:13628   */\n      swap4\n      pop\n        /* \"#utility.yul\":13671:13675   */\n      dup1\n        /* \"#utility.yul\":13661:13669   */\n      dup7\n        /* \"#utility.yul\":13657:13676   */\n      and\n        /* \"#utility.yul\":13650:13655   */\n      dup5\n        /* \"#utility.yul\":13647:13677   */\n      or\n        /* \"#utility.yul\":13637:13677   */\n      swap3\n      pop\n        /* \"#utility.yul\":13366:13683   */\n      pop\n      pop\n        /* \"#utility.yul\":13290:13683   */\n      swap4\n      swap3\n      pop\n      pop\n      pop\n      jump\t// out\n        /* \"#utility.yul\":13689:13749   */\n    tag_201:\n        /* \"#utility.yul\":13717:13720   */\n      0x00\n        /* \"#utility.yul\":13738:13743   */\n      dup2\n        /* \"#utility.yul\":13731:13743   */\n      swap1\n      pop\n        /* \"#utility.yul\":13689:13749   */\n      swap2\n      swap1\n      pop\n      jump\t// out\n        /* \"#utility.yul\":13755:13897   */\n    tag_202:\n        /* \"#utility.yul\":13805:13814   */\n      0x00\n        /* \"#utility.yul\":13838:13891   */\n      tag_366\n        /* \"#utility.yul\":13856:13890   */\n      tag_367\n        /* \"#utility.yul\":13865:13889   */\n      tag_368\n        /* \"#utility.yul\":13883:13888   */\n      dup5\n        /* \"#utility.yul\":13865:13889   */\n      tag_174\n      jump\t// in\n    tag_368:\n        /* \"#utility.yul\":13856:13890   */\n      tag_201\n      jump\t// in\n    tag_367:\n        /* \"#utility.yul\":13838:13891   */\n      tag_174\n      jump\t// in\n    tag_366:\n        /* \"#utility.yul\":13825:13891   */\n      swap1\n      pop\n        /* \"#utility.yul\":13755:13897   */\n      swap2\n      swap1\n      pop\n      jump\t// out\n        /* \"#utility.yul\":13903:13978   */\n    tag_203:\n        /* \"#utility.yul\":13946:13949   */\n      0x00\n        /* \"#utility.yul\":13967:13972   */\n      dup2\n        /* \"#utility.yul\":13960:13972   */\n      swap1\n      pop\n        /* \"#utility.yul\":13903:13978   */\n      swap2\n      swap1\n      pop\n      jump\t// out\n        /* \"#utility.yul\":13984:14253   */\n    tag_204:\n        /* \"#utility.yul\":14094:14133   */\n      tag_371\n        /* \"#utility.yul\":14125:14132   */\n      dup4\n        /* \"#utility.yul\":14094:14133   */\n      tag_202\n      jump\t// in\n    tag_371:\n        /* \"#utility.yul\":14155:14246   */\n      tag_372\n        /* \"#utility.yul\":14204:14245   */\n      tag_373\n        /* \"#utility.yul\":14228:14244   */\n      dup3\n        /* \"#utility.yul\":14204:14245   */\n      tag_203\n      jump\t// in\n    tag_373:\n        /* \"#utility.yul\":14196:14202   */\n      dup5\n        /* \"#utility.yul\":14189:14193   */\n      dup5\n        /* \"#utility.yul\":14183:14194   */\n      sload\n        /* \"#utility.yul\":14155:14246   */\n      tag_200\n      jump\t// in\n    tag_372:\n        /* \"#utility.yul\":14149:14153   */\n      dup3\n        /* \"#utility.yul\":14142:14247   */\n      sstore\n        /* \"#utility.yul\":14060:14253   */\n      pop\n        /* \"#utility.yul\":13984:14253   */\n      pop\n      pop\n      pop\n      jump\t// out\n        /* \"#utility.yul\":14259:14332   */\n    tag_205:\n        /* \"#utility.yul\":14304:14307   */\n      0x00\n        /* \"#utility.yul\":14259:14332   */\n      swap1\n      jump\t// out\n        /* \"#utility.yul\":14338:14527   */\n    tag_206:\n        /* \"#utility.yul\":14415:14447   */\n      tag_376\n      tag_205\n      jump\t// in\n    tag_376:\n        /* \"#utility.yul\":14456:14521   */\n      tag_377\n        /* \"#utility.yul\":14514:14520   */\n      dup2\n        /* \"#utility.yul\":14506:14512   */\n      dup5\n        /* \"#utility.yul\":14500:14504   */\n      dup5\n        /* \"#utility.yul\":14456:14521   */\n      tag_204\n      jump\t// in\n    tag_377:\n        /* \"#utility.yul\":14391:14527   */\n      pop\n        /* \"#utility.yul\":14338:14527   */\n      pop\n      pop\n      jump\t// out\n        /* \"#utility.yul\":14533:14719   */\n    tag_207:\n        /* \"#utility.yul\":14593:14713   */\n    tag_379:\n        /* \"#utility.yul\":14610:14613   */\n      dup2\n        /* \"#utility.yul\":14603:14608   */\n      dup2\n        /* \"#utility.yul\":14600:14614   */\n      lt\n        /* \"#utility.yul\":14593:14713   */\n      iszero\n      tag_381\n      jumpi\n        /* \"#utility.yul\":14664:14703   */\n      tag_382\n        /* \"#utility.yul\":14701:14702   */\n      0x00\n        /* \"#utility.yul\":14694:14699   */\n      dup3\n        /* \"#utility.yul\":14664:14703   */\n      tag_206\n      jump\t// in\n    tag_382:\n        /* \"#utility.yul\":14637:14638   */\n      0x01\n        /* \"#utility.yul\":14630:14635   */\n      dup2\n        /* \"#utility.yul\":14626:14639   */\n      add\n        /* \"#utility.yul\":14617:14639   */\n      swap1\n      pop\n        /* \"#utility.yul\":14593:14713   */\n      jump(tag_379)\n    tag_381:\n        /* \"#utility.yul\":14533:14719   */\n      pop\n      pop\n      jump\t// out\n        /* \"#utility.yul\":14725:15268   */\n    tag_208:\n        /* \"#utility.yul\":14826:14828   */\n      0x1f\n        /* \"#utility.yul\":14821:14824   */\n      dup3\n        /* \"#utility.yul\":14818:14829   */\n      gt\n        /* \"#utility.yul\":14815:15261   */\n      iszero\n      tag_384\n      jumpi\n        /* \"#utility.yul\":14860:14898   */\n      tag_385\n        /* \"#utility.yul\":14892:14897   */\n      dup2\n        /* \"#utility.yul\":14860:14898   */\n      tag_197\n      jump\t// in\n    tag_385:\n        /* \"#utility.yul\":14944:14973   */\n      tag_386\n        /* \"#utility.yul\":14962:14972   */\n      dup5\n        /* \"#utility.yul\":14944:14973   */\n      tag_198\n      jump\t// in\n    tag_386:\n        /* \"#utility.yul\":14934:14942   */\n      dup2\n        /* \"#utility.yul\":14930:14974   */\n      add\n        /* \"#utility.yul\":15127:15129   */\n      0x20\n        /* \"#utility.yul\":15115:15125   */\n      dup6\n        /* \"#utility.yul\":15112:15130   */\n      lt\n        /* \"#utility.yul\":15109:15158   */\n      iszero\n      tag_387\n      jumpi\n        /* \"#utility.yul\":15148:15156   */\n      dup2\n        /* \"#utility.yul\":15133:15156   */\n      swap1\n      pop\n        /* \"#utility.yul\":15109:15158   */\n    tag_387:\n        /* \"#utility.yul\":15171:15251   */\n      tag_388\n        /* \"#utility.yul\":15227:15249   */\n      tag_389\n        /* \"#utility.yul\":15245:15248   */\n      dup6\n        /* \"#utility.yul\":15227:15249   */\n      tag_198\n      jump\t// in\n    tag_389:\n        /* \"#utility.yul\":15217:15225   */\n      dup4\n        /* \"#utility.yul\":15213:15250   */\n      add\n        /* \"#utility.yul\":15200:15211   */\n      dup3\n        /* \"#utility.yul\":15171:15251   */\n      tag_207\n      jump\t// in\n    tag_388:\n        /* \"#utility.yul\":14830:15261   */\n      pop\n      pop\n        /* \"#utility.yul\":14815:15261   */\n    tag_384:\n        /* \"#utility.yul\":14725:15268   */\n      pop\n      pop\n      pop\n      jump\t// out\n        /* \"#utility.yul\":15274:15391   */\n    tag_209:\n        /* \"#utility.yul\":15328:15336   */\n      0x00\n        /* \"#utility.yul\":15378:15383   */\n      dup3\n        /* \"#utility.yul\":15372:15376   */\n      dup3\n        /* \"#utility.yul\":15368:15384   */\n      shr\n        /* \"#utility.yul\":15347:15384   */\n      swap1\n      pop\n        /* \"#utility.yul\":15274:15391   */\n      swap3\n      swap2\n      pop\n      pop\n      jump\t// out\n        /* \"#utility.yul\":15397:15566   */\n    tag_210:\n        /* \"#utility.yul\":15441:15447   */\n      0x00\n        /* \"#utility.yul\":15474:15525   */\n      tag_392\n        /* \"#utility.yul\":15522:15523   */\n      0x00\n        /* \"#utility.yul\":15518:15524   */\n      not\n        /* \"#utility.yul\":15510:15515   */\n      dup5\n        /* \"#utility.yul\":15507:15508   */\n      0x08\n        /* \"#utility.yul\":15503:15516   */\n      mul\n        /* \"#utility.yul\":15474:15525   */\n      tag_209\n      jump\t// in\n    tag_392:\n        /* \"#utility.yul\":15470:15526   */\n      not\n        /* \"#utility.yul\":15555:15559   */\n      dup1\n        /* \"#utility.yul\":15549:15553   */\n      dup4\n        /* \"#utility.yul\":15545:15560   */\n      and\n        /* \"#utility.yul\":15535:15560   */\n      swap2\n      pop\n        /* \"#utility.yul\":15448:15566   */\n      pop\n        /* \"#utility.yul\":15397:15566   */\n      swap3\n      swap2\n      pop\n      pop\n      jump\t// out\n        /* \"#utility.yul\":15571:15866   */\n    tag_211:\n        /* \"#utility.yul\":15647:15651   */\n      0x00\n        /* \"#utility.yul\":15793:15822   */\n      tag_394\n        /* \"#utility.yul\":15818:15821   */\n      dup4\n        /* \"#utility.yul\":15812:15816   */\n      dup4\n        /* \"#utility.yul\":15793:15822   */\n      tag_210\n      jump\t// in\n    tag_394:\n        /* \"#utility.yul\":15785:15822   */\n      swap2\n      pop\n        /* \"#utility.yul\":15855:15858   */\n      dup3\n        /* \"#utility.yul\":15852:15853   */\n      0x02\n        /* \"#utility.yul\":15848:15859   */\n      mul\n        /* \"#utility.yul\":15842:15846   */\n      dup3\n        /* \"#utility.yul\":15839:15860   */\n      or\n        /* \"#utility.yul\":15831:15860   */\n      swap1\n      pop\n        /* \"#utility.yul\":15571:15866   */\n      swap3\n      swap2\n      pop\n      pop\n      jump\t// out\n        /* \"#utility.yul\":15871:17266   */\n    tag_94:\n        /* \"#utility.yul\":15988:16025   */\n      tag_396\n        /* \"#utility.yul\":16021:16024   */\n      dup3\n        /* \"#utility.yul\":15988:16025   */\n      tag_188\n      jump\t// in\n    tag_396:\n        /* \"#utility.yul\":16090:16108   */\n      0xffffffffffffffff\n        /* \"#utility.yul\":16082:16088   */\n      dup2\n        /* \"#utility.yul\":16079:16109   */\n      gt\n        /* \"#utility.yul\":16076:16132   */\n      iszero\n      tag_397\n      jumpi\n        /* \"#utility.yul\":16112:16130   */\n      tag_398\n      tag_181\n      jump\t// in\n    tag_398:\n        /* \"#utility.yul\":16076:16132   */\n    tag_397:\n        /* \"#utility.yul\":16156:16194   */\n      tag_399\n        /* \"#utility.yul\":16188:16192   */\n      dup3\n        /* \"#utility.yul\":16182:16193   */\n      sload\n        /* \"#utility.yul\":16156:16194   */\n      tag_98\n      jump\t// in\n    tag_399:\n        /* \"#utility.yul\":16241:16308   */\n      tag_400\n        /* \"#utility.yul\":16301:16307   */\n      dup3\n        /* \"#utility.yul\":16293:16299   */\n      dup3\n        /* \"#utility.yul\":16287:16291   */\n      dup6\n        /* \"#utility.yul\":16241:16308   */\n      tag_208\n      jump\t// in\n    tag_400:\n        /* \"#utility.yul\":16335:16336   */\n      0x00\n        /* \"#utility.yul\":16359:16363   */\n      0x20\n        /* \"#utility.yul\":16346:16363   */\n      swap1\n      pop\n        /* \"#utility.yul\":16391:16393   */\n      0x1f\n        /* \"#utility.yul\":16383:16389   */\n      dup4\n        /* \"#utility.yul\":16380:16394   */\n      gt\n        /* \"#utility.yul\":16408:16409   */\n      0x01\n        /* \"#utility.yul\":16403:17021   */\n      dup2\n      eq\n      tag_402\n      jumpi\n        /* \"#utility.yul\":17065:17066   */\n      0x00\n        /* \"#utility.yul\":17082:17088   */\n      dup5\n        /* \"#utility.yul\":17079:17156   */\n      iszero\n      tag_403\n      jumpi\n        /* \"#utility.yul\":17131:17140   */\n      dup3\n        /* \"#utility.yul\":17126:17129   */\n      dup8\n        /* \"#utility.yul\":17122:17141   */\n      add\n        /* \"#utility.yul\":17116:17142   */\n      mload\n        /* \"#utility.yul\":17107:17142   */\n      swap1\n      pop\n        /* \"#utility.yul\":17079:17156   */\n    tag_403:\n        /* \"#utility.yul\":17182:17249   */\n      tag_404\n        /* \"#utility.yul\":17242:17248   */\n      dup6\n        /* \"#utility.yul\":17235:17240   */\n      dup3\n        /* \"#utility.yul\":17182:17249   */\n      tag_211\n      jump\t// in\n    tag_404:\n        /* \"#utility.yul\":17176:17180   */\n      dup7\n        /* \"#utility.yul\":17169:17250   */\n      sstore\n        /* \"#utility.yul\":17038:17260   */\n      pop\n        /* \"#utility.yul\":16373:17260   */\n      jump(tag_401)\n        /* \"#utility.yul\":16403:17021   */\n    tag_402:\n        /* \"#utility.yul\":16455:16459   */\n      0x1f\n        /* \"#utility.yul\":16451:16460   */\n      not\n        /* \"#utility.yul\":16443:16449   */\n      dup5\n        /* \"#utility.yul\":16439:16461   */\n      and\n        /* \"#utility.yul\":16489:16526   */\n      tag_405\n        /* \"#utility.yul\":16521:16525   */\n      dup7\n        /* \"#utility.yul\":16489:16526   */\n      tag_197\n      jump\t// in\n    tag_405:\n        /* \"#utility.yul\":16548:16549   */\n      0x00\n        /* \"#utility.yul\":16562:16770   */\n    tag_406:\n        /* \"#utility.yul\":16576:16583   */\n      dup3\n        /* \"#utility.yul\":16573:16574   */\n      dup2\n        /* \"#utility.yul\":16570:16584   */\n      lt\n        /* \"#utility.yul\":16562:16770   */\n      iszero\n      tag_408\n      jumpi\n        /* \"#utility.yul\":16655:16664   */\n      dup5\n        /* \"#utility.yul\":16650:16653   */\n      dup10\n        /* \"#utility.yul\":16646:16665   */\n      add\n        /* \"#utility.yul\":16640:16666   */\n      mload\n        /* \"#utility.yul\":16632:16638   */\n      dup3\n        /* \"#utility.yul\":16625:16667   */\n      sstore\n        /* \"#utility.yul\":16706:16707   */\n      0x01\n        /* \"#utility.yul\":16698:16704   */\n      dup3\n        /* \"#utility.yul\":16694:16708   */\n      add\n        /* \"#utility.yul\":16684:16708   */\n      swap2\n      pop\n        /* \"#utility.yul\":16753:16755   */\n      0x20\n        /* \"#utility.yul\":16742:16751   */\n      dup6\n        /* \"#utility.yul\":16738:16756   */\n      add\n        /* \"#utility.yul\":16725:16756   */\n      swap5\n      pop\n        /* \"#utility.yul\":16599:16603   */\n      0x20\n        /* \"#utility.yul\":16596:16597   */\n      dup2\n        /* \"#utility.yul\":16592:16604   */\n      add\n        /* \"#utility.yul\":16587:16604   */\n      swap1\n      pop\n        /* \"#utility.yul\":16562:16770   */\n      jump(tag_406)\n    tag_408:\n        /* \"#utility.yul\":16798:16804   */\n      dup7\n        /* \"#utility.yul\":16789:16796   */\n      dup4\n        /* \"#utility.yul\":16786:16805   */\n      lt\n        /* \"#utility.yul\":16783:16962   */\n      iszero\n      tag_409\n      jumpi\n        /* \"#utility.yul\":16856:16865   */\n      dup5\n        /* \"#utility.yul\":16851:16854   */\n      dup10\n        /* \"#utility.yul\":16847:16866   */\n      add\n        /* \"#utility.yul\":16841:16867   */\n      mload\n        /* \"#utility.yul\":16899:16947   */\n      tag_410\n        /* \"#utility.yul\":16941:16945   */\n      0x1f\n        /* \"#utility.yul\":16933:16939   */\n      dup10\n        /* \"#utility.yul\":16929:16946   */\n      and\n        /* \"#utility.yul\":16918:16927   */\n      dup3\n        /* \"#utility.yul\":16899:16947   */\n      tag_210\n      jump\t// in\n    tag_410:\n        /* \"#utility.yul\":16891:16897   */\n      dup4\n        /* \"#utility.yul\":16884:16948   */\n      sstore\n        /* \"#utility.yul\":16806:16962   */\n      pop\n        /* \"#utility.yul\":16783:16962   */\n    tag_409:\n        /* \"#utility.yul\":17008:17009   */\n      0x01\n        /* \"#utility.yul\":17004:17005   */\n      0x02\n        /* \"#utility.yul\":16996:17002   */\n      dup9\n        /* \"#utility.yul\":16992:17006   */\n      mul\n        /* \"#utility.yul\":16988:17010   */\n      add\n        /* \"#utility.yul\":16982:16986   */\n      dup9\n        /* \"#utility.yul\":16975:17011   */\n      sstore\n        /* \"#utility.yul\":16410:17021   */\n      pop\n      pop\n      pop\n        /* \"#utility.yul\":16373:17260   */\n    tag_401:\n      pop\n        /* \"#utility.yul\":15963:17266   */\n      pop\n      pop\n      pop\n        /* \"#utility.yul\":15871:17266   */\n      pop\n      pop\n      jump\t// out\n        /* \"#utility.yul\":17272:17714   */\n    tag_110:\n        /* \"#utility.yul\":17421:17425   */\n      0x00\n        /* \"#utility.yul\":17459:17461   */\n      0x60\n        /* \"#utility.yul\":17448:17457   */\n      dup3\n        /* \"#utility.yul\":17444:17462   */\n      add\n        /* \"#utility.yul\":17436:17462   */\n      swap1\n      pop\n        /* \"#utility.yul\":17472:17543   */\n      tag_412\n        /* \"#utility.yul\":17540:17541   */\n      0x00\n        /* \"#utility.yul\":17529:17538   */\n      dup4\n        /* \"#utility.yul\":17525:17542   */\n      add\n        /* \"#utility.yul\":17516:17522   */\n      dup7\n        /* \"#utility.yul\":17472:17543   */\n      tag_192\n      jump\t// in\n    tag_412:\n        /* \"#utility.yul\":17553:17625   */\n      tag_413\n        /* \"#utility.yul\":17621:17623   */\n      0x20\n        /* \"#utility.yul\":17610:17619   */\n      dup4\n        /* \"#utility.yul\":17606:17624   */\n      add\n        /* \"#utility.yul\":17597:17603   */\n      dup6\n        /* \"#utility.yul\":17553:17625   */\n      tag_192\n      jump\t// in\n    tag_413:\n        /* \"#utility.yul\":17635:17707   */\n      tag_414\n        /* \"#utility.yul\":17703:17705   */\n      0x40\n        /* \"#utility.yul\":17692:17701   */\n      dup4\n        /* \"#utility.yul\":17688:17706   */\n      add\n        /* \"#utility.yul\":17679:17685   */\n      dup5\n        /* \"#utility.yul\":17635:17707   */\n      tag_175\n      jump\t// in\n    tag_414:\n        /* \"#utility.yul\":17272:17714   */\n      swap5\n      swap4\n      pop\n      pop\n      pop\n      pop\n      jump\t// out\n        /* \"#utility.yul\":17720:17810   */\n    tag_212:\n        /* \"#utility.yul\":17754:17761   */\n      0x00\n        /* \"#utility.yul\":17797:17802   */\n      dup2\n        /* \"#utility.yul\":17790:17803   */\n      iszero\n        /* \"#utility.yul\":17783:17804   */\n      iszero\n        /* \"#utility.yul\":17772:17804   */\n      swap1\n      pop\n        /* \"#utility.yul\":17720:17810   */\n      swap2\n      swap1\n      pop\n      jump\t// out\n        /* \"#utility.yul\":17816:17932   */\n    tag_213:\n        /* \"#utility.yul\":17886:17907   */\n      tag_417\n        /* \"#utility.yul\":17901:17906   */\n      dup2\n        /* \"#utility.yul\":17886:17907   */\n      tag_212\n      jump\t// in\n    tag_417:\n        /* \"#utility.yul\":17879:17884   */\n      dup2\n        /* \"#utility.yul\":17876:17908   */\n      eq\n        /* \"#utility.yul\":17866:17926   */\n      tag_418\n      jumpi\n        /* \"#utility.yul\":17922:17923   */\n      0x00\n        /* \"#utility.yul\":17919:17920   */\n      dup1\n        /* \"#utility.yul\":17912:17924   */\n      revert\n        /* \"#utility.yul\":17866:17926   */\n    tag_418:\n        /* \"#utility.yul\":17816:17932   */\n      pop\n      jump\t// out\n        /* \"#utility.yul\":17938:18075   */\n    tag_214:\n        /* \"#utility.yul\":17992:17997   */\n      0x00\n        /* \"#utility.yul\":18023:18029   */\n      dup2\n        /* \"#utility.yul\":18017:18030   */\n      mload\n        /* \"#utility.yul\":18008:18030   */\n      swap1\n      pop\n        /* \"#utility.yul\":18039:18069   */\n      tag_420\n        /* \"#utility.yul\":18063:18068   */\n      dup2\n        /* \"#utility.yul\":18039:18069   */\n      tag_213\n      jump\t// in\n    tag_420:\n        /* \"#utility.yul\":17938:18075   */\n      swap3\n      swap2\n      pop\n      pop\n      jump\t// out\n        /* \"#utility.yul\":18081:18426   */\n    tag_114:\n        /* \"#utility.yul\":18148:18154   */\n      0x00\n        /* \"#utility.yul\":18197:18199   */\n      0x20\n        /* \"#utility.yul\":18185:18194   */\n      dup3\n        /* \"#utility.yul\":18176:18183   */\n      dup5\n        /* \"#utility.yul\":18172:18195   */\n      sub\n        /* \"#utility.yul\":18168:18200   */\n      slt\n        /* \"#utility.yul\":18165:18284   */\n      iszero\n      tag_422\n      jumpi\n        /* \"#utility.yul\":18203:18282   */\n      tag_423\n      tag_168\n      jump\t// in\n    tag_423:\n        /* \"#utility.yul\":18165:18284   */\n    tag_422:\n        /* \"#utility.yul\":18323:18324   */\n      0x00\n        /* \"#utility.yul\":18348:18409   */\n      tag_424\n        /* \"#utility.yul\":18401:18408   */\n      dup5\n        /* \"#utility.yul\":18392:18398   */\n      dup3\n        /* \"#utility.yul\":18381:18390   */\n      dup6\n        /* \"#utility.yul\":18377:18399   */\n      add\n        /* \"#utility.yul\":18348:18409   */\n      tag_214\n      jump\t// in\n    tag_424:\n        /* \"#utility.yul\":18338:18409   */\n      swap2\n      pop\n        /* \"#utility.yul\":18294:18419   */\n      pop\n        /* \"#utility.yul\":18081:18426   */\n      swap3\n      swap2\n      pop\n      pop\n      jump\t// out\n        /* \"#utility.yul\":18432:18764   */\n    tag_121:\n        /* \"#utility.yul\":18553:18557   */\n      0x00\n        /* \"#utility.yul\":18591:18593   */\n      0x40\n        /* \"#utility.yul\":18580:18589   */\n      dup3\n        /* \"#utility.yul\":18576:18594   */\n      add\n        /* \"#utility.yul\":18568:18594   */\n      swap1\n      pop\n        /* \"#utility.yul\":18604:18675   */\n      tag_426\n        /* \"#utility.yul\":18672:18673   */\n      0x00\n        /* \"#utility.yul\":18661:18670   */\n      dup4\n        /* \"#utility.yul\":18657:18674   */\n      add\n        /* \"#utility.yul\":18648:18654   */\n      dup6\n        /* \"#utility.yul\":18604:18675   */\n      tag_192\n      jump\t// in\n    tag_426:\n        /* \"#utility.yul\":18685:18757   */\n      tag_427\n        /* \"#utility.yul\":18753:18755   */\n      0x20\n        /* \"#utility.yul\":18742:18751   */\n      dup4\n        /* \"#utility.yul\":18738:18756   */\n      add\n        /* \"#utility.yul\":18729:18735   */\n      dup5\n        /* \"#utility.yul\":18685:18757   */\n      tag_175\n      jump\t// in\n    tag_427:\n        /* \"#utility.yul\":18432:18764   */\n      swap4\n      swap3\n      pop\n      pop\n      pop\n      jump\t// out\n\n    auxdata: 0xa2646970667358221220b52cb36ab509a72eb118687d78c6e5544d55fde87fb93ffe695fea319f6f526a64736f6c634300081a0033\n}\n",
				"bytecode": {
					"linkReferences": {},
					"object": "60c060405234801561000f575f80fd5b50604051611fd1380380611fd1833981810160405281019061003191906100fd565b3373ffffffffffffffffffffffffffffffffffffffff1660808173ffffffffffffffffffffffffffffffffffffffff16815250508073ffffffffffffffffffffffffffffffffffffffff1660a08173ffffffffffffffffffffffffffffffffffffffff168152505050610128565b5f80fd5b5f73ffffffffffffffffffffffffffffffffffffffff82169050919050565b5f6100cc826100a3565b9050919050565b6100dc816100c2565b81146100e6575f80fd5b50565b5f815190506100f7816100d3565b92915050565b5f602082840312156101125761011161009f565b5b5f61011f848285016100e9565b91505092915050565b60805160a051611e5761017a5f395f81816107c00152818161099401528181610da9015261127601525f818161032601528181610454015281816106c301528181610c4a0152610f3c0152611e575ff3fe608060405234801561000f575f80fd5b50600436106100f3575f3560e01c806369524d311161009557806397b1a8b71161006457806397b1a8b714610241578063d107a5cc14610276578063d62b58ca14610292578063eb5a662e146102ae576100f3565b806369524d31146101e357806369527363146101ff578063733da7c81461021b5780637feab38014610237576100f3565b80634fe19125116100d15780634fe191251461015f5780635ed04c431461017b57806364502cae146101ab57806368b377ca146101c7576100f3565b806317056d94146100f757806319ec73e014610127578063459ccec714610143575b5f80fd5b610111600480360381019061010c9190611475565b6102de565b60405161011e91906114b8565b60405180910390f35b610141600480360381019061013c91906114fb565b610324565b005b61015d60048036038101906101589190611475565b610452565b005b61017960048036038101906101749190611675565b61055d565b005b610195600480360381019061019091906116eb565b6105d0565b6040516101a29190611792565b60405180910390f35b6101c560048036038101906101c091906114fb565b6106c1565b005b6101e160048036038101906101dc91906117b2565b61079c565b005b6101fd60048036038101906101f891906116eb565b6108e9565b005b6102196004803603810190610214919061183a565b610ab0565b005b610235600480360381019061023091906114fb565b610c48565b005b61023f610d23565b005b61025b600480360381019061025691906116eb565b610ec1565b60405161026d969594939291906118ee565b60405180910390f35b610290600480360381019061028b91906114fb565b610f3a565b005b6102ac60048036038101906102a7919061194d565b611068565b005b6102c860048036038101906102c39190611475565b611352565b6040516102d591906114b8565b60405180910390f35b5f60015f8373ffffffffffffffffffffffffffffffffffffffff1673ffffffffffffffffffffffffffffffffffffffff1681526020019081526020015f20549050919050565b7f000000000000000000000000000000000000000000000000000000000000000073ffffffffffffffffffffffffffffffffffffffff163373ffffffffffffffffffffffffffffffffffffffff16146103a9576040517fc31b2cfe00000000000000000000000000000000000000000000000000000000815260040160405180910390fd5b805f808473ffffffffffffffffffffffffffffffffffffffff1673ffffffffffffffffffffffffffffffffffffffff1681526020019081526020015f205f8282546103f491906119e6565b925050819055508060015f8473ffffffffffffffffffffffffffffffffffffffff1673ffffffffffffffffffffffffffffffffffffffff1681526020019081526020015f205f8282546104479190611a19565b925050819055505050565b7f000000000000000000000000000000000000000000000000000000000000000073ffffffffffffffffffffffffffffffffffffffff163373ffffffffffffffffffffffffffffffffffffffff16146104d7576040517fc31b2cfe00000000000000000000000000000000000000000000000000000000815260040160405180910390fd5b5f805f8373ffffffffffffffffffffffffffffffffffffffff1673ffffffffffffffffffffffffffffffffffffffff1681526020019081526020015f20819055505f60015f8373ffffffffffffffffffffffffffffffffffffffff1673ffffffffffffffffffffffffffffffffffffffff1681526020019081526020015f208190555050565b5f60028360405161056e9190611a86565b9081526020016040518091039020905081816008015f3373ffffffffffffffffffffffffffffffffffffffff1673ffffffffffffffffffffffffffffffffffffffff1681526020019081526020015f2090816105ca9190611c96565b50505050565b60605f6002836040516105e39190611a86565b90815260200160405180910390209050806008015f3373ffffffffffffffffffffffffffffffffffffffff1673ffffffffffffffffffffffffffffffffffffffff1681526020019081526020015f20805461063d90611ac9565b80601f016020809104026020016040519081016040528092919081815260200182805461066990611ac9565b80156106b45780601f1061068b576101008083540402835291602001916106b4565b820191905f5260205f20905b81548152906001019060200180831161069757829003601f168201915b5050505050915050919050565b7f000000000000000000000000000000000000000000000000000000000000000073ffffffffffffffffffffffffffffffffffffffff163373ffffffffffffffffffffffffffffffffffffffff1614610746576040517fc31b2cfe00000000000000000000000000000000000000000000000000000000815260040160405180910390fd5b805f808473ffffffffffffffffffffffffffffffffffffffff1673ffffffffffffffffffffffffffffffffffffffff1681526020019081526020015f205f8282546107919190611a19565b925050819055505050565b5f6002846040516107ad9190611a86565b908152602001604051809103902090505f7f000000000000000000000000000000000000000000000000000000000000000073ffffffffffffffffffffffffffffffffffffffff166323b872dd3330876040518463ffffffff1660e01b815260040161081b93929190611d65565b6020604051808303815f875af1158015610837573d5f803e3d5ffd5b505050506040513d601f19601f8201168201806040525081019061085b9190611dcf565b905080610894576040517f81b714be00000000000000000000000000000000000000000000000000000000815260040160405180910390fd5b83826006015f3373ffffffffffffffffffffffffffffffffffffffff1673ffffffffffffffffffffffffffffffffffffffff1681526020019081526020015f20819055506108e28584611397565b5050505050565b5f6002826040516108fa9190611a86565b908152602001604051809103902090505f816006015f3373ffffffffffffffffffffffffffffffffffffffff1673ffffffffffffffffffffffffffffffffffffffff1681526020019081526020015f205490505f826006015f3373ffffffffffffffffffffffffffffffffffffffff1673ffffffffffffffffffffffffffffffffffffffff1681526020019081526020015f20819055505f7f000000000000000000000000000000000000000000000000000000000000000073ffffffffffffffffffffffffffffffffffffffff1663a9059cbb33846040518363ffffffff1660e01b81526004016109ed929190611dfa565b6020604051808303815f875af1158015610a09573d5f803e3d5ffd5b505050506040513d601f19601f82011682018060405250810190610a2d9190611dcf565b905080610aaa5781836006015f3373ffffffffffffffffffffffffffffffffffffffff1673ffffffffffffffffffffffffffffffffffffffff1681526020019081526020015f20819055506040517f81b714be00000000000000000000000000000000000000000000000000000000815260040160405180910390fd5b50505050565b5f85111580610abf5750838410155b80610aca57505f8111155b80610ad457508482115b15610b0b576040517f0ecf0f1100000000000000000000000000000000000000000000000000000000815260040160405180910390fd5b5f600287604051610b1c9190611a86565b9081526020016040518091039020905033815f015f6101000a81548173ffffffffffffffffffffffffffffffffffffffff021916908373ffffffffffffffffffffffffffffffffffffffff160217905550858160010181905550848160020181905550838160030181905550818160050181905550828160040181905550855f803373ffffffffffffffffffffffffffffffffffffffff1673ffffffffffffffffffffffffffffffffffffffff1681526020019081526020015f205f828254610be59190611a19565b925050819055508560015f3373ffffffffffffffffffffffffffffffffffffffff1673ffffffffffffffffffffffffffffffffffffffff1681526020019081526020015f205f828254610c3891906119e6565b9250508190555050505050505050565b7f000000000000000000000000000000000000000000000000000000000000000073ffffffffffffffffffffffffffffffffffffffff163373ffffffffffffffffffffffffffffffffffffffff1614610ccd576040517fc31b2cfe00000000000000000000000000000000000000000000000000000000815260040160405180910390fd5b805f808473ffffffffffffffffffffffffffffffffffffffff1673ffffffffffffffffffffffffffffffffffffffff1681526020019081526020015f205f828254610d1891906119e6565b925050819055505050565b5f60035f3373ffffffffffffffffffffffffffffffffffffffff1673ffffffffffffffffffffffffffffffffffffffff1681526020019081526020015f205490505f60035f3373ffffffffffffffffffffffffffffffffffffffff1673ffffffffffffffffffffffffffffffffffffffff1681526020019081526020015f20819055505f7f000000000000000000000000000000000000000000000000000000000000000073ffffffffffffffffffffffffffffffffffffffff1663a9059cbb33846040518363ffffffff1660e01b8152600401610e02929190611dfa565b6020604051808303815f875af1158015610e1e573d5f803e3d5ffd5b505050506040513d601f19601f82011682018060405250810190610e429190611dcf565b905080610ebd578160035f3373ffffffffffffffffffffffffffffffffffffffff1673ffffffffffffffffffffffffffffffffffffffff1681526020019081526020015f20819055506040517f81b714be00000000000000000000000000000000000000000000000000000000815260040160405180910390fd5b5050565b5f805f805f805f600288604051610ed89190611a86565b90815260200160405180910390209050805f015f9054906101000a900473ffffffffffffffffffffffffffffffffffffffff16816001015482600201548360030154846005015485600401549650965096509650965096505091939550919395565b7f000000000000000000000000000000000000000000000000000000000000000073ffffffffffffffffffffffffffffffffffffffff163373ffffffffffffffffffffffffffffffffffffffff1614610fbf576040517fc31b2cfe00000000000000000000000000000000000000000000000000000000815260040160405180910390fd5b805f808473ffffffffffffffffffffffffffffffffffffffff1673ffffffffffffffffffffffffffffffffffffffff1681526020019081526020015f205f82825461100a9190611a19565b925050819055508060015f8473ffffffffffffffffffffffffffffffffffffffff1673ffffffffffffffffffffffffffffffffffffffff1681526020019081526020015f205f82825461105d91906119e6565b925050819055505050565b5f6002846040516110799190611a86565b908152602001604051809103902090505f816006015f3373ffffffffffffffffffffffffffffffffffffffff1673ffffffffffffffffffffffffffffffffffffffff1681526020019081526020015f205490505f6002866040516110dd9190611a86565b90815260200160405180910390206006015f3373ffffffffffffffffffffffffffffffffffffffff1673ffffffffffffffffffffffffffffffffffffffff1681526020019081526020015f2081905550828161113991906119e6565b60035f845f015f9054906101000a900473ffffffffffffffffffffffffffffffffffffffff1673ffffffffffffffffffffffffffffffffffffffff1673ffffffffffffffffffffffffffffffffffffffff1681526020019081526020015f205f8282546111a691906119e6565b92505081905550835f80845f015f9054906101000a900473ffffffffffffffffffffffffffffffffffffffff1673ffffffffffffffffffffffffffffffffffffffff1673ffffffffffffffffffffffffffffffffffffffff1681526020019081526020015f205f82825461121a9190611a19565b92505081905550835f803373ffffffffffffffffffffffffffffffffffffffff1673ffffffffffffffffffffffffffffffffffffffff1681526020019081526020015f205f82825461126c91906119e6565b925050819055505f7f000000000000000000000000000000000000000000000000000000000000000073ffffffffffffffffffffffffffffffffffffffff166323b872dd3330876040518463ffffffff1660e01b81526004016112d193929190611d65565b6020604051808303815f875af11580156112ed573d5f803e3d5ffd5b505050506040513d601f19601f820116820180604052508101906113119190611dcf565b90508061134a576040517f81b714be00000000000000000000000000000000000000000000000000000000815260040160405180910390fd5b505050505050565b5f805f8373ffffffffffffffffffffffffffffffffffffffff1673ffffffffffffffffffffffffffffffffffffffff1681526020019081526020015f20549050919050565b5f6002836040516113a89190611a86565b9081526020016040518091039020905081816007015f3373ffffffffffffffffffffffffffffffffffffffff1673ffffffffffffffffffffffffffffffffffffffff1681526020019081526020015f2090816114049190611c96565b50505050565b5f604051905090565b5f80fd5b5f80fd5b5f73ffffffffffffffffffffffffffffffffffffffff82169050919050565b5f6114448261141b565b9050919050565b6114548161143a565b811461145e575f80fd5b50565b5f8135905061146f8161144b565b92915050565b5f6020828403121561148a57611489611413565b5b5f61149784828501611461565b91505092915050565b5f819050919050565b6114b2816114a0565b82525050565b5f6020820190506114cb5f8301846114a9565b92915050565b6114da816114a0565b81146114e4575f80fd5b50565b5f813590506114f5816114d1565b92915050565b5f806040838503121561151157611510611413565b5b5f61151e85828601611461565b925050602061152f858286016114e7565b9150509250929050565b5f80fd5b5f80fd5b5f601f19601f8301169050919050565b7f4e487b71000000000000000000000000000000000000000000000000000000005f52604160045260245ffd5b61158782611541565b810181811067ffffffffffffffff821117156115a6576115a5611551565b5b80604052505050565b5f6115b861140a565b90506115c4828261157e565b919050565b5f67ffffffffffffffff8211156115e3576115e2611551565b5b6115ec82611541565b9050602081019050919050565b828183375f83830152505050565b5f611619611614846115c9565b6115af565b9050828152602081018484840111156116355761163461153d565b5b6116408482856115f9565b509392505050565b5f82601f83011261165c5761165b611539565b5b813561166c848260208601611607565b91505092915050565b5f806040838503121561168b5761168a611413565b5b5f83013567ffffffffffffffff8111156116a8576116a7611417565b5b6116b485828601611648565b925050602083013567ffffffffffffffff8111156116d5576116d4611417565b5b6116e185828601611648565b9150509250929050565b5f60208284031215611700576116ff611413565b5b5f82013567ffffffffffffffff81111561171d5761171c611417565b5b61172984828501611648565b91505092915050565b5f81519050919050565b5f82825260208201905092915050565b8281835e5f83830152505050565b5f61176482611732565b61176e818561173c565b935061177e81856020860161174c565b61178781611541565b840191505092915050565b5f6020820190508181035f8301526117aa818461175a565b905092915050565b5f805f606084860312156117c9576117c8611413565b5b5f84013567ffffffffffffffff8111156117e6576117e5611417565b5b6117f286828701611648565b9350506020611803868287016114e7565b925050604084013567ffffffffffffffff81111561182457611823611417565b5b61183086828701611648565b9150509250925092565b5f805f805f8060c0878903121561185457611853611413565b5b5f87013567ffffffffffffffff81111561187157611870611417565b5b61187d89828a01611648565b965050602061188e89828a016114e7565b955050604061189f89828a016114e7565b94505060606118b089828a016114e7565b93505060806118c189828a016114e7565b92505060a06118d289828a016114e7565b9150509295509295509295565b6118e88161143a565b82525050565b5f60c0820190506119015f8301896118df565b61190e60208301886114a9565b61191b60408301876114a9565b61192860608301866114a9565b61193560808301856114a9565b61194260a08301846114a9565b979650505050505050565b5f805f6060848603121561196457611963611413565b5b5f84013567ffffffffffffffff81111561198157611980611417565b5b61198d86828701611648565b935050602061199e868287016114e7565b92505060406119af868287016114e7565b9150509250925092565b7f4e487b71000000000000000000000000000000000000000000000000000000005f52601160045260245ffd5b5f6119f0826114a0565b91506119fb836114a0565b9250828201905080821115611a1357611a126119b9565b5b92915050565b5f611a23826114a0565b9150611a2e836114a0565b9250828203905081811115611a4657611a456119b9565b5b92915050565b5f81905092915050565b5f611a6082611732565b611a6a8185611a4c565b9350611a7a81856020860161174c565b80840191505092915050565b5f611a918284611a56565b915081905092915050565b7f4e487b71000000000000000000000000000000000000000000000000000000005f52602260045260245ffd5b5f6002820490506001821680611ae057607f821691505b602082108103611af357611af2611a9c565b5b50919050565b5f819050815f5260205f209050919050565b5f6020601f8301049050919050565b5f82821b905092915050565b5f60088302611b557fffffffffffffffffffffffffffffffffffffffffffffffffffffffffffffffff82611b1a565b611b5f8683611b1a565b95508019841693508086168417925050509392505050565b5f819050919050565b5f611b9a611b95611b90846114a0565b611b77565b6114a0565b9050919050565b5f819050919050565b611bb383611b80565b611bc7611bbf82611ba1565b848454611b26565b825550505050565b5f90565b611bdb611bcf565b611be6818484611baa565b505050565b5b81811015611c0957611bfe5f82611bd3565b600181019050611bec565b5050565b601f821115611c4e57611c1f81611af9565b611c2884611b0b565b81016020851015611c37578190505b611c4b611c4385611b0b565b830182611beb565b50505b505050565b5f82821c905092915050565b5f611c6e5f1984600802611c53565b1980831691505092915050565b5f611c868383611c5f565b9150826002028217905092915050565b611c9f82611732565b67ffffffffffffffff811115611cb857611cb7611551565b5b611cc28254611ac9565b611ccd828285611c0d565b5f60209050601f831160018114611cfe575f8415611cec578287015190505b611cf68582611c7b565b865550611d5d565b601f198416611d0c86611af9565b5f5b82811015611d3357848901518255600182019150602085019450602081019050611d0e565b86831015611d505784890151611d4c601f891682611c5f565b8355505b6001600288020188555050505b505050505050565b5f606082019050611d785f8301866118df565b611d8560208301856118df565b611d9260408301846114a9565b949350505050565b5f8115159050919050565b611dae81611d9a565b8114611db8575f80fd5b50565b5f81519050611dc981611da5565b92915050565b5f60208284031215611de457611de3611413565b5b5f611df184828501611dbb565b91505092915050565b5f604082019050611e0d5f8301856118df565b611e1a60208301846114a9565b939250505056fea2646970667358221220b52cb36ab509a72eb118687d78c6e5544d55fde87fb93ffe695fea319f6f526a64736f6c634300081a0033",
					"opcodes": "PUSH1 0xC0 PUSH1 0x40 MSTORE CALLVALUE DUP1 ISZERO PUSH2 0xF JUMPI PUSH0 DUP1 REVERT JUMPDEST POP PUSH1 0x40 MLOAD PUSH2 0x1FD1 CODESIZE SUB DUP1 PUSH2 0x1FD1 DUP4 CODECOPY DUP2 DUP2 ADD PUSH1 0x40 MSTORE DUP2 ADD SWAP1 PUSH2 0x31 SWAP2 SWAP1 PUSH2 0xFD JUMP JUMPDEST CALLER PUSH20 0xFFFFFFFFFFFFFFFFFFFFFFFFFFFFFFFFFFFFFFFF AND PUSH1 0x80 DUP2 PUSH20 0xFFFFFFFFFFFFFFFFFFFFFFFFFFFFFFFFFFFFFFFF AND DUP2 MSTORE POP POP DUP1 PUSH20 0xFFFFFFFFFFFFFFFFFFFFFFFFFFFFFFFFFFFFFFFF AND PUSH1 0xA0 DUP2 PUSH20 0xFFFFFFFFFFFFFFFFFFFFFFFFFFFFFFFFFFFFFFFF AND DUP2 MSTORE POP POP POP PUSH2 0x128 JUMP JUMPDEST PUSH0 DUP1 REVERT JUMPDEST PUSH0 PUSH20 0xFFFFFFFFFFFFFFFFFFFFFFFFFFFFFFFFFFFFFFFF DUP3 AND SWAP1 POP SWAP2 SWAP1 POP JUMP JUMPDEST PUSH0 PUSH2 0xCC DUP3 PUSH2 0xA3 JUMP JUMPDEST SWAP1 POP SWAP2 SWAP1 POP JUMP JUMPDEST PUSH2 0xDC DUP2 PUSH2 0xC2 JUMP JUMPDEST DUP2 EQ PUSH2 0xE6 JUMPI PUSH0 DUP1 REVERT JUMPDEST POP JUMP JUMPDEST PUSH0 DUP2 MLOAD SWAP1 POP PUSH2 0xF7 DUP2 PUSH2 0xD3 JUMP JUMPDEST SWAP3 SWAP2 POP POP JUMP JUMPDEST PUSH0 PUSH1 0x20 DUP3 DUP5 SUB SLT ISZERO PUSH2 0x112 JUMPI PUSH2 0x111 PUSH2 0x9F JUMP JUMPDEST JUMPDEST PUSH0 PUSH2 0x11F DUP5 DUP3 DUP6 ADD PUSH2 0xE9 JUMP JUMPDEST SWAP2 POP POP SWAP3 SWAP2 POP POP JUMP JUMPDEST PUSH1 0x80 MLOAD PUSH1 0xA0 MLOAD PUSH2 0x1E57 PUSH2 0x17A PUSH0 CODECOPY PUSH0 DUP2 DUP2 PUSH2 0x7C0 ADD MSTORE DUP2 DUP2 PUSH2 0x994 ADD MSTORE DUP2 DUP2 PUSH2 0xDA9 ADD MSTORE PUSH2 0x1276 ADD MSTORE PUSH0 DUP2 DUP2 PUSH2 0x326 ADD MSTORE DUP2 DUP2 PUSH2 0x454 ADD MSTORE DUP2 DUP2 PUSH2 0x6C3 ADD MSTORE DUP2 DUP2 PUSH2 0xC4A ADD MSTORE PUSH2 0xF3C ADD MSTORE PUSH2 0x1E57 PUSH0 RETURN INVALID PUSH1 0x80 PUSH1 0x40 MSTORE CALLVALUE DUP1 ISZERO PUSH2 0xF JUMPI PUSH0 DUP1 REVERT JUMPDEST POP PUSH1 0x4 CALLDATASIZE LT PUSH2 0xF3 JUMPI PUSH0 CALLDATALOAD PUSH1 0xE0 SHR DUP1 PUSH4 0x69524D31 GT PUSH2 0x95 JUMPI DUP1 PUSH4 0x97B1A8B7 GT PUSH2 0x64 JUMPI DUP1 PUSH4 0x97B1A8B7 EQ PUSH2 0x241 JUMPI DUP1 PUSH4 0xD107A5CC EQ PUSH2 0x276 JUMPI DUP1 PUSH4 0xD62B58CA EQ PUSH2 0x292 JUMPI DUP1 PUSH4 0xEB5A662E EQ PUSH2 0x2AE JUMPI PUSH2 0xF3 JUMP JUMPDEST DUP1 PUSH4 0x69524D31 EQ PUSH2 0x1E3 JUMPI DUP1 PUSH4 0x69527363 EQ PUSH2 0x1FF JUMPI DUP1 PUSH4 0x733DA7C8 EQ PUSH2 0x21B JUMPI DUP1 PUSH4 0x7FEAB380 EQ PUSH2 0x237 JUMPI PUSH2 0xF3 JUMP JUMPDEST DUP1 PUSH4 0x4FE19125 GT PUSH2 0xD1 JUMPI DUP1 PUSH4 0x4FE19125 EQ PUSH2 0x15F JUMPI DUP1 PUSH4 0x5ED04C43 EQ PUSH2 0x17B JUMPI DUP1 PUSH4 0x64502CAE EQ PUSH2 0x1AB JUMPI DUP1 PUSH4 0x68B377CA EQ PUSH2 0x1C7 JUMPI PUSH2 0xF3 JUMP JUMPDEST DUP1 PUSH4 0x17056D94 EQ PUSH2 0xF7 JUMPI DUP1 PUSH4 0x19EC73E0 EQ PUSH2 0x127 JUMPI DUP1 PUSH4 0x459CCEC7 EQ PUSH2 0x143 JUMPI JUMPDEST PUSH0 DUP1 REVERT JUMPDEST PUSH2 0x111 PUSH1 0x4 DUP1 CALLDATASIZE SUB DUP2 ADD SWAP1 PUSH2 0x10C SWAP2 SWAP1 PUSH2 0x1475 JUMP JUMPDEST PUSH2 0x2DE JUMP JUMPDEST PUSH1 0x40 MLOAD PUSH2 0x11E SWAP2 SWAP1 PUSH2 0x14B8 JUMP JUMPDEST PUSH1 0x40 MLOAD DUP1 SWAP2 SUB SWAP1 RETURN JUMPDEST PUSH2 0x141 PUSH1 0x4 DUP1 CALLDATASIZE SUB DUP2 ADD SWAP1 PUSH2 0x13C SWAP2 SWAP1 PUSH2 0x14FB JUMP JUMPDEST PUSH2 0x324 JUMP JUMPDEST STOP JUMPDEST PUSH2 0x15D PUSH1 0x4 DUP1 CALLDATASIZE SUB DUP2 ADD SWAP1 PUSH2 0x158 SWAP2 SWAP1 PUSH2 0x1475 JUMP JUMPDEST PUSH2 0x452 JUMP JUMPDEST STOP JUMPDEST PUSH2 0x179 PUSH1 0x4 DUP1 CALLDATASIZE SUB DUP2 ADD SWAP1 PUSH2 0x174 SWAP2 SWAP1 PUSH2 0x1675 JUMP JUMPDEST PUSH2 0x55D JUMP JUMPDEST STOP JUMPDEST PUSH2 0x195 PUSH1 0x4 DUP1 CALLDATASIZE SUB DUP2 ADD SWAP1 PUSH2 0x190 SWAP2 SWAP1 PUSH2 0x16EB JUMP JUMPDEST PUSH2 0x5D0 JUMP JUMPDEST PUSH1 0x40 MLOAD PUSH2 0x1A2 SWAP2 SWAP1 PUSH2 0x1792 JUMP JUMPDEST PUSH1 0x40 MLOAD DUP1 SWAP2 SUB SWAP1 RETURN JUMPDEST PUSH2 0x1C5 PUSH1 0x4 DUP1 CALLDATASIZE SUB DUP2 ADD SWAP1 PUSH2 0x1C0 SWAP2 SWAP1 PUSH2 0x14FB JUMP JUMPDEST PUSH2 0x6C1 JUMP JUMPDEST STOP JUMPDEST PUSH2 0x1E1 PUSH1 0x4 DUP1 CALLDATASIZE SUB DUP2 ADD SWAP1 PUSH2 0x1DC SWAP2 SWAP1 PUSH2 0x17B2 JUMP JUMPDEST PUSH2 0x79C JUMP JUMPDEST STOP JUMPDEST PUSH2 0x1FD PUSH1 0x4 DUP1 CALLDATASIZE SUB DUP2 ADD SWAP1 PUSH2 0x1F8 SWAP2 SWAP1 PUSH2 0x16EB JUMP JUMPDEST PUSH2 0x8E9 JUMP JUMPDEST STOP JUMPDEST PUSH2 0x219 PUSH1 0x4 DUP1 CALLDATASIZE SUB DUP2 ADD SWAP1 PUSH2 0x214 SWAP2 SWAP1 PUSH2 0x183A JUMP JUMPDEST PUSH2 0xAB0 JUMP JUMPDEST STOP JUMPDEST PUSH2 0x235 PUSH1 0x4 DUP1 CALLDATASIZE SUB DUP2 ADD SWAP1 PUSH2 0x230 SWAP2 SWAP1 PUSH2 0x14FB JUMP JUMPDEST PUSH2 0xC48 JUMP JUMPDEST STOP JUMPDEST PUSH2 0x23F PUSH2 0xD23 JUMP JUMPDEST STOP JUMPDEST PUSH2 0x25B PUSH1 0x4 DUP1 CALLDATASIZE SUB DUP2 ADD SWAP1 PUSH2 0x256 SWAP2 SWAP1 PUSH2 0x16EB JUMP JUMPDEST PUSH2 0xEC1 JUMP JUMPDEST PUSH1 0x40 MLOAD PUSH2 0x26D SWAP7 SWAP6 SWAP5 SWAP4 SWAP3 SWAP2 SWAP1 PUSH2 0x18EE JUMP JUMPDEST PUSH1 0x40 MLOAD DUP1 SWAP2 SUB SWAP1 RETURN JUMPDEST PUSH2 0x290 PUSH1 0x4 DUP1 CALLDATASIZE SUB DUP2 ADD SWAP1 PUSH2 0x28B SWAP2 SWAP1 PUSH2 0x14FB JUMP JUMPDEST PUSH2 0xF3A JUMP JUMPDEST STOP JUMPDEST PUSH2 0x2AC PUSH1 0x4 DUP1 CALLDATASIZE SUB DUP2 ADD SWAP1 PUSH2 0x2A7 SWAP2 SWAP1 PUSH2 0x194D JUMP JUMPDEST PUSH2 0x1068 JUMP JUMPDEST STOP JUMPDEST PUSH2 0x2C8 PUSH1 0x4 DUP1 CALLDATASIZE SUB DUP2 ADD SWAP1 PUSH2 0x2C3 SWAP2 SWAP1 PUSH2 0x1475 JUMP JUMPDEST PUSH2 0x1352 JUMP JUMPDEST PUSH1 0x40 MLOAD PUSH2 0x2D5 SWAP2 SWAP1 PUSH2 0x14B8 JUMP JUMPDEST PUSH1 0x40 MLOAD DUP1 SWAP2 SUB SWAP1 RETURN JUMPDEST PUSH0 PUSH1 0x1 PUSH0 DUP4 PUSH20 0xFFFFFFFFFFFFFFFFFFFFFFFFFFFFFFFFFFFFFFFF AND PUSH20 0xFFFFFFFFFFFFFFFFFFFFFFFFFFFFFFFFFFFFFFFF AND DUP2 MSTORE PUSH1 0x20 ADD SWAP1 DUP2 MSTORE PUSH1 0x20 ADD PUSH0 KECCAK256 SLOAD SWAP1 POP SWAP2 SWAP1 POP JUMP JUMPDEST PUSH32 0x0 PUSH20 0xFFFFFFFFFFFFFFFFFFFFFFFFFFFFFFFFFFFFFFFF AND CALLER PUSH20 0xFFFFFFFFFFFFFFFFFFFFFFFFFFFFFFFFFFFFFFFF AND EQ PUSH2 0x3A9 JUMPI PUSH1 0x40 MLOAD PUSH32 0xC31B2CFE00000000000000000000000000000000000000000000000000000000 DUP2 MSTORE PUSH1 0x4 ADD PUSH1 0x40 MLOAD DUP1 SWAP2 SUB SWAP1 REVERT JUMPDEST DUP1 PUSH0 DUP1 DUP5 PUSH20 0xFFFFFFFFFFFFFFFFFFFFFFFFFFFFFFFFFFFFFFFF AND PUSH20 0xFFFFFFFFFFFFFFFFFFFFFFFFFFFFFFFFFFFFFFFF AND DUP2 MSTORE PUSH1 0x20 ADD SWAP1 DUP2 MSTORE PUSH1 0x20 ADD PUSH0 KECCAK256 PUSH0 DUP3 DUP3 SLOAD PUSH2 0x3F4 SWAP2 SWAP1 PUSH2 0x19E6 JUMP JUMPDEST SWAP3 POP POP DUP2 SWAP1 SSTORE POP DUP1 PUSH1 0x1 PUSH0 DUP5 PUSH20 0xFFFFFFFFFFFFFFFFFFFFFFFFFFFFFFFFFFFFFFFF AND PUSH20 0xFFFFFFFFFFFFFFFFFFFFFFFFFFFFFFFFFFFFFFFF AND DUP2 MSTORE PUSH1 0x20 ADD SWAP1 DUP2 MSTORE PUSH1 0x20 ADD PUSH0 KECCAK256 PUSH0 DUP3 DUP3 SLOAD PUSH2 0x447 SWAP2 SWAP1 PUSH2 0x1A19 JUMP JUMPDEST SWAP3 POP POP DUP2 SWAP1 SSTORE POP POP POP JUMP JUMPDEST PUSH32 0x0 PUSH20 0xFFFFFFFFFFFFFFFFFFFFFFFFFFFFFFFFFFFFFFFF AND CALLER PUSH20 0xFFFFFFFFFFFFFFFFFFFFFFFFFFFFFFFFFFFFFFFF AND EQ PUSH2 0x4D7 JUMPI PUSH1 0x40 MLOAD PUSH32 0xC31B2CFE00000000000000000000000000000000000000000000000000000000 DUP2 MSTORE PUSH1 0x4 ADD PUSH1 0x40 MLOAD DUP1 SWAP2 SUB SWAP1 REVERT JUMPDEST PUSH0 DUP1 PUSH0 DUP4 PUSH20 0xFFFFFFFFFFFFFFFFFFFFFFFFFFFFFFFFFFFFFFFF AND PUSH20 0xFFFFFFFFFFFFFFFFFFFFFFFFFFFFFFFFFFFFFFFF AND DUP2 MSTORE PUSH1 0x20 ADD SWAP1 DUP2 MSTORE PUSH1 0x20 ADD PUSH0 KECCAK256 DUP2 SWAP1 SSTORE POP PUSH0 PUSH1 0x1 PUSH0 DUP4 PUSH20 0xFFFFFFFFFFFFFFFFFFFFFFFFFFFFFFFFFFFFFFFF AND PUSH20 0xFFFFFFFFFFFFFFFFFFFFFFFFFFFFFFFFFFFFFFFF AND DUP2 MSTORE PUSH1 0x20 ADD SWAP1 DUP2 MSTORE PUSH1 0x20 ADD PUSH0 KECCAK256 DUP2 SWAP1 SSTORE POP POP JUMP JUMPDEST PUSH0 PUSH1 0x2 DUP4 PUSH1 0x40 MLOAD PUSH2 0x56E SWAP2 SWAP1 PUSH2 0x1A86 JUMP JUMPDEST SWAP1 DUP2 MSTORE PUSH1 0x20 ADD PUSH1 0x40 MLOAD DUP1 SWAP2 SUB SWAP1 KECCAK256 SWAP1 POP DUP2 DUP2 PUSH1 0x8 ADD PUSH0 CALLER PUSH20 0xFFFFFFFFFFFFFFFFFFFFFFFFFFFFFFFFFFFFFFFF AND PUSH20 0xFFFFFFFFFFFFFFFFFFFFFFFFFFFFFFFFFFFFFFFF AND DUP2 MSTORE PUSH1 0x20 ADD SWAP1 DUP2 MSTORE PUSH1 0x20 ADD PUSH0 KECCAK256 SWAP1 DUP2 PUSH2 0x5CA SWAP2 SWAP1 PUSH2 0x1C96 JUMP JUMPDEST POP POP POP POP JUMP JUMPDEST PUSH1 0x60 PUSH0 PUSH1 0x2 DUP4 PUSH1 0x40 MLOAD PUSH2 0x5E3 SWAP2 SWAP1 PUSH2 0x1A86 JUMP JUMPDEST SWAP1 DUP2 MSTORE PUSH1 0x20 ADD PUSH1 0x40 MLOAD DUP1 SWAP2 SUB SWAP1 KECCAK256 SWAP1 POP DUP1 PUSH1 0x8 ADD PUSH0 CALLER PUSH20 0xFFFFFFFFFFFFFFFFFFFFFFFFFFFFFFFFFFFFFFFF AND PUSH20 0xFFFFFFFFFFFFFFFFFFFFFFFFFFFFFFFFFFFFFFFF AND DUP2 MSTORE PUSH1 0x20 ADD SWAP1 DUP2 MSTORE PUSH1 0x20 ADD PUSH0 KECCAK256 DUP1 SLOAD PUSH2 0x63D SWAP1 PUSH2 0x1AC9 JUMP JUMPDEST DUP1 PUSH1 0x1F ADD PUSH1 0x20 DUP1 SWAP2 DIV MUL PUSH1 0x20 ADD PUSH1 0x40 MLOAD SWAP1 DUP2 ADD PUSH1 0x40 MSTORE DUP1 SWAP3 SWAP2 SWAP1 DUP2 DUP2 MSTORE PUSH1 0x20 ADD DUP3 DUP1 SLOAD PUSH2 0x669 SWAP1 PUSH2 0x1AC9 JUMP JUMPDEST DUP1 ISZERO PUSH2 0x6B4 JUMPI DUP1 PUSH1 0x1F LT PUSH2 0x68B JUMPI PUSH2 0x100 DUP1 DUP4 SLOAD DIV MUL DUP4 MSTORE SWAP2 PUSH1 0x20 ADD SWAP2 PUSH2 0x6B4 JUMP JUMPDEST DUP3 ADD SWAP2 SWAP1 PUSH0 MSTORE PUSH1 0x20 PUSH0 KECCAK256 SWAP1 JUMPDEST DUP2 SLOAD DUP2 MSTORE SWAP1 PUSH1 0x1 ADD SWAP1 PUSH1 0x20 ADD DUP1 DUP4 GT PUSH2 0x697 JUMPI DUP3 SWAP1 SUB PUSH1 0x1F AND DUP3 ADD SWAP2 JUMPDEST POP POP POP POP POP SWAP2 POP POP SWAP2 SWAP1 POP JUMP JUMPDEST PUSH32 0x0 PUSH20 0xFFFFFFFFFFFFFFFFFFFFFFFFFFFFFFFFFFFFFFFF AND CALLER PUSH20 0xFFFFFFFFFFFFFFFFFFFFFFFFFFFFFFFFFFFFFFFF AND EQ PUSH2 0x746 JUMPI PUSH1 0x40 MLOAD PUSH32 0xC31B2CFE00000000000000000000000000000000000000000000000000000000 DUP2 MSTORE PUSH1 0x4 ADD PUSH1 0x40 MLOAD DUP1 SWAP2 SUB SWAP1 REVERT JUMPDEST DUP1 PUSH0 DUP1 DUP5 PUSH20 0xFFFFFFFFFFFFFFFFFFFFFFFFFFFFFFFFFFFFFFFF AND PUSH20 0xFFFFFFFFFFFFFFFFFFFFFFFFFFFFFFFFFFFFFFFF AND DUP2 MSTORE PUSH1 0x20 ADD SWAP1 DUP2 MSTORE PUSH1 0x20 ADD PUSH0 KECCAK256 PUSH0 DUP3 DUP3 SLOAD PUSH2 0x791 SWAP2 SWAP1 PUSH2 0x1A19 JUMP JUMPDEST SWAP3 POP POP DUP2 SWAP1 SSTORE POP POP POP JUMP JUMPDEST PUSH0 PUSH1 0x2 DUP5 PUSH1 0x40 MLOAD PUSH2 0x7AD SWAP2 SWAP1 PUSH2 0x1A86 JUMP JUMPDEST SWAP1 DUP2 MSTORE PUSH1 0x20 ADD PUSH1 0x40 MLOAD DUP1 SWAP2 SUB SWAP1 KECCAK256 SWAP1 POP PUSH0 PUSH32 0x0 PUSH20 0xFFFFFFFFFFFFFFFFFFFFFFFFFFFFFFFFFFFFFFFF AND PUSH4 0x23B872DD CALLER ADDRESS DUP8 PUSH1 0x40 MLOAD DUP5 PUSH4 0xFFFFFFFF AND PUSH1 0xE0 SHL DUP2 MSTORE PUSH1 0x4 ADD PUSH2 0x81B SWAP4 SWAP3 SWAP2 SWAP1 PUSH2 0x1D65 JUMP JUMPDEST PUSH1 0x20 PUSH1 0x40 MLOAD DUP1 DUP4 SUB DUP2 PUSH0 DUP8 GAS CALL ISZERO DUP1 ISZERO PUSH2 0x837 JUMPI RETURNDATASIZE PUSH0 DUP1 RETURNDATACOPY RETURNDATASIZE PUSH0 REVERT JUMPDEST POP POP POP POP PUSH1 0x40 MLOAD RETURNDATASIZE PUSH1 0x1F NOT PUSH1 0x1F DUP3 ADD AND DUP3 ADD DUP1 PUSH1 0x40 MSTORE POP DUP2 ADD SWAP1 PUSH2 0x85B SWAP2 SWAP1 PUSH2 0x1DCF JUMP JUMPDEST SWAP1 POP DUP1 PUSH2 0x894 JUMPI PUSH1 0x40 MLOAD PUSH32 0x81B714BE00000000000000000000000000000000000000000000000000000000 DUP2 MSTORE PUSH1 0x4 ADD PUSH1 0x40 MLOAD DUP1 SWAP2 SUB SWAP1 REVERT JUMPDEST DUP4 DUP3 PUSH1 0x6 ADD PUSH0 CALLER PUSH20 0xFFFFFFFFFFFFFFFFFFFFFFFFFFFFFFFFFFFFFFFF AND PUSH20 0xFFFFFFFFFFFFFFFFFFFFFFFFFFFFFFFFFFFFFFFF AND DUP2 MSTORE PUSH1 0x20 ADD SWAP1 DUP2 MSTORE PUSH1 0x20 ADD PUSH0 KECCAK256 DUP2 SWAP1 SSTORE POP PUSH2 0x8E2 DUP6 DUP5 PUSH2 0x1397 JUMP JUMPDEST POP POP POP POP POP JUMP JUMPDEST PUSH0 PUSH1 0x2 DUP3 PUSH1 0x40 MLOAD PUSH2 0x8FA SWAP2 SWAP1 PUSH2 0x1A86 JUMP JUMPDEST SWAP1 DUP2 MSTORE PUSH1 0x20 ADD PUSH1 0x40 MLOAD DUP1 SWAP2 SUB SWAP1 KECCAK256 SWAP1 POP PUSH0 DUP2 PUSH1 0x6 ADD PUSH0 CALLER PUSH20 0xFFFFFFFFFFFFFFFFFFFFFFFFFFFFFFFFFFFFFFFF AND PUSH20 0xFFFFFFFFFFFFFFFFFFFFFFFFFFFFFFFFFFFFFFFF AND DUP2 MSTORE PUSH1 0x20 ADD SWAP1 DUP2 MSTORE PUSH1 0x20 ADD PUSH0 KECCAK256 SLOAD SWAP1 POP PUSH0 DUP3 PUSH1 0x6 ADD PUSH0 CALLER PUSH20 0xFFFFFFFFFFFFFFFFFFFFFFFFFFFFFFFFFFFFFFFF AND PUSH20 0xFFFFFFFFFFFFFFFFFFFFFFFFFFFFFFFFFFFFFFFF AND DUP2 MSTORE PUSH1 0x20 ADD SWAP1 DUP2 MSTORE PUSH1 0x20 ADD PUSH0 KECCAK256 DUP2 SWAP1 SSTORE POP PUSH0 PUSH32 0x0 PUSH20 0xFFFFFFFFFFFFFFFFFFFFFFFFFFFFFFFFFFFFFFFF AND PUSH4 0xA9059CBB CALLER DUP5 PUSH1 0x40 MLOAD DUP4 PUSH4 0xFFFFFFFF AND PUSH1 0xE0 SHL DUP2 MSTORE PUSH1 0x4 ADD PUSH2 0x9ED SWAP3 SWAP2 SWAP1 PUSH2 0x1DFA JUMP JUMPDEST PUSH1 0x20 PUSH1 0x40 MLOAD DUP1 DUP4 SUB DUP2 PUSH0 DUP8 GAS CALL ISZERO DUP1 ISZERO PUSH2 0xA09 JUMPI RETURNDATASIZE PUSH0 DUP1 RETURNDATACOPY RETURNDATASIZE PUSH0 REVERT JUMPDEST POP POP POP POP PUSH1 0x40 MLOAD RETURNDATASIZE PUSH1 0x1F NOT PUSH1 0x1F DUP3 ADD AND DUP3 ADD DUP1 PUSH1 0x40 MSTORE POP DUP2 ADD SWAP1 PUSH2 0xA2D SWAP2 SWAP1 PUSH2 0x1DCF JUMP JUMPDEST SWAP1 POP DUP1 PUSH2 0xAAA JUMPI DUP2 DUP4 PUSH1 0x6 ADD PUSH0 CALLER PUSH20 0xFFFFFFFFFFFFFFFFFFFFFFFFFFFFFFFFFFFFFFFF AND PUSH20 0xFFFFFFFFFFFFFFFFFFFFFFFFFFFFFFFFFFFFFFFF AND DUP2 MSTORE PUSH1 0x20 ADD SWAP1 DUP2 MSTORE PUSH1 0x20 ADD PUSH0 KECCAK256 DUP2 SWAP1 SSTORE POP PUSH1 0x40 MLOAD PUSH32 0x81B714BE00000000000000000000000000000000000000000000000000000000 DUP2 MSTORE PUSH1 0x4 ADD PUSH1 0x40 MLOAD DUP1 SWAP2 SUB SWAP1 REVERT JUMPDEST POP POP POP POP JUMP JUMPDEST PUSH0 DUP6 GT ISZERO DUP1 PUSH2 0xABF JUMPI POP DUP4 DUP5 LT ISZERO JUMPDEST DUP1 PUSH2 0xACA JUMPI POP PUSH0 DUP2 GT ISZERO JUMPDEST DUP1 PUSH2 0xAD4 JUMPI POP DUP5 DUP3 GT JUMPDEST ISZERO PUSH2 0xB0B JUMPI PUSH1 0x40 MLOAD PUSH32 0xECF0F1100000000000000000000000000000000000000000000000000000000 DUP2 MSTORE PUSH1 0x4 ADD PUSH1 0x40 MLOAD DUP1 SWAP2 SUB SWAP1 REVERT JUMPDEST PUSH0 PUSH1 0x2 DUP8 PUSH1 0x40 MLOAD PUSH2 0xB1C SWAP2 SWAP1 PUSH2 0x1A86 JUMP JUMPDEST SWAP1 DUP2 MSTORE PUSH1 0x20 ADD PUSH1 0x40 MLOAD DUP1 SWAP2 SUB SWAP1 KECCAK256 SWAP1 POP CALLER DUP2 PUSH0 ADD PUSH0 PUSH2 0x100 EXP DUP2 SLOAD DUP2 PUSH20 0xFFFFFFFFFFFFFFFFFFFFFFFFFFFFFFFFFFFFFFFF MUL NOT AND SWAP1 DUP4 PUSH20 0xFFFFFFFFFFFFFFFFFFFFFFFFFFFFFFFFFFFFFFFF AND MUL OR SWAP1 SSTORE POP DUP6 DUP2 PUSH1 0x1 ADD DUP2 SWAP1 SSTORE POP DUP5 DUP2 PUSH1 0x2 ADD DUP2 SWAP1 SSTORE POP DUP4 DUP2 PUSH1 0x3 ADD DUP2 SWAP1 SSTORE POP DUP2 DUP2 PUSH1 0x5 ADD DUP2 SWAP1 SSTORE POP DUP3 DUP2 PUSH1 0x4 ADD DUP2 SWAP1 SSTORE POP DUP6 PUSH0 DUP1 CALLER PUSH20 0xFFFFFFFFFFFFFFFFFFFFFFFFFFFFFFFFFFFFFFFF AND PUSH20 0xFFFFFFFFFFFFFFFFFFFFFFFFFFFFFFFFFFFFFFFF AND DUP2 MSTORE PUSH1 0x20 ADD SWAP1 DUP2 MSTORE PUSH1 0x20 ADD PUSH0 KECCAK256 PUSH0 DUP3 DUP3 SLOAD PUSH2 0xBE5 SWAP2 SWAP1 PUSH2 0x1A19 JUMP JUMPDEST SWAP3 POP POP DUP2 SWAP1 SSTORE POP DUP6 PUSH1 0x1 PUSH0 CALLER PUSH20 0xFFFFFFFFFFFFFFFFFFFFFFFFFFFFFFFFFFFFFFFF AND PUSH20 0xFFFFFFFFFFFFFFFFFFFFFFFFFFFFFFFFFFFFFFFF AND DUP2 MSTORE PUSH1 0x20 ADD SWAP1 DUP2 MSTORE PUSH1 0x20 ADD PUSH0 KECCAK256 PUSH0 DUP3 DUP3 SLOAD PUSH2 0xC38 SWAP2 SWAP1 PUSH2 0x19E6 JUMP JUMPDEST SWAP3 POP POP DUP2 SWAP1 SSTORE POP POP POP POP POP POP POP POP JUMP JUMPDEST PUSH32 0x0 PUSH20 0xFFFFFFFFFFFFFFFFFFFFFFFFFFFFFFFFFFFFFFFF AND CALLER PUSH20 0xFFFFFFFFFFFFFFFFFFFFFFFFFFFFFFFFFFFFFFFF AND EQ PUSH2 0xCCD JUMPI PUSH1 0x40 MLOAD PUSH32 0xC31B2CFE00000000000000000000000000000000000000000000000000000000 DUP2 MSTORE PUSH1 0x4 ADD PUSH1 0x40 MLOAD DUP1 SWAP2 SUB SWAP1 REVERT JUMPDEST DUP1 PUSH0 DUP1 DUP5 PUSH20 0xFFFFFFFFFFFFFFFFFFFFFFFFFFFFFFFFFFFFFFFF AND PUSH20 0xFFFFFFFFFFFFFFFFFFFFFFFFFFFFFFFFFFFFFFFF AND DUP2 MSTORE PUSH1 0x20 ADD SWAP1 DUP2 MSTORE PUSH1 0x20 ADD PUSH0 KECCAK256 PUSH0 DUP3 DUP3 SLOAD PUSH2 0xD18 SWAP2 SWAP1 PUSH2 0x19E6 JUMP JUMPDEST SWAP3 POP POP DUP2 SWAP1 SSTORE POP POP POP JUMP JUMPDEST PUSH0 PUSH1 0x3 PUSH0 CALLER PUSH20 0xFFFFFFFFFFFFFFFFFFFFFFFFFFFFFFFFFFFFFFFF AND PUSH20 0xFFFFFFFFFFFFFFFFFFFFFFFFFFFFFFFFFFFFFFFF AND DUP2 MSTORE PUSH1 0x20 ADD SWAP1 DUP2 MSTORE PUSH1 0x20 ADD PUSH0 KECCAK256 SLOAD SWAP1 POP PUSH0 PUSH1 0x3 PUSH0 CALLER PUSH20 0xFFFFFFFFFFFFFFFFFFFFFFFFFFFFFFFFFFFFFFFF AND PUSH20 0xFFFFFFFFFFFFFFFFFFFFFFFFFFFFFFFFFFFFFFFF AND DUP2 MSTORE PUSH1 0x20 ADD SWAP1 DUP2 MSTORE PUSH1 0x20 ADD PUSH0 KECCAK256 DUP2 SWAP1 SSTORE POP PUSH0 PUSH32 0x0 PUSH20 0xFFFFFFFFFFFFFFFFFFFFFFFFFFFFFFFFFFFFFFFF AND PUSH4 0xA9059CBB CALLER DUP5 PUSH1 0x40 MLOAD DUP4 PUSH4 0xFFFFFFFF AND PUSH1 0xE0 SHL DUP2 MSTORE PUSH1 0x4 ADD PUSH2 0xE02 SWAP3 SWAP2 SWAP1 PUSH2 0x1DFA JUMP JUMPDEST PUSH1 0x20 PUSH1 0x40 MLOAD DUP1 DUP4 SUB DUP2 PUSH0 DUP8 GAS CALL ISZERO DUP1 ISZERO PUSH2 0xE1E JUMPI RETURNDATASIZE PUSH0 DUP1 RETURNDATACOPY RETURNDATASIZE PUSH0 REVERT JUMPDEST POP POP POP POP PUSH1 0x40 MLOAD RETURNDATASIZE PUSH1 0x1F NOT PUSH1 0x1F DUP3 ADD AND DUP3 ADD DUP1 PUSH1 0x40 MSTORE POP DUP2 ADD SWAP1 PUSH2 0xE42 SWAP2 SWAP1 PUSH2 0x1DCF JUMP JUMPDEST SWAP1 POP DUP1 PUSH2 0xEBD JUMPI DUP2 PUSH1 0x3 PUSH0 CALLER PUSH20 0xFFFFFFFFFFFFFFFFFFFFFFFFFFFFFFFFFFFFFFFF AND PUSH20 0xFFFFFFFFFFFFFFFFFFFFFFFFFFFFFFFFFFFFFFFF AND DUP2 MSTORE PUSH1 0x20 ADD SWAP1 DUP2 MSTORE PUSH1 0x20 ADD PUSH0 KECCAK256 DUP2 SWAP1 SSTORE POP PUSH1 0x40 MLOAD PUSH32 0x81B714BE00000000000000000000000000000000000000000000000000000000 DUP2 MSTORE PUSH1 0x4 ADD PUSH1 0x40 MLOAD DUP1 SWAP2 SUB SWAP1 REVERT JUMPDEST POP POP JUMP JUMPDEST PUSH0 DUP1 PUSH0 DUP1 PUSH0 DUP1 PUSH0 PUSH1 0x2 DUP9 PUSH1 0x40 MLOAD PUSH2 0xED8 SWAP2 SWAP1 PUSH2 0x1A86 JUMP JUMPDEST SWAP1 DUP2 MSTORE PUSH1 0x20 ADD PUSH1 0x40 MLOAD DUP1 SWAP2 SUB SWAP1 KECCAK256 SWAP1 POP DUP1 PUSH0 ADD PUSH0 SWAP1 SLOAD SWAP1 PUSH2 0x100 EXP SWAP1 DIV PUSH20 0xFFFFFFFFFFFFFFFFFFFFFFFFFFFFFFFFFFFFFFFF AND DUP2 PUSH1 0x1 ADD SLOAD DUP3 PUSH1 0x2 ADD SLOAD DUP4 PUSH1 0x3 ADD SLOAD DUP5 PUSH1 0x5 ADD SLOAD DUP6 PUSH1 0x4 ADD SLOAD SWAP7 POP SWAP7 POP SWAP7 POP SWAP7 POP SWAP7 POP SWAP7 POP POP SWAP2 SWAP4 SWAP6 POP SWAP2 SWAP4 SWAP6 JUMP JUMPDEST PUSH32 0x0 PUSH20 0xFFFFFFFFFFFFFFFFFFFFFFFFFFFFFFFFFFFFFFFF AND CALLER PUSH20 0xFFFFFFFFFFFFFFFFFFFFFFFFFFFFFFFFFFFFFFFF AND EQ PUSH2 0xFBF JUMPI PUSH1 0x40 MLOAD PUSH32 0xC31B2CFE00000000000000000000000000000000000000000000000000000000 DUP2 MSTORE PUSH1 0x4 ADD PUSH1 0x40 MLOAD DUP1 SWAP2 SUB SWAP1 REVERT JUMPDEST DUP1 PUSH0 DUP1 DUP5 PUSH20 0xFFFFFFFFFFFFFFFFFFFFFFFFFFFFFFFFFFFFFFFF AND PUSH20 0xFFFFFFFFFFFFFFFFFFFFFFFFFFFFFFFFFFFFFFFF AND DUP2 MSTORE PUSH1 0x20 ADD SWAP1 DUP2 MSTORE PUSH1 0x20 ADD PUSH0 KECCAK256 PUSH0 DUP3 DUP3 SLOAD PUSH2 0x100A SWAP2 SWAP1 PUSH2 0x1A19 JUMP JUMPDEST SWAP3 POP POP DUP2 SWAP1 SSTORE POP DUP1 PUSH1 0x1 PUSH0 DUP5 PUSH20 0xFFFFFFFFFFFFFFFFFFFFFFFFFFFFFFFFFFFFFFFF AND PUSH20 0xFFFFFFFFFFFFFFFFFFFFFFFFFFFFFFFFFFFFFFFF AND DUP2 MSTORE PUSH1 0x20 ADD SWAP1 DUP2 MSTORE PUSH1 0x20 ADD PUSH0 KECCAK256 PUSH0 DUP3 DUP3 SLOAD PUSH2 0x105D SWAP2 SWAP1 PUSH2 0x19E6 JUMP JUMPDEST SWAP3 POP POP DUP2 SWAP1 SSTORE POP POP POP JUMP JUMPDEST PUSH0 PUSH1 0x2 DUP5 PUSH1 0x40 MLOAD PUSH2 0x1079 SWAP2 SWAP1 PUSH2 0x1A86 JUMP JUMPDEST SWAP1 DUP2 MSTORE PUSH1 0x20 ADD PUSH1 0x40 MLOAD DUP1 SWAP2 SUB SWAP1 KECCAK256 SWAP1 POP PUSH0 DUP2 PUSH1 0x6 ADD PUSH0 CALLER PUSH20 0xFFFFFFFFFFFFFFFFFFFFFFFFFFFFFFFFFFFFFFFF AND PUSH20 0xFFFFFFFFFFFFFFFFFFFFFFFFFFFFFFFFFFFFFFFF AND DUP2 MSTORE PUSH1 0x20 ADD SWAP1 DUP2 MSTORE PUSH1 0x20 ADD PUSH0 KECCAK256 SLOAD SWAP1 POP PUSH0 PUSH1 0x2 DUP7 PUSH1 0x40 MLOAD PUSH2 0x10DD SWAP2 SWAP1 PUSH2 0x1A86 JUMP JUMPDEST SWAP1 DUP2 MSTORE PUSH1 0x20 ADD PUSH1 0x40 MLOAD DUP1 SWAP2 SUB SWAP1 KECCAK256 PUSH1 0x6 ADD PUSH0 CALLER PUSH20 0xFFFFFFFFFFFFFFFFFFFFFFFFFFFFFFFFFFFFFFFF AND PUSH20 0xFFFFFFFFFFFFFFFFFFFFFFFFFFFFFFFFFFFFFFFF AND DUP2 MSTORE PUSH1 0x20 ADD SWAP1 DUP2 MSTORE PUSH1 0x20 ADD PUSH0 KECCAK256 DUP2 SWAP1 SSTORE POP DUP3 DUP2 PUSH2 0x1139 SWAP2 SWAP1 PUSH2 0x19E6 JUMP JUMPDEST PUSH1 0x3 PUSH0 DUP5 PUSH0 ADD PUSH0 SWAP1 SLOAD SWAP1 PUSH2 0x100 EXP SWAP1 DIV PUSH20 0xFFFFFFFFFFFFFFFFFFFFFFFFFFFFFFFFFFFFFFFF AND PUSH20 0xFFFFFFFFFFFFFFFFFFFFFFFFFFFFFFFFFFFFFFFF AND PUSH20 0xFFFFFFFFFFFFFFFFFFFFFFFFFFFFFFFFFFFFFFFF AND DUP2 MSTORE PUSH1 0x20 ADD SWAP1 DUP2 MSTORE PUSH1 0x20 ADD PUSH0 KECCAK256 PUSH0 DUP3 DUP3 SLOAD PUSH2 0x11A6 SWAP2 SWAP1 PUSH2 0x19E6 JUMP JUMPDEST SWAP3 POP POP DUP2 SWAP1 SSTORE POP DUP4 PUSH0 DUP1 DUP5 PUSH0 ADD PUSH0 SWAP1 SLOAD SWAP1 PUSH2 0x100 EXP SWAP1 DIV PUSH20 0xFFFFFFFFFFFFFFFFFFFFFFFFFFFFFFFFFFFFFFFF AND PUSH20 0xFFFFFFFFFFFFFFFFFFFFFFFFFFFFFFFFFFFFFFFF AND PUSH20 0xFFFFFFFFFFFFFFFFFFFFFFFFFFFFFFFFFFFFFFFF AND DUP2 MSTORE PUSH1 0x20 ADD SWAP1 DUP2 MSTORE PUSH1 0x20 ADD PUSH0 KECCAK256 PUSH0 DUP3 DUP3 SLOAD PUSH2 0x121A SWAP2 SWAP1 PUSH2 0x1A19 JUMP JUMPDEST SWAP3 POP POP DUP2 SWAP1 SSTORE POP DUP4 PUSH0 DUP1 CALLER PUSH20 0xFFFFFFFFFFFFFFFFFFFFFFFFFFFFFFFFFFFFFFFF AND PUSH20 0xFFFFFFFFFFFFFFFFFFFFFFFFFFFFFFFFFFFFFFFF AND DUP2 MSTORE PUSH1 0x20 ADD SWAP1 DUP2 MSTORE PUSH1 0x20 ADD PUSH0 KECCAK256 PUSH0 DUP3 DUP3 SLOAD PUSH2 0x126C SWAP2 SWAP1 PUSH2 0x19E6 JUMP JUMPDEST SWAP3 POP POP DUP2 SWAP1 SSTORE POP PUSH0 PUSH32 0x0 PUSH20 0xFFFFFFFFFFFFFFFFFFFFFFFFFFFFFFFFFFFFFFFF AND PUSH4 0x23B872DD CALLER ADDRESS DUP8 PUSH1 0x40 MLOAD DUP5 PUSH4 0xFFFFFFFF AND PUSH1 0xE0 SHL DUP2 MSTORE PUSH1 0x4 ADD PUSH2 0x12D1 SWAP4 SWAP3 SWAP2 SWAP1 PUSH2 0x1D65 JUMP JUMPDEST PUSH1 0x20 PUSH1 0x40 MLOAD DUP1 DUP4 SUB DUP2 PUSH0 DUP8 GAS CALL ISZERO DUP1 ISZERO PUSH2 0x12ED JUMPI RETURNDATASIZE PUSH0 DUP1 RETURNDATACOPY RETURNDATASIZE PUSH0 REVERT JUMPDEST POP POP POP POP PUSH1 0x40 MLOAD RETURNDATASIZE PUSH1 0x1F NOT PUSH1 0x1F DUP3 ADD AND DUP3 ADD DUP1 PUSH1 0x40 MSTORE POP DUP2 ADD SWAP1 PUSH2 0x1311 SWAP2 SWAP1 PUSH2 0x1DCF JUMP JUMPDEST SWAP1 POP DUP1 PUSH2 0x134A JUMPI PUSH1 0x40 MLOAD PUSH32 0x81B714BE00000000000000000000000000000000000000000000000000000000 DUP2 MSTORE PUSH1 0x4 ADD PUSH1 0x40 MLOAD DUP1 SWAP2 SUB SWAP1 REVERT JUMPDEST POP POP POP POP POP POP JUMP JUMPDEST PUSH0 DUP1 PUSH0 DUP4 PUSH20 0xFFFFFFFFFFFFFFFFFFFFFFFFFFFFFFFFFFFFFFFF AND PUSH20 0xFFFFFFFFFFFFFFFFFFFFFFFFFFFFFFFFFFFFFFFF AND DUP2 MSTORE PUSH1 0x20 ADD SWAP1 DUP2 MSTORE PUSH1 0x20 ADD PUSH0 KECCAK256 SLOAD SWAP1 POP SWAP2 SWAP1 POP JUMP JUMPDEST PUSH0 PUSH1 0x2 DUP4 PUSH1 0x40 MLOAD PUSH2 0x13A8 SWAP2 SWAP1 PUSH2 0x1A86 JUMP JUMPDEST SWAP1 DUP2 MSTORE PUSH1 0x20 ADD PUSH1 0x40 MLOAD DUP1 SWAP2 SUB SWAP1 KECCAK256 SWAP1 POP DUP2 DUP2 PUSH1 0x7 ADD PUSH0 CALLER PUSH20 0xFFFFFFFFFFFFFFFFFFFFFFFFFFFFFFFFFFFFFFFF AND PUSH20 0xFFFFFFFFFFFFFFFFFFFFFFFFFFFFFFFFFFFFFFFF AND DUP2 MSTORE PUSH1 0x20 ADD SWAP1 DUP2 MSTORE PUSH1 0x20 ADD PUSH0 KECCAK256 SWAP1 DUP2 PUSH2 0x1404 SWAP2 SWAP1 PUSH2 0x1C96 JUMP JUMPDEST POP POP POP POP JUMP JUMPDEST PUSH0 PUSH1 0x40 MLOAD SWAP1 POP SWAP1 JUMP JUMPDEST PUSH0 DUP1 REVERT JUMPDEST PUSH0 DUP1 REVERT JUMPDEST PUSH0 PUSH20 0xFFFFFFFFFFFFFFFFFFFFFFFFFFFFFFFFFFFFFFFF DUP3 AND SWAP1 POP SWAP2 SWAP1 POP JUMP JUMPDEST PUSH0 PUSH2 0x1444 DUP3 PUSH2 0x141B JUMP JUMPDEST SWAP1 POP SWAP2 SWAP1 POP JUMP JUMPDEST PUSH2 0x1454 DUP2 PUSH2 0x143A JUMP JUMPDEST DUP2 EQ PUSH2 0x145E JUMPI PUSH0 DUP1 REVERT JUMPDEST POP JUMP JUMPDEST PUSH0 DUP2 CALLDATALOAD SWAP1 POP PUSH2 0x146F DUP2 PUSH2 0x144B JUMP JUMPDEST SWAP3 SWAP2 POP POP JUMP JUMPDEST PUSH0 PUSH1 0x20 DUP3 DUP5 SUB SLT ISZERO PUSH2 0x148A JUMPI PUSH2 0x1489 PUSH2 0x1413 JUMP JUMPDEST JUMPDEST PUSH0 PUSH2 0x1497 DUP5 DUP3 DUP6 ADD PUSH2 0x1461 JUMP JUMPDEST SWAP2 POP POP SWAP3 SWAP2 POP POP JUMP JUMPDEST PUSH0 DUP2 SWAP1 POP SWAP2 SWAP1 POP JUMP JUMPDEST PUSH2 0x14B2 DUP2 PUSH2 0x14A0 JUMP JUMPDEST DUP3 MSTORE POP POP JUMP JUMPDEST PUSH0 PUSH1 0x20 DUP3 ADD SWAP1 POP PUSH2 0x14CB PUSH0 DUP4 ADD DUP5 PUSH2 0x14A9 JUMP JUMPDEST SWAP3 SWAP2 POP POP JUMP JUMPDEST PUSH2 0x14DA DUP2 PUSH2 0x14A0 JUMP JUMPDEST DUP2 EQ PUSH2 0x14E4 JUMPI PUSH0 DUP1 REVERT JUMPDEST POP JUMP JUMPDEST PUSH0 DUP2 CALLDATALOAD SWAP1 POP PUSH2 0x14F5 DUP2 PUSH2 0x14D1 JUMP JUMPDEST SWAP3 SWAP2 POP POP JUMP JUMPDEST PUSH0 DUP1 PUSH1 0x40 DUP4 DUP6 SUB SLT ISZERO PUSH2 0x1511 JUMPI PUSH2 0x1510 PUSH2 0x1413 JUMP JUMPDEST JUMPDEST PUSH0 PUSH2 0x151E DUP6 DUP3 DUP7 ADD PUSH2 0x1461 JUMP JUMPDEST SWAP3 POP POP PUSH1 0x20 PUSH2 0x152F DUP6 DUP3 DUP7 ADD PUSH2 0x14E7 JUMP JUMPDEST SWAP2 POP POP SWAP3 POP SWAP3 SWAP1 POP JUMP JUMPDEST PUSH0 DUP1 REVERT JUMPDEST PUSH0 DUP1 REVERT JUMPDEST PUSH0 PUSH1 0x1F NOT PUSH1 0x1F DUP4 ADD AND SWAP1 POP SWAP2 SWAP1 POP JUMP JUMPDEST PUSH32 0x4E487B7100000000000000000000000000000000000000000000000000000000 PUSH0 MSTORE PUSH1 0x41 PUSH1 0x4 MSTORE PUSH1 0x24 PUSH0 REVERT JUMPDEST PUSH2 0x1587 DUP3 PUSH2 0x1541 JUMP JUMPDEST DUP2 ADD DUP2 DUP2 LT PUSH8 0xFFFFFFFFFFFFFFFF DUP3 GT OR ISZERO PUSH2 0x15A6 JUMPI PUSH2 0x15A5 PUSH2 0x1551 JUMP JUMPDEST JUMPDEST DUP1 PUSH1 0x40 MSTORE POP POP POP JUMP JUMPDEST PUSH0 PUSH2 0x15B8 PUSH2 0x140A JUMP JUMPDEST SWAP1 POP PUSH2 0x15C4 DUP3 DUP3 PUSH2 0x157E JUMP JUMPDEST SWAP2 SWAP1 POP JUMP JUMPDEST PUSH0 PUSH8 0xFFFFFFFFFFFFFFFF DUP3 GT ISZERO PUSH2 0x15E3 JUMPI PUSH2 0x15E2 PUSH2 0x1551 JUMP JUMPDEST JUMPDEST PUSH2 0x15EC DUP3 PUSH2 0x1541 JUMP JUMPDEST SWAP1 POP PUSH1 0x20 DUP2 ADD SWAP1 POP SWAP2 SWAP1 POP JUMP JUMPDEST DUP3 DUP2 DUP4 CALLDATACOPY PUSH0 DUP4 DUP4 ADD MSTORE POP POP POP JUMP JUMPDEST PUSH0 PUSH2 0x1619 PUSH2 0x1614 DUP5 PUSH2 0x15C9 JUMP JUMPDEST PUSH2 0x15AF JUMP JUMPDEST SWAP1 POP DUP3 DUP2 MSTORE PUSH1 0x20 DUP2 ADD DUP5 DUP5 DUP5 ADD GT ISZERO PUSH2 0x1635 JUMPI PUSH2 0x1634 PUSH2 0x153D JUMP JUMPDEST JUMPDEST PUSH2 0x1640 DUP5 DUP3 DUP6 PUSH2 0x15F9 JUMP JUMPDEST POP SWAP4 SWAP3 POP POP POP JUMP JUMPDEST PUSH0 DUP3 PUSH1 0x1F DUP4 ADD SLT PUSH2 0x165C JUMPI PUSH2 0x165B PUSH2 0x1539 JUMP JUMPDEST JUMPDEST DUP2 CALLDATALOAD PUSH2 0x166C DUP5 DUP3 PUSH1 0x20 DUP7 ADD PUSH2 0x1607 JUMP JUMPDEST SWAP2 POP POP SWAP3 SWAP2 POP POP JUMP JUMPDEST PUSH0 DUP1 PUSH1 0x40 DUP4 DUP6 SUB SLT ISZERO PUSH2 0x168B JUMPI PUSH2 0x168A PUSH2 0x1413 JUMP JUMPDEST JUMPDEST PUSH0 DUP4 ADD CALLDATALOAD PUSH8 0xFFFFFFFFFFFFFFFF DUP2 GT ISZERO PUSH2 0x16A8 JUMPI PUSH2 0x16A7 PUSH2 0x1417 JUMP JUMPDEST JUMPDEST PUSH2 0x16B4 DUP6 DUP3 DUP7 ADD PUSH2 0x1648 JUMP JUMPDEST SWAP3 POP POP PUSH1 0x20 DUP4 ADD CALLDATALOAD PUSH8 0xFFFFFFFFFFFFFFFF DUP2 GT ISZERO PUSH2 0x16D5 JUMPI PUSH2 0x16D4 PUSH2 0x1417 JUMP JUMPDEST JUMPDEST PUSH2 0x16E1 DUP6 DUP3 DUP7 ADD PUSH2 0x1648 JUMP JUMPDEST SWAP2 POP POP SWAP3 POP SWAP3 SWAP1 POP JUMP JUMPDEST PUSH0 PUSH1 0x20 DUP3 DUP5 SUB SLT ISZERO PUSH2 0x1700 JUMPI PUSH2 0x16FF PUSH2 0x1413 JUMP JUMPDEST JUMPDEST PUSH0 DUP3 ADD CALLDATALOAD PUSH8 0xFFFFFFFFFFFFFFFF DUP2 GT ISZERO PUSH2 0x171D JUMPI PUSH2 0x171C PUSH2 0x1417 JUMP JUMPDEST JUMPDEST PUSH2 0x1729 DUP5 DUP3 DUP6 ADD PUSH2 0x1648 JUMP JUMPDEST SWAP2 POP POP SWAP3 SWAP2 POP POP JUMP JUMPDEST PUSH0 DUP2 MLOAD SWAP1 POP SWAP2 SWAP1 POP JUMP JUMPDEST PUSH0 DUP3 DUP3 MSTORE PUSH1 0x20 DUP3 ADD SWAP1 POP SWAP3 SWAP2 POP POP JUMP JUMPDEST DUP3 DUP2 DUP4 MCOPY PUSH0 DUP4 DUP4 ADD MSTORE POP POP POP JUMP JUMPDEST PUSH0 PUSH2 0x1764 DUP3 PUSH2 0x1732 JUMP JUMPDEST PUSH2 0x176E DUP2 DUP6 PUSH2 0x173C JUMP JUMPDEST SWAP4 POP PUSH2 0x177E DUP2 DUP6 PUSH1 0x20 DUP7 ADD PUSH2 0x174C JUMP JUMPDEST PUSH2 0x1787 DUP2 PUSH2 0x1541 JUMP JUMPDEST DUP5 ADD SWAP2 POP POP SWAP3 SWAP2 POP POP JUMP JUMPDEST PUSH0 PUSH1 0x20 DUP3 ADD SWAP1 POP DUP2 DUP2 SUB PUSH0 DUP4 ADD MSTORE PUSH2 0x17AA DUP2 DUP5 PUSH2 0x175A JUMP JUMPDEST SWAP1 POP SWAP3 SWAP2 POP POP JUMP JUMPDEST PUSH0 DUP1 PUSH0 PUSH1 0x60 DUP5 DUP7 SUB SLT ISZERO PUSH2 0x17C9 JUMPI PUSH2 0x17C8 PUSH2 0x1413 JUMP JUMPDEST JUMPDEST PUSH0 DUP5 ADD CALLDATALOAD PUSH8 0xFFFFFFFFFFFFFFFF DUP2 GT ISZERO PUSH2 0x17E6 JUMPI PUSH2 0x17E5 PUSH2 0x1417 JUMP JUMPDEST JUMPDEST PUSH2 0x17F2 DUP7 DUP3 DUP8 ADD PUSH2 0x1648 JUMP JUMPDEST SWAP4 POP POP PUSH1 0x20 PUSH2 0x1803 DUP7 DUP3 DUP8 ADD PUSH2 0x14E7 JUMP JUMPDEST SWAP3 POP POP PUSH1 0x40 DUP5 ADD CALLDATALOAD PUSH8 0xFFFFFFFFFFFFFFFF DUP2 GT ISZERO PUSH2 0x1824 JUMPI PUSH2 0x1823 PUSH2 0x1417 JUMP JUMPDEST JUMPDEST PUSH2 0x1830 DUP7 DUP3 DUP8 ADD PUSH2 0x1648 JUMP JUMPDEST SWAP2 POP POP SWAP3 POP SWAP3 POP SWAP3 JUMP JUMPDEST PUSH0 DUP1 PUSH0 DUP1 PUSH0 DUP1 PUSH1 0xC0 DUP8 DUP10 SUB SLT ISZERO PUSH2 0x1854 JUMPI PUSH2 0x1853 PUSH2 0x1413 JUMP JUMPDEST JUMPDEST PUSH0 DUP8 ADD CALLDATALOAD PUSH8 0xFFFFFFFFFFFFFFFF DUP2 GT ISZERO PUSH2 0x1871 JUMPI PUSH2 0x1870 PUSH2 0x1417 JUMP JUMPDEST JUMPDEST PUSH2 0x187D DUP10 DUP3 DUP11 ADD PUSH2 0x1648 JUMP JUMPDEST SWAP7 POP POP PUSH1 0x20 PUSH2 0x188E DUP10 DUP3 DUP11 ADD PUSH2 0x14E7 JUMP JUMPDEST SWAP6 POP POP PUSH1 0x40 PUSH2 0x189F DUP10 DUP3 DUP11 ADD PUSH2 0x14E7 JUMP JUMPDEST SWAP5 POP POP PUSH1 0x60 PUSH2 0x18B0 DUP10 DUP3 DUP11 ADD PUSH2 0x14E7 JUMP JUMPDEST SWAP4 POP POP PUSH1 0x80 PUSH2 0x18C1 DUP10 DUP3 DUP11 ADD PUSH2 0x14E7 JUMP JUMPDEST SWAP3 POP POP PUSH1 0xA0 PUSH2 0x18D2 DUP10 DUP3 DUP11 ADD PUSH2 0x14E7 JUMP JUMPDEST SWAP2 POP POP SWAP3 SWAP6 POP SWAP3 SWAP6 POP SWAP3 SWAP6 JUMP JUMPDEST PUSH2 0x18E8 DUP2 PUSH2 0x143A JUMP JUMPDEST DUP3 MSTORE POP POP JUMP JUMPDEST PUSH0 PUSH1 0xC0 DUP3 ADD SWAP1 POP PUSH2 0x1901 PUSH0 DUP4 ADD DUP10 PUSH2 0x18DF JUMP JUMPDEST PUSH2 0x190E PUSH1 0x20 DUP4 ADD DUP9 PUSH2 0x14A9 JUMP JUMPDEST PUSH2 0x191B PUSH1 0x40 DUP4 ADD DUP8 PUSH2 0x14A9 JUMP JUMPDEST PUSH2 0x1928 PUSH1 0x60 DUP4 ADD DUP7 PUSH2 0x14A9 JUMP JUMPDEST PUSH2 0x1935 PUSH1 0x80 DUP4 ADD DUP6 PUSH2 0x14A9 JUMP JUMPDEST PUSH2 0x1942 PUSH1 0xA0 DUP4 ADD DUP5 PUSH2 0x14A9 JUMP JUMPDEST SWAP8 SWAP7 POP POP POP POP POP POP POP JUMP JUMPDEST PUSH0 DUP1 PUSH0 PUSH1 0x60 DUP5 DUP7 SUB SLT ISZERO PUSH2 0x1964 JUMPI PUSH2 0x1963 PUSH2 0x1413 JUMP JUMPDEST JUMPDEST PUSH0 DUP5 ADD CALLDATALOAD PUSH8 0xFFFFFFFFFFFFFFFF DUP2 GT ISZERO PUSH2 0x1981 JUMPI PUSH2 0x1980 PUSH2 0x1417 JUMP JUMPDEST JUMPDEST PUSH2 0x198D DUP7 DUP3 DUP8 ADD PUSH2 0x1648 JUMP JUMPDEST SWAP4 POP POP PUSH1 0x20 PUSH2 0x199E DUP7 DUP3 DUP8 ADD PUSH2 0x14E7 JUMP JUMPDEST SWAP3 POP POP PUSH1 0x40 PUSH2 0x19AF DUP7 DUP3 DUP8 ADD PUSH2 0x14E7 JUMP JUMPDEST SWAP2 POP POP SWAP3 POP SWAP3 POP SWAP3 JUMP JUMPDEST PUSH32 0x4E487B7100000000000000000000000000000000000000000000000000000000 PUSH0 MSTORE PUSH1 0x11 PUSH1 0x4 MSTORE PUSH1 0x24 PUSH0 REVERT JUMPDEST PUSH0 PUSH2 0x19F0 DUP3 PUSH2 0x14A0 JUMP JUMPDEST SWAP2 POP PUSH2 0x19FB DUP4 PUSH2 0x14A0 JUMP JUMPDEST SWAP3 POP DUP3 DUP3 ADD SWAP1 POP DUP1 DUP3 GT ISZERO PUSH2 0x1A13 JUMPI PUSH2 0x1A12 PUSH2 0x19B9 JUMP JUMPDEST JUMPDEST SWAP3 SWAP2 POP POP JUMP JUMPDEST PUSH0 PUSH2 0x1A23 DUP3 PUSH2 0x14A0 JUMP JUMPDEST SWAP2 POP PUSH2 0x1A2E DUP4 PUSH2 0x14A0 JUMP JUMPDEST SWAP3 POP DUP3 DUP3 SUB SWAP1 POP DUP2 DUP2 GT ISZERO PUSH2 0x1A46 JUMPI PUSH2 0x1A45 PUSH2 0x19B9 JUMP JUMPDEST JUMPDEST SWAP3 SWAP2 POP POP JUMP JUMPDEST PUSH0 DUP2 SWAP1 POP SWAP3 SWAP2 POP POP JUMP JUMPDEST PUSH0 PUSH2 0x1A60 DUP3 PUSH2 0x1732 JUMP JUMPDEST PUSH2 0x1A6A DUP2 DUP6 PUSH2 0x1A4C JUMP JUMPDEST SWAP4 POP PUSH2 0x1A7A DUP2 DUP6 PUSH1 0x20 DUP7 ADD PUSH2 0x174C JUMP JUMPDEST DUP1 DUP5 ADD SWAP2 POP POP SWAP3 SWAP2 POP POP JUMP JUMPDEST PUSH0 PUSH2 0x1A91 DUP3 DUP5 PUSH2 0x1A56 JUMP JUMPDEST SWAP2 POP DUP2 SWAP1 POP SWAP3 SWAP2 POP POP JUMP JUMPDEST PUSH32 0x4E487B7100000000000000000000000000000000000000000000000000000000 PUSH0 MSTORE PUSH1 0x22 PUSH1 0x4 MSTORE PUSH1 0x24 PUSH0 REVERT JUMPDEST PUSH0 PUSH1 0x2 DUP3 DIV SWAP1 POP PUSH1 0x1 DUP3 AND DUP1 PUSH2 0x1AE0 JUMPI PUSH1 0x7F DUP3 AND SWAP2 POP JUMPDEST PUSH1 0x20 DUP3 LT DUP2 SUB PUSH2 0x1AF3 JUMPI PUSH2 0x1AF2 PUSH2 0x1A9C JUMP JUMPDEST JUMPDEST POP SWAP2 SWAP1 POP JUMP JUMPDEST PUSH0 DUP2 SWAP1 POP DUP2 PUSH0 MSTORE PUSH1 0x20 PUSH0 KECCAK256 SWAP1 POP SWAP2 SWAP1 POP JUMP JUMPDEST PUSH0 PUSH1 0x20 PUSH1 0x1F DUP4 ADD DIV SWAP1 POP SWAP2 SWAP1 POP JUMP JUMPDEST PUSH0 DUP3 DUP3 SHL SWAP1 POP SWAP3 SWAP2 POP POP JUMP JUMPDEST PUSH0 PUSH1 0x8 DUP4 MUL PUSH2 0x1B55 PUSH32 0xFFFFFFFFFFFFFFFFFFFFFFFFFFFFFFFFFFFFFFFFFFFFFFFFFFFFFFFFFFFFFFFF DUP3 PUSH2 0x1B1A JUMP JUMPDEST PUSH2 0x1B5F DUP7 DUP4 PUSH2 0x1B1A JUMP JUMPDEST SWAP6 POP DUP1 NOT DUP5 AND SWAP4 POP DUP1 DUP7 AND DUP5 OR SWAP3 POP POP POP SWAP4 SWAP3 POP POP POP JUMP JUMPDEST PUSH0 DUP2 SWAP1 POP SWAP2 SWAP1 POP JUMP JUMPDEST PUSH0 PUSH2 0x1B9A PUSH2 0x1B95 PUSH2 0x1B90 DUP5 PUSH2 0x14A0 JUMP JUMPDEST PUSH2 0x1B77 JUMP JUMPDEST PUSH2 0x14A0 JUMP JUMPDEST SWAP1 POP SWAP2 SWAP1 POP JUMP JUMPDEST PUSH0 DUP2 SWAP1 POP SWAP2 SWAP1 POP JUMP JUMPDEST PUSH2 0x1BB3 DUP4 PUSH2 0x1B80 JUMP JUMPDEST PUSH2 0x1BC7 PUSH2 0x1BBF DUP3 PUSH2 0x1BA1 JUMP JUMPDEST DUP5 DUP5 SLOAD PUSH2 0x1B26 JUMP JUMPDEST DUP3 SSTORE POP POP POP POP JUMP JUMPDEST PUSH0 SWAP1 JUMP JUMPDEST PUSH2 0x1BDB PUSH2 0x1BCF JUMP JUMPDEST PUSH2 0x1BE6 DUP2 DUP5 DUP5 PUSH2 0x1BAA JUMP JUMPDEST POP POP POP JUMP JUMPDEST JUMPDEST DUP2 DUP2 LT ISZERO PUSH2 0x1C09 JUMPI PUSH2 0x1BFE PUSH0 DUP3 PUSH2 0x1BD3 JUMP JUMPDEST PUSH1 0x1 DUP2 ADD SWAP1 POP PUSH2 0x1BEC JUMP JUMPDEST POP POP JUMP JUMPDEST PUSH1 0x1F DUP3 GT ISZERO PUSH2 0x1C4E JUMPI PUSH2 0x1C1F DUP2 PUSH2 0x1AF9 JUMP JUMPDEST PUSH2 0x1C28 DUP5 PUSH2 0x1B0B JUMP JUMPDEST DUP2 ADD PUSH1 0x20 DUP6 LT ISZERO PUSH2 0x1C37 JUMPI DUP2 SWAP1 POP JUMPDEST PUSH2 0x1C4B PUSH2 0x1C43 DUP6 PUSH2 0x1B0B JUMP JUMPDEST DUP4 ADD DUP3 PUSH2 0x1BEB JUMP JUMPDEST POP POP JUMPDEST POP POP POP JUMP JUMPDEST PUSH0 DUP3 DUP3 SHR SWAP1 POP SWAP3 SWAP2 POP POP JUMP JUMPDEST PUSH0 PUSH2 0x1C6E PUSH0 NOT DUP5 PUSH1 0x8 MUL PUSH2 0x1C53 JUMP JUMPDEST NOT DUP1 DUP4 AND SWAP2 POP POP SWAP3 SWAP2 POP POP JUMP JUMPDEST PUSH0 PUSH2 0x1C86 DUP4 DUP4 PUSH2 0x1C5F JUMP JUMPDEST SWAP2 POP DUP3 PUSH1 0x2 MUL DUP3 OR SWAP1 POP SWAP3 SWAP2 POP POP JUMP JUMPDEST PUSH2 0x1C9F DUP3 PUSH2 0x1732 JUMP JUMPDEST PUSH8 0xFFFFFFFFFFFFFFFF DUP2 GT ISZERO PUSH2 0x1CB8 JUMPI PUSH2 0x1CB7 PUSH2 0x1551 JUMP JUMPDEST JUMPDEST PUSH2 0x1CC2 DUP3 SLOAD PUSH2 0x1AC9 JUMP JUMPDEST PUSH2 0x1CCD DUP3 DUP3 DUP6 PUSH2 0x1C0D JUMP JUMPDEST PUSH0 PUSH1 0x20 SWAP1 POP PUSH1 0x1F DUP4 GT PUSH1 0x1 DUP2 EQ PUSH2 0x1CFE JUMPI PUSH0 DUP5 ISZERO PUSH2 0x1CEC JUMPI DUP3 DUP8 ADD MLOAD SWAP1 POP JUMPDEST PUSH2 0x1CF6 DUP6 DUP3 PUSH2 0x1C7B JUMP JUMPDEST DUP7 SSTORE POP PUSH2 0x1D5D JUMP JUMPDEST PUSH1 0x1F NOT DUP5 AND PUSH2 0x1D0C DUP7 PUSH2 0x1AF9 JUMP JUMPDEST PUSH0 JUMPDEST DUP3 DUP2 LT ISZERO PUSH2 0x1D33 JUMPI DUP5 DUP10 ADD MLOAD DUP3 SSTORE PUSH1 0x1 DUP3 ADD SWAP2 POP PUSH1 0x20 DUP6 ADD SWAP5 POP PUSH1 0x20 DUP2 ADD SWAP1 POP PUSH2 0x1D0E JUMP JUMPDEST DUP7 DUP4 LT ISZERO PUSH2 0x1D50 JUMPI DUP5 DUP10 ADD MLOAD PUSH2 0x1D4C PUSH1 0x1F DUP10 AND DUP3 PUSH2 0x1C5F JUMP JUMPDEST DUP4 SSTORE POP JUMPDEST PUSH1 0x1 PUSH1 0x2 DUP9 MUL ADD DUP9 SSTORE POP POP POP JUMPDEST POP POP POP POP POP POP JUMP JUMPDEST PUSH0 PUSH1 0x60 DUP3 ADD SWAP1 POP PUSH2 0x1D78 PUSH0 DUP4 ADD DUP7 PUSH2 0x18DF JUMP JUMPDEST PUSH2 0x1D85 PUSH1 0x20 DUP4 ADD DUP6 PUSH2 0x18DF JUMP JUMPDEST PUSH2 0x1D92 PUSH1 0x40 DUP4 ADD DUP5 PUSH2 0x14A9 JUMP JUMPDEST SWAP5 SWAP4 POP POP POP POP JUMP JUMPDEST PUSH0 DUP2 ISZERO ISZERO SWAP1 POP SWAP2 SWAP1 POP JUMP JUMPDEST PUSH2 0x1DAE DUP2 PUSH2 0x1D9A JUMP JUMPDEST DUP2 EQ PUSH2 0x1DB8 JUMPI PUSH0 DUP1 REVERT JUMPDEST POP JUMP JUMPDEST PUSH0 DUP2 MLOAD SWAP1 POP PUSH2 0x1DC9 DUP2 PUSH2 0x1DA5 JUMP JUMPDEST SWAP3 SWAP2 POP POP JUMP JUMPDEST PUSH0 PUSH1 0x20 DUP3 DUP5 SUB SLT ISZERO PUSH2 0x1DE4 JUMPI PUSH2 0x1DE3 PUSH2 0x1413 JUMP JUMPDEST JUMPDEST PUSH0 PUSH2 0x1DF1 DUP5 DUP3 DUP6 ADD PUSH2 0x1DBB JUMP JUMPDEST SWAP2 POP POP SWAP3 SWAP2 POP POP JUMP JUMPDEST PUSH0 PUSH1 0x40 DUP3 ADD SWAP1 POP PUSH2 0x1E0D PUSH0 DUP4 ADD DUP6 PUSH2 0x18DF JUMP JUMPDEST PUSH2 0x1E1A PUSH1 0x20 DUP4 ADD DUP5 PUSH2 0x14A9 JUMP JUMPDEST SWAP4 SWAP3 POP POP POP JUMP INVALID LOG2 PUSH5 0x6970667358 0x22 SLT KECCAK256 0xB5 0x2C 0xB3 PUSH11 0xB509A72EB118687D78C6E5 SLOAD 0x4D SSTORE REVERT 0xE8 PUSH32 0xB93FFE695FEA319F6F526A64736F6C634300081A003300000000000000000000 "
				},
				"gasEstimates": {
					"creation": {
						"codeDepositCost": "1553400",
						"executionCost": "infinite",
						"totalCost": "infinite"
					},
					"external": {
						"deposit(string,uint256,string)": "infinite",
						"destroyAllAllowance(address)": "infinite",
						"destroyAllowance(address,uint256)": "infinite",
						"finalizeAuctionAndTransferCarbon(string,uint256,uint256)": "infinite",
						"freezeAllowance(address,uint256)": "infinite",
						"getAllowance(address)": "2917",
						"getBidSecret(string)": "infinite",
						"getFreezeAllowance(address)": "2853",
						"getTread(string)": "infinite",
						"issueAllowance(address,uint256)": "infinite",
						"refundDeposit(string)": "infinite",
						"setBidSecret(string,string)": "infinite",
						"stertTrade(string,uint256,uint256,uint256,uint256,uint256)": "infinite",
						"unFreezeAllowance(address,uint256)": "infinite",
						"withdrawAcutionAmount()": "infinite"
					},
					"internal": {
						"setInfo(string memory,string memory)": "infinite"
					}
				},
				"methodIdentifiers": {
					"deposit(string,uint256,string)": "68b377ca",
					"destroyAllAllowance(address)": "459ccec7",
					"destroyAllowance(address,uint256)": "64502cae",
					"finalizeAuctionAndTransferCarbon(string,uint256,uint256)": "d62b58ca",
					"freezeAllowance(address,uint256)": "d107a5cc",
					"getAllowance(address)": "eb5a662e",
					"getBidSecret(string)": "5ed04c43",
					"getFreezeAllowance(address)": "17056d94",
					"getTread(string)": "97b1a8b7",
					"issueAllowance(address,uint256)": "733da7c8",
					"refundDeposit(string)": "69524d31",
					"setBidSecret(string,string)": "4fe19125",
					"stertTrade(string,uint256,uint256,uint256,uint256,uint256)": "69527363",
					"unFreezeAllowance(address,uint256)": "19ec73e0",
					"withdrawAcutionAmount()": "7feab380"
				}
			},
			"storageLayout": {
				"storage": [
					{
						"astId": 823,
						"contract": "contracts/CarbonTrader.sol:CarbonTrader",
						"label": "s_addressToAllowances",
						"offset": 0,
						"slot": "0",
						"type": "t_mapping(t_address,t_uint256)"
					},
					{
						"astId": 827,
						"contract": "contracts/CarbonTrader.sol:CarbonTrader",
						"label": "s_freezeAllowance",
						"offset": 0,
						"slot": "1",
						"type": "t_mapping(t_address,t_uint256)"
					},
					{
						"astId": 832,
						"contract": "contracts/CarbonTrader.sol:CarbonTrader",
						"label": "s_trade",
						"offset": 0,
						"slot": "2",
						"type": "t_mapping(t_string_memory_ptr,t_struct(Trade)819_storage)"
					},
					{
						"astId": 836,
						"contract": "contracts/CarbonTrader.sol:CarbonTrader",
						"label": "s_auctionAmount",
						"offset": 0,
						"slot": "3",
						"type": "t_mapping(t_address,t_uint256)"
					}
				],
				"types": {
					"t_address": {
						"encoding": "inplace",
						"label": "address",
						"numberOfBytes": "20"
					},
					"t_mapping(t_address,t_string_storage)": {
						"encoding": "mapping",
						"key": "t_address",
						"label": "mapping(address => string)",
						"numberOfBytes": "32",
						"value": "t_string_storage"
					},
					"t_mapping(t_address,t_uint256)": {
						"encoding": "mapping",
						"key": "t_address",
						"label": "mapping(address => uint256)",
						"numberOfBytes": "32",
						"value": "t_uint256"
					},
					"t_mapping(t_string_memory_ptr,t_struct(Trade)819_storage)": {
						"encoding": "mapping",
						"key": "t_string_memory_ptr",
						"label": "mapping(string => struct CarbonTrader.Trade)",
						"numberOfBytes": "32",
						"value": "t_struct(Trade)819_storage"
					},
					"t_string_memory_ptr": {
						"encoding": "bytes",
						"label": "string",
						"numberOfBytes": "32"
					},
					"t_string_storage": {
						"encoding": "bytes",
						"label": "string",
						"numberOfBytes": "32"
					},
					"t_struct(Trade)819_storage": {
						"encoding": "inplace",
						"label": "struct CarbonTrader.Trade",
						"members": [
							{
								"astId": 796,
								"contract": "contracts/CarbonTrader.sol:CarbonTrader",
								"label": "seller",
								"offset": 0,
								"slot": "0",
								"type": "t_address"
							},
							{
								"astId": 798,
								"contract": "contracts/CarbonTrader.sol:CarbonTrader",
								"label": "sellAmount",
								"offset": 0,
								"slot": "1",
								"type": "t_uint256"
							},
							{
								"astId": 800,
								"contract": "contracts/CarbonTrader.sol:CarbonTrader",
								"label": "startTimeStamp",
								"offset": 0,
								"slot": "2",
								"type": "t_uint256"
							},
							{
								"astId": 802,
								"contract": "contracts/CarbonTrader.sol:CarbonTrader",
								"label": "endTimeStamp",
								"offset": 0,
								"slot": "3",
								"type": "t_uint256"
							},
							{
								"astId": 804,
								"contract": "contracts/CarbonTrader.sol:CarbonTrader",
								"label": "minimumBidAmount",
								"offset": 0,
								"slot": "4",
								"type": "t_uint256"
							},
							{
								"astId": 806,
								"contract": "contracts/CarbonTrader.sol:CarbonTrader",
								"label": "initPriceOfUint",
								"offset": 0,
								"slot": "5",
								"type": "t_uint256"
							},
							{
								"astId": 810,
								"contract": "contracts/CarbonTrader.sol:CarbonTrader",
								"label": "deeposits",
								"offset": 0,
								"slot": "6",
								"type": "t_mapping(t_address,t_uint256)"
							},
							{
								"astId": 814,
								"contract": "contracts/CarbonTrader.sol:CarbonTrader",
								"label": "bidInfos",
								"offset": 0,
								"slot": "7",
								"type": "t_mapping(t_address,t_string_storage)"
							},
							{
								"astId": 818,
								"contract": "contracts/CarbonTrader.sol:CarbonTrader",
								"label": "bidSecrets",
								"offset": 0,
								"slot": "8",
								"type": "t_mapping(t_address,t_string_storage)"
							}
						],
						"numberOfBytes": "288"
					},
					"t_uint256": {
						"encoding": "inplace",
						"label": "uint256",
						"numberOfBytes": "32"
					}
				}
			},
			"userdoc": {
				"kind": "user",
				"methods": {},
				"version": 1
			}
		}
	}
}